ARM Linker, 5.03 [Build 24] [MDK-ARM Professional]

==============================================================================

Section Cross References

    system_lpc177x_8x.o(.text) refers to system_lpc177x_8x.o(.data) for SystemCoreClock
    startup_lpc177x_8x.o(STACK) refers (Special) to heapauxi.o(.text) for __use_two_region_memory
    startup_lpc177x_8x.o(HEAP) refers (Special) to heapauxi.o(.text) for __use_two_region_memory
    startup_lpc177x_8x.o(RESET) refers (Special) to heapauxi.o(.text) for __use_two_region_memory
    startup_lpc177x_8x.o(RESET) refers to startup_lpc177x_8x.o(STACK) for __initial_sp
    startup_lpc177x_8x.o(RESET) refers to startup_lpc177x_8x.o(.text) for Reset_Handler
    startup_lpc177x_8x.o(RESET) refers to main.o(.text) for HardFault_Handler
    startup_lpc177x_8x.o(RESET) refers to hal_cm3.o(.emb_text) for SVC_Handler
    startup_lpc177x_8x.o(RESET) refers to wdt.o(.text) for WDT_IRQHandler
    startup_lpc177x_8x.o(RESET) refers to mbporttimer.o(.text) for TIMER0_IRQHandler
    startup_lpc177x_8x.o(RESET) refers to printer_low_level.o(.text) for UART1_IRQHandler
    startup_lpc177x_8x.o(RESET) refers to mbportserial.o(.text) for UART2_IRQHandler
    startup_lpc177x_8x.o(RESET) refers to scoreboard.o(.text) for UART3_IRQHandler
    startup_lpc177x_8x.o(RESET) refers to ioboard_drv.o(.text) for SSP0_IRQHandler
    startup_lpc177x_8x.o(RESET) refers to rtc.o(.text) for RTC_IRQHandler
    startup_lpc177x_8x.o(RESET) refers to usbh_ohci_lpc177x_8x.o(.text) for USB_IRQHandler
    startup_lpc177x_8x.o(RESET) refers to emac_lpc177x_8x.o(.text) for ENET_IRQHandler
    startup_lpc177x_8x.o(RESET) refers to keypad.o(.text) for GPIO_IRQHandler
==============================================================================

Removing Unused input sections from the image.

    Removing system_lpc177x_8x.o(.rev16_text), (4 bytes).
    Removing system_lpc177x_8x.o(.revsh_text), (4 bytes).
    Removing lpc177x_8x_bod.o(.rev16_text), (4 bytes).
    Removing lpc177x_8x_bod.o(.revsh_text), (4 bytes).
    Removing lpc177x_8x_bod.o(.text), (192 bytes).
    Removing lpc177x_8x_clkpwr.o(.rev16_text), (4 bytes).
    Removing lpc177x_8x_clkpwr.o(.revsh_text), (4 bytes).
    Removing lpc177x_8x_clkpwr.o(.data), (4 bytes).
    Removing lpc177x_8x_eeprom.o(.rev16_text), (4 bytes).
    Removing lpc177x_8x_eeprom.o(.revsh_text), (4 bytes).
    Removing lpc177x_8x_i2c.o(.rev16_text), (4 bytes).
    Removing lpc177x_8x_i2c.o(.revsh_text), (4 bytes).
    Removing lpc177x_8x_iap.o(.rev16_text), (4 bytes).
    Removing lpc177x_8x_iap.o(.revsh_text), (4 bytes).
    Removing lpc177x_8x_pinsel.o(.rev16_text), (4 bytes).
    Removing lpc177x_8x_pinsel.o(.revsh_text), (4 bytes).
    Removing lpc177x_8x_ssp.o(.rev16_text), (4 bytes).
    Removing lpc177x_8x_ssp.o(.revsh_text), (4 bytes).
==============================================================================

Adding Veneers to the image

    Adding TT veneer (10 bytes, Long) for call to 'CreateWindow_screen11' from screen_common_func.o(.text).
    Adding TT veneer (10 bytes, Long) for call to 'point_to_modbus_register' from modbus_tcp.o(.text).
    Adding TT veneer (10 bytes, Long) for call to 'screen3_variable_read_write' from modbus_tcp.o(.text).
    Adding TT veneer (10 bytes, Long) for call to 'screen4_variable_read_write' from modbus_tcp.o(.text).
    Adding TT veneer (10 bytes, Long) for call to 'calculate_size' from modbus_tcp.o(.text).
    Adding TT veneer (10 bytes, Long) for call to 'LISTBOX_GetSel' from screen11.o(.text).
    Adding TT veneer (10 bytes, Long) for call to 'WM_GetId' from screen11.o(.text).
    Adding TT veneer (10 bytes, Long) for call to 'MULTIEDIT_SetText' from screen11.o(.text).
    Adding TT veneer (10 bytes, Long) for call to 'MULTIEDIT_AddText' from screen11.o(.text).
    Adding TT veneer (10 bytes, Long) for call to 'WM_SetFocus' from screen11.o(.text).
    Adding TT veneer (10 bytes, Long) for call to 'GUI_ClearKeyBuffer' from screen11.o(.text).
    Adding TT veneer (10 bytes, Long) for call to 'LISTBOX_SetSel' from screen11.o(.text).
    Adding TT veneer (10 bytes, Long) for call to 'strcmp' from screen11.o(.text).
    Adding TT veneer (10 bytes, Long) for call to 'log_data_populate' from screen11.o(.text).
    Adding TT veneer (10 bytes, Long) for call to 'strcpy' from screen11.o(.text).
    Adding TT veneer (10 bytes, Long) for call to 'config_backup_write' from screen11.o(.text).
    Adding TT veneer (10 bytes, Long) for call to '__aeabi_memclr4' from screen11.o(.text).
    Adding TT veneer (10 bytes, Long) for call to 'config_backup_read' from screen11.o(.text).
    Adding TT veneer (10 bytes, Long) for call to 'Restore_Calib_Value_Upon_Cancel_Calibration_Process' from screen11.o(.text).
    Adding TT veneer (10 bytes, Long) for call to 'go_back_one_level' from screen11.o(.text).
    Adding TT veneer (10 bytes, Long) for call to 'WM_DefaultProc' from screen11.o(.text).
    Adding TT veneer (10 bytes, Long) for call to 'WM_GetDesktopWindow' from screen11.o(.text).
    Adding TT veneer (10 bytes, Long) for call to 'LISTBOX_CreateEx' from screen11.o(.text).
    Adding TT veneer (10 bytes, Long) for call to 'LISTBOX_AddString' from screen11.o(.text).
    Adding TT veneer (10 bytes, Long) for call to 'LISTBOX_SetTextColor' from screen11.o(.text).
    Adding TT veneer (10 bytes, Long) for call to 'LISTBOX_SetFont' from screen11.o(.text).
    Adding TT veneer (10 bytes, Long) for call to 'LISTBOX_SetBkColor' from screen11.o(.text).
    Adding TT veneer (10 bytes, Long) for call to 'LISTBOX_SetItemSpacing' from screen11.o(.text).
    Adding TT veneer (10 bytes, Long) for call to 'LISTBOX_SetAutoScrollV' from screen11.o(.text).
    Adding TT veneer (10 bytes, Long) for call to 'LISTBOX_SetAutoScrollH' from screen11.o(.text).
    Adding TT veneer (10 bytes, Long) for call to 'LISTBOX_SetScrollbarColor' from screen11.o(.text).
    Adding TT veneer (10 bytes, Long) for call to 'LISTBOX_SetScrollbarWidth' from screen11.o(.text).
    Adding TT veneer (10 bytes, Long) for call to 'WM_SetCallback' from screen11.o(.text).
    Adding TT veneer (10 bytes, Long) for call to 'LISTBOX_SetOwnerDraw' from screen11.o(.text).
    Adding TT veneer (10 bytes, Long) for call to 'MULTIEDIT_CreateEx' from screen11.o(.text).
    Adding TT veneer (10 bytes, Long) for call to 'MULTIEDIT_SetFont' from screen11.o(.text).
    Adding TT veneer (10 bytes, Long) for call to 'MULTIEDIT_SetBkColor' from screen11.o(.text).
    Adding TT veneer (10 bytes, Long) for call to 'MULTIEDIT_SetTextColor' from screen11.o(.text).
    Adding TT veneer (10 bytes, Long) for call to 'MULTIEDIT_SetWrapWord' from screen11.o(.text).
    Adding TT veneer (10 bytes, Long) for call to 'MULTIEDIT_SetReadOnly' from screen11.o(.text).
    Adding TT veneer (10 bytes, Long) for call to 'MULTIEDIT_SetInsertMode' from screen11.o(.text).
    Adding TT veneer (10 bytes, Long) for call to 'PROGBAR_CreateEx' from screen11.o(.text).
    Adding TT veneer (10 bytes, Long) for call to 'WM_EnableMemdev' from screen11.o(.text).
    Adding TT veneer (10 bytes, Long) for call to 'PROGBAR_SetFont' from screen11.o(.text).
    Adding TT veneer (10 bytes, Long) for call to 'PROGBAR_SetText' from screen11.o(.text).
    Adding TT veneer (10 bytes, Long) for call to 'PROGBAR_SetBarColor' from screen11.o(.text).
    Adding TT veneer (10 bytes, Long) for call to 'PROGBAR_SetTextColor' from screen11.o(.text).
    Adding TT veneer (10 bytes, Long) for call to 'PROGBAR_SetValue' from screen11.o(.text).
    Adding TT veneer (10 bytes, Long) for call to 'custom_sprintf' from modbus_tcp_common.o(.text).
    Adding TT veneer (10 bytes, Long) for call to 'custom_sscanf' from modbus_tcp_common.o(.text).

50 Veneer(s) (total 500 bytes) added to the image.

==============================================================================

Image Symbol Table

    Local Symbols

    Symbol Name                              Value     Ov Type        Size  Object(Section)

    ../clib/angel/boardlib.s                 0x00000000   Number         0  boardshut.o ABSOLUTE
    ../clib/angel/boardlib.s                 0x00000000   Number         0  boardinit2.o ABSOLUTE
    ../clib/angel/boardlib.s                 0x00000000   Number         0  boardinit1.o ABSOLUTE
    ../clib/angel/boardlib.s                 0x00000000   Number         0  boardinit3.o ABSOLUTE
    ../clib/angel/dczerorl2.s                0x00000000   Number         0  __dczerorl2.o ABSOLUTE
    ../clib/angel/handlers.s                 0x00000000   Number         0  __scatter_zi.o ABSOLUTE
    ../clib/angel/kernel.s                   0x00000000   Number         0  rtentry4.o ABSOLUTE
    ../clib/angel/kernel.s                   0x00000000   Number         0  rtexit2.o ABSOLUTE
    ../clib/angel/kernel.s                   0x00000000   Number         0  rtexit.o ABSOLUTE
    ../clib/angel/kernel.s                   0x00000000   Number         0  rtentry2.o ABSOLUTE
    ../clib/angel/kernel.s                   0x00000000   Number         0  rtentry.o ABSOLUTE
    ../clib/angel/rt.s                       0x00000000   Number         0  aeabi_ldiv0.o ABSOLUTE
    ../clib/angel/rt.s                       0x00000000   Number         0  rt_locale_intlibspace.o ABSOLUTE
    ../clib/angel/rt.s                       0x00000000   Number         0  rt_heap_descriptor.o ABSOLUTE
    ../clib/angel/rt.s                       0x00000000   Number         0  rt_heap_descriptor_intlibspace.o ABSOLUTE
    ../clib/angel/rt.s                       0x00000000   Number         0  rt_locale_twolibspace.o ABSOLUTE
    ../clib/angel/rt.s                       0x00000000   Number         0  rt_errno_addr.o ABSOLUTE
    ../clib/angel/rt.s                       0x00000000   Number         0  aeabi_ldiv0_sigfpe.o ABSOLUTE
    ../clib/angel/rt.s                       0x00000000   Number         0  rt_errno_addr_intlibspace.o ABSOLUTE
    ../clib/angel/rt.s                       0x00000000   Number         0  rt_errno_addr_twolibspace.o ABSOLUTE
    ../clib/angel/rt.s                       0x00000000   Number         0  rt_raise.o ABSOLUTE
    ../clib/angel/rt.s                       0x00000000   Number         0  rt_locale.o ABSOLUTE
    ../clib/angel/rt.s                       0x00000000   Number         0  rt_ctype_table.o ABSOLUTE
    ../clib/angel/rt.s                       0x00000000   Number         0  rt_div0.o ABSOLUTE
    ../clib/angel/rt.s                       0x00000000   Number         0  rt_heap_descriptor_twolibspace.o ABSOLUTE
    ../clib/angel/scatter.s                  0x00000000   Number         0  __scatter.o ABSOLUTE
    ../clib/angel/startup.s                  0x00000000   Number         0  __main.o ABSOLUTE
    ../clib/angel/sys.s                      0x00000000   Number         0  sys_stackheap_outer.o ABSOLUTE
    ../clib/angel/sys.s                      0x00000000   Number         0  use_no_semi.o ABSOLUTE
    ../clib/angel/sys.s                      0x00000000   Number         0  libspace.o ABSOLUTE
    ../clib/armsys.c                         0x00000000   Number         0  _get_argv_nomalloc.o ABSOLUTE
    ../clib/armsys.c                         0x00000000   Number         0  argv_veneer.o ABSOLUTE
    ../clib/armsys.c                         0x00000000   Number         0  no_argv.o ABSOLUTE
    ../clib/armsys.c                         0x00000000   Number         0  argv_veneer.o ABSOLUTE
    ../clib/armsys.c                         0x00000000   Number         0  _get_argv.o ABSOLUTE
    ../clib/assert.c                         0x00000000   Number         0  assert_stdio.o ABSOLUTE
    ../clib/bigflt.c                         0x00000000   Number         0  bigflt0.o ABSOLUTE
    ../clib/btod.s                           0x00000000   Number         0  btod.o ABSOLUTE
    ../clib/ctype.c                          0x00000000   Number         0  toupper.o ABSOLUTE
    ../clib/ctype.c                          0x00000000   Number         0  isspace.o ABSOLUTE
    ../clib/ctype.c                          0x00000000   Number         0  tolower.o ABSOLUTE
    ../clib/fenv.c                           0x00000000   Number         0  _rserrno.o ABSOLUTE
    ../clib/heap1.c                          0x00000000   Number         0  h1_free_mt.o ABSOLUTE
    ../clib/heap1.c                          0x00000000   Number         0  h1_extend_mt.o ABSOLUTE
    ../clib/heap1.c                          0x00000000   Number         0  h1_alloc.o ABSOLUTE
    ../clib/heap1.c                          0x00000000   Number         0  h1_extend.o ABSOLUTE
    ../clib/heap1.c                          0x00000000   Number         0  h1_final_mt.o ABSOLUTE
    ../clib/heap1.c                          0x00000000   Number         0  h1_final.o ABSOLUTE
    ../clib/heap1.c                          0x00000000   Number         0  h1_init.o ABSOLUTE
    ../clib/heap1.c                          0x00000000   Number         0  h1_init_mt.o ABSOLUTE
    ../clib/heap1.c                          0x00000000   Number         0  h1_free.o ABSOLUTE
    ../clib/heap1.c                          0x00000000   Number         0  h1_alloc_mt.o ABSOLUTE
    ../clib/heap2.c                          0x00000000   Number         0  fdtree.o ABSOLUTE
    ../clib/heap2.c                          0x00000000   Number         0  heap2mt.o ABSOLUTE
    ../clib/heap2.c                          0x00000000   Number         0  heap2.o ABSOLUTE
    ../clib/heapalloc.c                      0x00000000   Number         0  maybetermalloc2.o ABSOLUTE
    ../clib/heapalloc.c                      0x00000000   Number         0  free.o ABSOLUTE
    ../clib/heapalloc.c                      0x00000000   Number         0  maybetermalloc2.o ABSOLUTE
    ../clib/heapalloc.c                      0x00000000   Number         0  malloc.o ABSOLUTE
    ../clib/heapalloc.c                      0x00000000   Number         0  heapstubs.o ABSOLUTE
    ../clib/heapalloc.c                      0x00000000   Number         0  term_alloc.o ABSOLUTE
    ../clib/heapalloc.c                      0x00000000   Number         0  init_alloc.o ABSOLUTE
    ../clib/heapalloc.c                      0x00000000   Number         0  hguard.o ABSOLUTE
    ../clib/heapalloc.c                      0x00000000   Number         0  maybetermalloc1.o ABSOLUTE
    ../clib/heapalloc.c                      0x00000000   Number         0  maybetermalloc1.o ABSOLUTE
    ../clib/heapalloc.c                      0x00000000   Number         0  hrguard.o ABSOLUTE
    ../clib/heapaux.c                        0x00000000   Number         0  heapauxi.o ABSOLUTE
    ../clib/heapaux.c                        0x00000000   Number         0  heapauxa.o ABSOLUTE
    ../clib/libinit.s                        0x00000000   Number         0  libshutdown.o ABSOLUTE
    ../clib/libinit.s                        0x00000000   Number         0  libinit.o ABSOLUTE
    ../clib/libinit.s                        0x00000000   Number         0  libshutdown2.o ABSOLUTE
    ../clib/libinit.s                        0x00000000   Number         0  libinit2.o ABSOLUTE
    ../clib/locale.c                         0x00000000   Number         0  _wcrtomb.o ABSOLUTE
    ../clib/locale.s                         0x00000000   Number         0  lc_ctype_c.o ABSOLUTE
    ../clib/locale.s                         0x00000000   Number         0  lc_numeric_c.o ABSOLUTE
    ../clib/longlong.s                       0x00000000   Number         0  lludiv10.o ABSOLUTE
    ../clib/longlong.s                       0x00000000   Number         0  llshl.o ABSOLUTE
    ../clib/longlong.s                       0x00000000   Number         0  lludivv7m.o ABSOLUTE
    ../clib/memcpset.s                       0x00000000   Number         0  rt_memclr_w.o ABSOLUTE
    ../clib/memcpset.s                       0x00000000   Number         0  rt_memmove_v6.o ABSOLUTE
    ../clib/memcpset.s                       0x00000000   Number         0  strcmpv7m.o ABSOLUTE
    ../clib/memcpset.s                       0x00000000   Number         0  aeabi_memset.o ABSOLUTE
    ../clib/memcpset.s                       0x00000000   Number         0  rt_memclr.o ABSOLUTE
    ../clib/memcpset.s                       0x00000000   Number         0  rt_memcpy_v6.o ABSOLUTE
    ../clib/memcpset.s                       0x00000000   Number         0  rt_memmove_w.o ABSOLUTE
    ../clib/memcpset.s                       0x00000000   Number         0  strncpy.o ABSOLUTE
    ../clib/memcpset.s                       0x00000000   Number         0  rt_memcpy_w.o ABSOLUTE
    ../clib/misc.s                           0x00000000   Number         0  printf_stubs.o ABSOLUTE
    ../clib/printf.c                         0x00000000   Number         0  noretval__2printf.o ABSOLUTE
    ../clib/printf.c                         0x00000000   Number         0  noretval__2fprintf.o ABSOLUTE
    ../clib/printf.c                         0x00000000   Number         0  noretval__2sprintf.o ABSOLUTE
    ../clib/printf.c                         0x00000000   Number         0  __printf.o ABSOLUTE
    ../clib/printf.c                         0x00000000   Number         0  _printf_pad.o ABSOLUTE
    ../clib/printf.c                         0x00000000   Number         0  _printf_str.o ABSOLUTE
    ../clib/printf.c                         0x00000000   Number         0  _printf_dec.o ABSOLUTE
    ../clib/printf.c                         0x00000000   Number         0  _printf_hex_ll.o ABSOLUTE
    ../clib/printf.c                         0x00000000   Number         0  _printf_hex_int.o ABSOLUTE
    ../clib/printf.c                         0x00000000   Number         0  _printf_hex_int_ll.o ABSOLUTE
    ../clib/printf.c                         0x00000000   Number         0  _printf_hex_ptr.o ABSOLUTE
    ../clib/printf.c                         0x00000000   Number         0  _printf_hex_int_ptr.o ABSOLUTE
    ../clib/printf.c                         0x00000000   Number         0  _printf_hex_ll_ptr.o ABSOLUTE
    ../clib/printf.c                         0x00000000   Number         0  _printf_hex_int_ll_ptr.o ABSOLUTE
    ../clib/printf.c                         0x00000000   Number         0  _printf_char_file.o ABSOLUTE
    ../clib/printf.c                         0x00000000   Number         0  __printf_flags.o ABSOLUTE
    ../clib/printf.c                         0x00000000   Number         0  __printf_ss.o ABSOLUTE
    ../clib/printf.c                         0x00000000   Number         0  __printf_flags_ss.o ABSOLUTE
    ../clib/printf.c                         0x00000000   Number         0  __printf_wp.o ABSOLUTE
    ../clib/printf.c                         0x00000000   Number         0  __printf_flags_wp.o ABSOLUTE
    ../clib/printf.c                         0x00000000   Number         0  __printf_ss_wp.o ABSOLUTE
    ../clib/printf.c                         0x00000000   Number         0  __printf_flags_ss_wp.o ABSOLUTE
    ../clib/printf.c                         0x00000000   Number         0  _printf_char.o ABSOLUTE
    ../clib/printf.c                         0x00000000   Number         0  _sputc.o ABSOLUTE
    ../clib/printf.c                         0x00000000   Number         0  _printf_char_common.o ABSOLUTE
    ../clib/printf.c                         0x00000000   Number         0  _printf_charcount.o ABSOLUTE
    ../clib/printf.c                         0x00000000   Number         0  _printf_wchar.o ABSOLUTE
    ../clib/printf.c                         0x00000000   Number         0  __printf_nopercent.o ABSOLUTE
    ../clib/printf.c                         0x00000000   Number         0  _printf_wctomb.o ABSOLUTE
    ../clib/printf.c                         0x00000000   Number         0  _printf_fp_infnan.o ABSOLUTE
    ../clib/printf.c                         0x00000000   Number         0  __2sprintf.o ABSOLUTE
    ../clib/printf.c                         0x00000000   Number         0  _printf_fp_dec.o ABSOLUTE
    ../clib/printf.c                         0x00000000   Number         0  _printf_intcommon.o ABSOLUTE
    ../clib/printf.c                         0x00000000   Number         0  _printf_truncate.o ABSOLUTE
    ../clib/printf.c                         0x00000000   Number         0  _printf_char_file_locked.o ABSOLUTE
    ../clib/printf.c                         0x00000000   Number         0  _printf_longlong_dec.o ABSOLUTE
    ../clib/printf.c                         0x00000000   Number         0  _printf_oct_ll.o ABSOLUTE
    ../clib/printf.c                         0x00000000   Number         0  _printf_oct_int.o ABSOLUTE
    ../clib/printf.c                         0x00000000   Number         0  _printf_oct_int_ll.o ABSOLUTE
    ../clib/printf.c                         0x00000000   Number         0  c89sprintf.o ABSOLUTE
    ../clib/printf.c                         0x00000000   Number         0  __2printf.o ABSOLUTE
    ../clib/printf.c                         0x00000000   Number         0  __2fprintf.o ABSOLUTE
    ../clib/printf_percent.s                 0x00000000   Number         0  _printf_i.o ABSOLUTE
    ../clib/printf_percent.s                 0x00000000   Number         0  _printf_p.o ABSOLUTE
    ../clib/printf_percent.s                 0x00000000   Number         0  _printf_o.o ABSOLUTE
    ../clib/printf_percent.s                 0x00000000   Number         0  _printf_ll.o ABSOLUTE
    ../clib/printf_percent.s                 0x00000000   Number         0  _printf_l.o ABSOLUTE
    ../clib/printf_percent.s                 0x00000000   Number         0  _printf_lld.o ABSOLUTE
    ../clib/printf_percent.s                 0x00000000   Number         0  _printf_lc.o ABSOLUTE
    ../clib/printf_percent.s                 0x00000000   Number         0  _printf_c.o ABSOLUTE
    ../clib/printf_percent.s                 0x00000000   Number         0  _printf_ls.o ABSOLUTE
    ../clib/printf_percent.s                 0x00000000   Number         0  _printf_llo.o ABSOLUTE
    ../clib/printf_percent.s                 0x00000000   Number         0  _printf_llx.o ABSOLUTE
    ../clib/printf_percent.s                 0x00000000   Number         0  _printf_llu.o ABSOLUTE
    ../clib/printf_percent.s                 0x00000000   Number         0  _printf_s.o ABSOLUTE
    ../clib/printf_percent.s                 0x00000000   Number         0  _printf_x.o ABSOLUTE
    ../clib/printf_percent.s                 0x00000000   Number         0  _printf_u.o ABSOLUTE
    ../clib/printf_percent.s                 0x00000000   Number         0  _printf_a.o ABSOLUTE
    ../clib/printf_percent.s                 0x00000000   Number         0  _printf_g.o ABSOLUTE
    ../clib/printf_percent.s                 0x00000000   Number         0  _printf_f.o ABSOLUTE
    ../clib/printf_percent.s                 0x00000000   Number         0  _printf_percent_end.o ABSOLUTE
    ../clib/printf_percent.s                 0x00000000   Number         0  _printf_percent.o ABSOLUTE
    ../clib/printf_percent.s                 0x00000000   Number         0  _printf_e.o ABSOLUTE
    ../clib/printf_percent.s                 0x00000000   Number         0  _printf_n.o ABSOLUTE
    ../clib/printf_percent.s                 0x00000000   Number         0  _printf_lli.o ABSOLUTE
    ../clib/printf_percent.s                 0x00000000   Number         0  _printf_d.o ABSOLUTE
    ../clib/scanf.c                          0x00000000   Number         0  _sgetc.o ABSOLUTE
    ../clib/scanf.c                          0x00000000   Number         0  scanf_infnan.o ABSOLUTE
    ../clib/scanf.c                          0x00000000   Number         0  scanf_hexfp.o ABSOLUTE
    ../clib/scanf.c                          0x00000000   Number         0  _chval.o ABSOLUTE
    ../clib/scanf.c                          0x00000000   Number         0  __0sscanf.o ABSOLUTE
    ../clib/scanf.c                          0x00000000   Number         0  _scanf_int.o ABSOLUTE
    ../clib/scanf.c                          0x00000000   Number         0  atoi.o ABSOLUTE
    ../clib/scanf.c                          0x00000000   Number         0  __strtoll.o ABSOLUTE
    ../clib/scanf.c                          0x00000000   Number         0  _strtoull.o ABSOLUTE
    ../clib/scanf.c                          0x00000000   Number         0  _strtoul.o ABSOLUTE
    ../clib/scanf.c                          0x00000000   Number         0  scanf_char_file_locked.o ABSOLUTE
    ../clib/scanf.c                          0x00000000   Number         0  _scanf.o ABSOLUTE
    ../clib/scanf.c                          0x00000000   Number         0  strtol.o ABSOLUTE
    ../clib/scanf.c                          0x00000000   Number         0  scanf_fp.o ABSOLUTE
    ../clib/scanf.c                          0x00000000   Number         0  strtod.o ABSOLUTE
    ../clib/scanf.c                          0x00000000   Number         0  scanf_char.o ABSOLUTE
    ../clib/scanf.c                          0x00000000   Number         0  scanf_char_file.o ABSOLUTE
    ../clib/scanf.c                          0x00000000   Number         0  __0fscanf.o ABSOLUTE
    ../clib/scanf.c                          0x00000000   Number         0  strtoll.o ABSOLUTE
    ../clib/signal.c                         0x00000000   Number         0  defsig_segv_inner.o ABSOLUTE
    ../clib/signal.c                         0x00000000   Number         0  defsig_other.o ABSOLUTE
    ../clib/signal.c                         0x00000000   Number         0  defsig_rtmem_outer.o ABSOLUTE
    ../clib/signal.c                         0x00000000   Number         0  defsig_rtred_formal.o ABSOLUTE
    ../clib/signal.c                         0x00000000   Number         0  defsig_rtred_outer.o ABSOLUTE
    ../clib/signal.c                         0x00000000   Number         0  defsig_fpe_outer.o ABSOLUTE
    ../clib/signal.c                         0x00000000   Number         0  defsig_exit.o ABSOLUTE
    ../clib/signal.c                         0x00000000   Number         0  defsig_rtmem_formal.o ABSOLUTE
    ../clib/signal.c                         0x00000000   Number         0  defsig_rtred_inner.o ABSOLUTE
    ../clib/signal.c                         0x00000000   Number         0  defsig_pvfn_inner.o ABSOLUTE
    ../clib/signal.c                         0x00000000   Number         0  defsig_fpe_formal.o ABSOLUTE
    ../clib/signal.c                         0x00000000   Number         0  defsig_rtmem_inner.o ABSOLUTE
    ../clib/signal.c                         0x00000000   Number         0  defsig_cppl_inner.o ABSOLUTE
    ../clib/signal.c                         0x00000000   Number         0  __raise.o ABSOLUTE
    ../clib/signal.c                         0x00000000   Number         0  defsig_general.o ABSOLUTE
    ../clib/signal.c                         0x00000000   Number         0  defsig_fpe_inner.o ABSOLUTE
    ../clib/signal.c                         0x00000000   Number         0  defsig_abrt_inner.o ABSOLUTE
    ../clib/signal.c                         0x00000000   Number         0  defsig_stak_inner.o ABSOLUTE
    ../clib/signal.s                         0x00000000   Number         0  defsig.o ABSOLUTE
    ../clib/stdio.c                          0x00000000   Number         0  fclose_locked.o ABSOLUTE
    ../clib/stdio.c                          0x00000000   Number         0  flushlinebuffered.o ABSOLUTE
    ../clib/stdio.c                          0x00000000   Number         0  fread_bytes_avail.o ABSOLUTE
    ../clib/stdio.c                          0x00000000   Number         0  freadfast.o ABSOLUTE
    ../clib/stdio.c                          0x00000000   Number         0  setvbuf.o ABSOLUTE
    ../clib/stdio.c                          0x00000000   Number         0  flsbuf.o ABSOLUTE
    ../clib/stdio.c                          0x00000000   Number         0  backspace.o ABSOLUTE
    ../clib/stdio.c                          0x00000000   Number         0  ftell_locked.o ABSOLUTE
    ../clib/stdio.c                          0x00000000   Number         0  fgetc_locked.o ABSOLUTE
    ../clib/stdio.c                          0x00000000   Number         0  fclose.o ABSOLUTE
    ../clib/stdio.c                          0x00000000   Number         0  stdio_streams.o ABSOLUTE
    ../clib/stdio.c                          0x00000000   Number         0  fopen.o ABSOLUTE
    ../clib/stdio.c                          0x00000000   Number         0  fflush_locked.o ABSOLUTE
    ../clib/stdio.c                          0x00000000   Number         0  fopen_locked.o ABSOLUTE
    ../clib/stdio.c                          0x00000000   Number         0  feof.o ABSOLUTE
    ../clib/stdio.c                          0x00000000   Number         0  fputc.o ABSOLUTE
    ../clib/stdio.c                          0x00000000   Number         0  clearerr.o ABSOLUTE
    ../clib/stdio.c                          0x00000000   Number         0  filbuf.o ABSOLUTE
    ../clib/stdio.c                          0x00000000   Number         0  stdio.o ABSOLUTE
    ../clib/stdio.c                          0x00000000   Number         0  initio.o ABSOLUTE
    ../clib/stdio.c                          0x00000000   Number         0  fputc_locked.o ABSOLUTE
    ../clib/stdio.c                          0x00000000   Number         0  clearerr_locked.o ABSOLUTE
    ../clib/stdio.c                          0x00000000   Number         0  initio_locked.o ABSOLUTE
    ../clib/stdio.c                          0x00000000   Number         0  ferror.o ABSOLUTE
    ../clib/stdio.c                          0x00000000   Number         0  fflush.o ABSOLUTE
    ../clib/stdio.c                          0x00000000   Number         0  fgetc.o ABSOLUTE
    ../clib/stdio.c                          0x00000000   Number         0  ungetc.o ABSOLUTE
    ../clib/stdio.c                          0x00000000   Number         0  fwritefast.o ABSOLUTE
    ../clib/stdio.c                          0x00000000   Number         0  fputs_locked.o ABSOLUTE
    ../clib/stdio.c                          0x00000000   Number         0  fwritefast_locked.o ABSOLUTE
    ../clib/stdio.c                          0x00000000   Number         0  ferror_locked.o ABSOLUTE
    ../clib/stdio.c                          0x00000000   Number         0  flushlinebuffered_locked.o ABSOLUTE
    ../clib/stdio.c                          0x00000000   Number         0  fgets.o ABSOLUTE
    ../clib/stdio.c                          0x00000000   Number         0  fputs.o ABSOLUTE
    ../clib/stdio.c                          0x00000000   Number         0  fread.o ABSOLUTE
    ../clib/stdio.c                          0x00000000   Number         0  fseek.o ABSOLUTE
    ../clib/stdio.c                          0x00000000   Number         0  ftell.o ABSOLUTE
    ../clib/stdio.c                          0x00000000   Number         0  fwrite.o ABSOLUTE
    ../clib/stdio.c                          0x00000000   Number         0  rewind.o ABSOLUTE
    ../clib/stdio.c                          0x00000000   Number         0  fread_bytes_avail_locked.o ABSOLUTE
    ../clib/stdio.c                          0x00000000   Number         0  streamlock.o ABSOLUTE
    ../clib/stdio.c                          0x00000000   Number         0  freadfast_locked.o ABSOLUTE
    ../clib/stdio.c                          0x00000000   Number         0  setvbuf_locked.o ABSOLUTE
    ../clib/stdio.c                          0x00000000   Number         0  feof_locked.o ABSOLUTE
    ../clib/stdio.c                          0x00000000   Number         0  backspace_locked.o ABSOLUTE
    ../clib/stdio.c                          0x00000000   Number         0  fseek_locked.o ABSOLUTE
    ../clib/stdio.c                          0x00000000   Number         0  fgets_locked.o ABSOLUTE
    ../clib/stdlib.c                         0x00000000   Number         0  qsortnoex.o ABSOLUTE
    ../clib/stdlib.c                         0x00000000   Number         0  exit.o ABSOLUTE
    ../clib/string.c                         0x00000000   Number         0  strncmp.o ABSOLUTE
    ../clib/string.c                         0x00000000   Number         0  strcat.o ABSOLUTE
    ../clib/string.c                         0x00000000   Number         0  strcspn.o ABSOLUTE
    ../clib/string.c                         0x00000000   Number         0  strspn.o ABSOLUTE
    ../clib/string.c                         0x00000000   Number         0  strrchr.o ABSOLUTE
    ../clib/string.c                         0x00000000   Number         0  strlen.o ABSOLUTE
    ../clib/string.c                         0x00000000   Number         0  strtok_int.o ABSOLUTE
    ../clib/string.c                         0x00000000   Number         0  strcasecmp.o ABSOLUTE
    ../clib/string.c                         0x00000000   Number         0  strcpy.o ABSOLUTE
    ../clib/string.c                         0x00000000   Number         0  strchr.o ABSOLUTE
    ../clib/string.c                         0x00000000   Number         0  strtok.o ABSOLUTE
    ../clib/wchar.c                          0x00000000   Number         0  flsbuf_fwide.o ABSOLUTE
    ../clib/wchar.c                          0x00000000   Number         0  filbuf_fwide.o ABSOLUTE
    ../fplib/d2f.s                           0x00000000   Number         0  d2f.o ABSOLUTE
    ../fplib/daddsub.s                       0x00000000   Number         0  daddsub_clz.o ABSOLUTE
    ../fplib/dcheck1.s                       0x00000000   Number         0  dcheck1.o ABSOLUTE
    ../fplib/dcmpi.s                         0x00000000   Number         0  dcmpi.o ABSOLUTE
    ../fplib/ddiv.s                          0x00000000   Number         0  ddiv.o ABSOLUTE
    ../fplib/deqf.s                          0x00000000   Number         0  deqf.o ABSOLUTE
    ../fplib/dfix.s                          0x00000000   Number         0  dfix.o ABSOLUTE
    ../fplib/dfixu.s                         0x00000000   Number         0  dfixu.o ABSOLUTE
    ../fplib/dflt.s                          0x00000000   Number         0  dflt_clz.o ABSOLUTE
    ../fplib/dleqf.s                         0x00000000   Number         0  dleqf.o ABSOLUTE
    ../fplib/dmul.s                          0x00000000   Number         0  dmul.o ABSOLUTE
    ../fplib/dnaninf.s                       0x00000000   Number         0  dnaninf.o ABSOLUTE
    ../fplib/dretinf.s                       0x00000000   Number         0  dretinf.o ABSOLUTE
    ../fplib/drleqf.s                        0x00000000   Number         0  drleqf.o ABSOLUTE
    ../fplib/dsqrt.s                         0x00000000   Number         0  dsqrt_noumaal.o ABSOLUTE
    ../fplib/f2d.s                           0x00000000   Number         0  f2d.o ABSOLUTE
    ../fplib/faddsub.s                       0x00000000   Number         0  faddsub_clz.o ABSOLUTE
    ../fplib/fcmpi.s                         0x00000000   Number         0  fcmpi.o ABSOLUTE
    ../fplib/fdiv.s                          0x00000000   Number         0  fdiv.o ABSOLUTE
    ../fplib/feqf.s                          0x00000000   Number         0  feqf.o ABSOLUTE
    ../fplib/ffix.s                          0x00000000   Number         0  ffix.o ABSOLUTE
    ../fplib/ffixu.s                         0x00000000   Number         0  ffixu.o ABSOLUTE
    ../fplib/fflt.s                          0x00000000   Number         0  fflt_clz.o ABSOLUTE
    ../fplib/fleqf.s                         0x00000000   Number         0  fleqf.o ABSOLUTE
    ../fplib/fmul.s                          0x00000000   Number         0  fmul.o ABSOLUTE
    ../fplib/fnaninf.s                       0x00000000   Number         0  fnaninf.o ABSOLUTE
    ../fplib/fpconst.s                       0x00000000   Number         0  fpconst.o ABSOLUTE
    ../fplib/fpinit.s                        0x00000000   Number         0  fpinit.o ABSOLUTE
    ../fplib/fretinf.s                       0x00000000   Number         0  fretinf.o ABSOLUTE
    ../fplib/frleqf.s                        0x00000000   Number         0  frleqf.o ABSOLUTE
    ../fplib/istatus.s                       0x00000000   Number         0  istatus.o ABSOLUTE
    ../fplib/printf1.s                       0x00000000   Number         0  printf1.o ABSOLUTE
    ../fplib/retnan.s                        0x00000000   Number         0  retnan.o ABSOLUTE
    ../fplib/scalbn.s                        0x00000000   Number         0  scalbn.o ABSOLUTE
    ../fplib/scanf1.s                        0x00000000   Number         0  scanf1.o ABSOLUTE
    ../fplib/scanf2.s                        0x00000000   Number         0  scanf2.o ABSOLUTE
    ../fplib/scanf2a.s                       0x00000000   Number         0  scanf2a.o ABSOLUTE
    ../fplib/scanf2b.s                       0x00000000   Number         0  scanf2b.o ABSOLUTE
    ../fplib/trapv.s                         0x00000000   Number         0  trapv.o ABSOLUTE
    ../fplib/usenofp.s                       0x00000000   Number         0  usenofp.o ABSOLUTE
    ../mathlib/asin.c                        0x00000000   Number         0  asin.o ABSOLUTE
    ../mathlib/asin.c                        0x00000000   Number         0  asin_x.o ABSOLUTE
    ../mathlib/atof.c                        0x00000000   Number         0  atof.o ABSOLUTE
    ../mathlib/cos.c                         0x00000000   Number         0  cos_x.o ABSOLUTE
    ../mathlib/cos.c                         0x00000000   Number         0  cos.o ABSOLUTE
    ../mathlib/cos_i.c                       0x00000000   Number         0  cos_i.o ABSOLUTE
    ../mathlib/dunder.c                      0x00000000   Number         0  dunder.o ABSOLUTE
    ../mathlib/fpclassify.c                  0x00000000   Number         0  fpclassify.o ABSOLUTE
    ../mathlib/frexp.c                       0x00000000   Number         0  frexp.o ABSOLUTE
    ../mathlib/ldexp.c                       0x00000000   Number         0  ldexp.o ABSOLUTE
    ../mathlib/ldexp.c                       0x00000000   Number         0  ldexp_x.o ABSOLUTE
    ../mathlib/narrow.c                      0x00000000   Number         0  narrow.o ABSOLUTE
    ../mathlib/poly.c                        0x00000000   Number         0  poly.o ABSOLUTE
    ../mathlib/qnan.c                        0x00000000   Number         0  qnan.o ABSOLUTE
    ../mathlib/rred.c                        0x00000000   Number         0  rred.o ABSOLUTE
    ../mathlib/sin_i.c                       0x00000000   Number         0  sin_i_x.o ABSOLUTE
    ../mathlib/sin_i.c                       0x00000000   Number         0  sin_i.o ABSOLUTE
    ../mathlib/sqrt.c                        0x00000000   Number         0  sqrt.o ABSOLUTE
    ../mathlib/sqrt.c                        0x00000000   Number         0  sqrt_x.o ABSOLUTE
    Calculations\Calibration.c               0x00000000   Number         0  calibration.o ABSOLUTE
    Calculations\Conversion_functions.c      0x00000000   Number         0  conversion_functions.o ABSOLUTE
    Calculations\Log_report_data_calculate.c 0x00000000   Number         0  log_report_data_calculate.o ABSOLUTE
    Calculations\Rate_blending_load_ctrl_calc.c 0x00000000   Number         0  rate_blending_load_ctrl_calc.o ABSOLUTE
    Calculations\Sensor_board_data_process.c 0x00000000   Number         0  sensor_board_data_process.o ABSOLUTE
    Calculations\\Calibration.c              0x00000000   Number         0  calibration.o ABSOLUTE
    Calculations\\Conversion_functions.c     0x00000000   Number         0  conversion_functions.o ABSOLUTE
    Calculations\\Log_report_data_calculate.c 0x00000000   Number         0  log_report_data_calculate.o ABSOLUTE
    Calculations\\Rate_blending_load_ctrl_calc.c 0x00000000   Number         0  rate_blending_load_ctrl_calc.o ABSOLUTE
    Calculations\\Sensor_board_data_process.c 0x00000000   Number         0  sensor_board_data_process.o ABSOLUTE
    Common\Global_ex.c                       0x00000000   Number         0  global_ex.o ABSOLUTE
    Common\Main.c                            0x00000000   Number         0  main.o ABSOLUTE
    Common\Retarget.c                        0x00000000   Number         0  retarget.o ABSOLUTE
    Common\\Global_ex.c                      0x00000000   Number         0  global_ex.o ABSOLUTE
    Common\\Main.c                           0x00000000   Number         0  main.o ABSOLUTE
    Common\\Retarget.c                       0x00000000   Number         0  retarget.o ABSOLUTE
    Common\\lpc177x_8x_bod.c                 0x00000000   Number         0  lpc177x_8x_bod.o ABSOLUTE
    Common\\lpc177x_8x_clkpwr.c              0x00000000   Number         0  lpc177x_8x_clkpwr.o ABSOLUTE
    Common\\lpc177x_8x_eeprom.c              0x00000000   Number         0  lpc177x_8x_eeprom.o ABSOLUTE
    Common\\lpc177x_8x_i2c.c                 0x00000000   Number         0  lpc177x_8x_i2c.o ABSOLUTE
    Common\\lpc177x_8x_iap.c                 0x00000000   Number         0  lpc177x_8x_iap.o ABSOLUTE
    Common\\lpc177x_8x_pinsel.c              0x00000000   Number         0  lpc177x_8x_pinsel.o ABSOLUTE
    Common\\lpc177x_8x_ssp.c                 0x00000000   Number         0  lpc177x_8x_ssp.o ABSOLUTE
    Common\\lpc177x_8x_timer.c               0x00000000   Number         0  lpc177x_8x_timer.o ABSOLUTE
    Common\\lpc177x_8x_uart.c                0x00000000   Number         0  lpc177x_8x_uart.o ABSOLUTE
    Common\\rtc.c                            0x00000000   Number         0  rtc.o ABSOLUTE
    Common\\soft_stack.c                     0x00000000   Number         0  soft_stack.o ABSOLUTE
    Common\\system_LPC177x_8x.c              0x00000000   Number         0  system_lpc177x_8x.o ABSOLUTE
    Common\lpc177x_8x_bod.c                  0x00000000   Number         0  lpc177x_8x_bod.o ABSOLUTE
    Common\lpc177x_8x_clkpwr.c               0x00000000   Number         0  lpc177x_8x_clkpwr.o ABSOLUTE
    Common\lpc177x_8x_eeprom.c               0x00000000   Number         0  lpc177x_8x_eeprom.o ABSOLUTE
    Common\lpc177x_8x_i2c.c                  0x00000000   Number         0  lpc177x_8x_i2c.o ABSOLUTE
    Common\lpc177x_8x_iap.c                  0x00000000   Number         0  lpc177x_8x_iap.o ABSOLUTE
    Common\lpc177x_8x_pinsel.c               0x00000000   Number         0  lpc177x_8x_pinsel.o ABSOLUTE
    Common\lpc177x_8x_ssp.c                  0x00000000   Number         0  lpc177x_8x_ssp.o ABSOLUTE
    Common\lpc177x_8x_timer.c                0x00000000   Number         0  lpc177x_8x_timer.o ABSOLUTE
    Common\lpc177x_8x_uart.c                 0x00000000   Number         0  lpc177x_8x_uart.o ABSOLUTE
    Common\rtc.c                             0x00000000   Number         0  rtc.o ABSOLUTE
    Common\soft_fifo.c                       0x00000000   Number         0  soft_fifo.o ABSOLUTE
    Common\soft_stack.c                      0x00000000   Number         0  soft_stack.o ABSOLUTE
    Common\startup_LPC177x_8x.s              0x00000000   Number         0  startup_lpc177x_8x.o ABSOLUTE
    Common\system_LPC177x_8x.c               0x00000000   Number         0  system_lpc177x_8x.o ABSOLUTE
    Debug\I2C_driver.c                       0x00000000   Number         0  i2c_driver.o ABSOLUTE
    Debug\\I2C_driver.c                      0x00000000   Number         0  i2c_driver.o ABSOLUTE
    EEPROM\EEPROM_high_level.c               0x00000000   Number         0  eeprom_high_level.o ABSOLUTE
    EEPROM\\EEPROM_high_level.c              0x00000000   Number         0  eeprom_high_level.o ABSOLUTE
    Ethernet\EMAC_LPC177x_8x.c               0x00000000   Number         0  emac_lpc177x_8x.o ABSOLUTE
    Ethernet\FTP_uif.c                       0x00000000   Number         0  ftp_uif.o ABSOLUTE
    Ethernet\Net_Config.c                    0x00000000   Number         0  net_config.o ABSOLUTE
    Ethernet\Telnet_uif.c                    0x00000000   Number         0  telnet_uif.o ABSOLUTE
    Ethernet\\EMAC_LPC177x_8x.c              0x00000000   Number         0  emac_lpc177x_8x.o ABSOLUTE
    Ethernet\\Telnet_uif.c                   0x00000000   Number         0  telnet_uif.o ABSOLUTE
    Expansion_Slot\Expansion_slot_low_level.c 0x00000000   Number         0  expansion_slot_low_level.o ABSOLUTE
    External_Memory\Emc_config.c             0x00000000   Number         0  emc_config.o ABSOLUTE
    External_Memory\Ext_flash_high_level.c   0x00000000   Number         0  ext_flash_high_level.o ABSOLUTE
    External_Memory\Ext_flash_low_level.c    0x00000000   Number         0  ext_flash_low_level.o ABSOLUTE
    External_Memory\RW_FLASH.c               0x00000000   Number         0  rw_flash.o ABSOLUTE
    External_Memory\\Emc_config.c            0x00000000   Number         0  emc_config.o ABSOLUTE
    External_Memory\\Ext_flash_high_level.c  0x00000000   Number         0  ext_flash_high_level.o ABSOLUTE
    External_Memory\\Ext_flash_low_level.c   0x00000000   Number         0  ext_flash_low_level.o ABSOLUTE
    External_Memory\\RW_FLASH.c              0x00000000   Number         0  rw_flash.o ABSOLUTE
    FS\File_Config.c                         0x00000000   Number         0  file_config.o ABSOLUTE
    FS\File_update.c                         0x00000000   Number         0  file_update.o ABSOLUTE
    FS\Plant_connect.c                       0x00000000   Number         0  plant_connect.o ABSOLUTE
    FS\\File_update.c                        0x00000000   Number         0  file_update.o ABSOLUTE
    FS\\Plant_connect.c                      0x00000000   Number         0  plant_connect.o ABSOLUTE
    FS\\fs_time.c                            0x00000000   Number         0  fs_time.o ABSOLUTE
    FS\fs_time.c                             0x00000000   Number         0  fs_time.o ABSOLUTE
    GUI\Application\Arial_Unicode_MS16_Bold.c 0x00000000   Number         0  arial_unicode_ms16_bold.o ABSOLUTE
    GUI\Application\Arial_Unicode_MS24_Bold.c 0x00000000   Number         0  arial_unicode_ms24_bold.o ABSOLUTE
    GUI\Application\Arial_Unicode_MS72_Bold.c 0x00000000   Number         0  arial_unicode_ms72_bold.o ABSOLUTE
    GUI\Application\Blending_rate_load_ctrl_run_mode_screen.c 0x00000000   Number         0  blending_rate_load_ctrl_run_mode_screen.o ABSOLUTE
    GUI\Application\Firmware_upgrade.c       0x00000000   Number         0  firmware_upgrade.o ABSOLUTE
    GUI\Application\Load_out_run_mode_screen.c 0x00000000   Number         0  load_out_run_mode_screen.o ABSOLUTE
    GUI\Application\Screen1.c                0x00000000   Number         0  screen1.o ABSOLUTE
    GUI\Application\Screen10.c               0x00000000   Number         0  screen10.o ABSOLUTE
    GUI\Application\Screen11.c               0x00000000   Number         0  screen11.o ABSOLUTE
    GUI\Application\Screen2.c                0x00000000   Number         0  screen2.o ABSOLUTE
    GUI\Application\Screen3.c                0x00000000   Number         0  screen3.o ABSOLUTE
    GUI\Application\Screen4.c                0x00000000   Number         0  screen4.o ABSOLUTE
    GUI\Application\Screen5.c                0x00000000   Number         0  screen5.o ABSOLUTE
    GUI\Application\Screen6.c                0x00000000   Number         0  screen6.o ABSOLUTE
    GUI\Application\Screen9.c                0x00000000   Number         0  screen9.o ABSOLUTE
    GUI\Application\Screen_common_func.c     0x00000000   Number         0  screen_common_func.o ABSOLUTE
    GUI\Application\Weight_rate_run_mode_screen.c 0x00000000   Number         0  weight_rate_run_mode_screen.o ABSOLUTE
    GUI\ConvertColor\GUICC_565.c             0x00000000   Number         0  guicc_565.o ABSOLUTE
    GUI\Core\GUICC_0.c                       0x00000000   Number         0  guicc_0.o ABSOLUTE
    GUI\Core\GUICC_555_Index2Color.c         0x00000000   Number         0  guicc_555_index2color.o ABSOLUTE
    GUI\Core\GUICC_565_Index2Color.c         0x00000000   Number         0  guicc_565_index2color.o ABSOLUTE
    GUI\Core\GUICC_8888.c                    0x00000000   Number         0  guicc_8888.o ABSOLUTE
    GUI\Core\GUICC_8888_Index2Color.c        0x00000000   Number         0  guicc_8888_index2color.o ABSOLUTE
    GUI\Core\GUICC_888_Index2Color.c         0x00000000   Number         0  guicc_888_index2color.o ABSOLUTE
    GUI\Core\GUICC_M555_Index2Color.c        0x00000000   Number         0  guicc_m555_index2color.o ABSOLUTE
    GUI\Core\GUICC_M565_Index2Color.c        0x00000000   Number         0  guicc_m565_index2color.o ABSOLUTE
    GUI\Core\GUI_2DLib.c                     0x00000000   Number         0  gui_2dlib.o ABSOLUTE
    GUI\Core\GUI_ALLOC_AllocInit.c           0x00000000   Number         0  gui_alloc_allocinit.o ABSOLUTE
    GUI\Core\GUI_ALLOC_AllocZero.c           0x00000000   Number         0  gui_alloc_alloczero.o ABSOLUTE
    GUI\Core\GUI_AddDecMin.c                 0x00000000   Number         0  gui_adddecmin.o ABSOLUTE
    GUI\Core\GUI_AddDecShift.c               0x00000000   Number         0  gui_adddecshift.o ABSOLUTE
    GUI\Core\GUI_Alloc.c                     0x00000000   Number         0  gui_alloc.o ABSOLUTE
    GUI\Core\GUI_BMP_Serialize.c             0x00000000   Number         0  gui_bmp_serialize.o ABSOLUTE
    GUI\Core\GUI_CalcColorDist.c             0x00000000   Number         0  gui_calccolordist.o ABSOLUTE
    GUI\Core\GUI_Char.c                      0x00000000   Number         0  gui_char.o ABSOLUTE
    GUI\Core\GUI_CharLine.c                  0x00000000   Number         0  gui_charline.o ABSOLUTE
    GUI\Core\GUI_CharM.c                     0x00000000   Number         0  gui_charm.o ABSOLUTE
    GUI\Core\GUI_CharP.c                     0x00000000   Number         0  gui_charp.o ABSOLUTE
    GUI\Core\GUI_CharPExt.c                  0x00000000   Number         0  gui_charpext.o ABSOLUTE
    GUI\Core\GUI_Circ.c                      0x00000000   Number         0  gui_circ.o ABSOLUTE
    GUI\Core\GUI_ClearRectEx.c               0x00000000   Number         0  gui_clearrectex.o ABSOLUTE
    GUI\Core\GUI_Core.c                      0x00000000   Number         0  gui_core.o ABSOLUTE
    GUI\Core\GUI_Curs1.c                     0x00000000   Number         0  gui_curs1.o ABSOLUTE
    GUI\Core\GUI_CursorArrowM.c              0x00000000   Number         0  gui_cursorarrowm.o ABSOLUTE
    GUI\Core\GUI_CursorArrowMPx.c            0x00000000   Number         0  gui_cursorarrowmpx.o ABSOLUTE
    GUI\Core\GUI_CursorPal.c                 0x00000000   Number         0  gui_cursorpal.o ABSOLUTE
    GUI\Core\GUI_Device.c                    0x00000000   Number         0  gui_device.o ABSOLUTE
    GUI\Core\GUI_DispCEOL.c                  0x00000000   Number         0  gui_dispceol.o ABSOLUTE
    GUI\Core\GUI_DispChar.c                  0x00000000   Number         0  gui_dispchar.o ABSOLUTE
    GUI\Core\GUI_DispChars.c                 0x00000000   Number         0  gui_dispchars.o ABSOLUTE
    GUI\Core\GUI_DispString.c                0x00000000   Number         0  gui_dispstring.o ABSOLUTE
    GUI\Core\GUI_DispStringAt.c              0x00000000   Number         0  gui_dispstringat.o ABSOLUTE
    GUI\Core\GUI_DispStringAtCEOL.c          0x00000000   Number         0  gui_dispstringatceol.o ABSOLUTE
    GUI\Core\GUI_DispStringInRect.c          0x00000000   Number         0  gui_dispstringinrect.o ABSOLUTE
    GUI\Core\GUI_DispStringInRectWrap.c      0x00000000   Number         0  gui_dispstringinrectwrap.o ABSOLUTE
    GUI\Core\GUI_DrawBitmap.c                0x00000000   Number         0  gui_drawbitmap.o ABSOLUTE
    GUI\Core\GUI_DrawBitmap_24.c             0x00000000   Number         0  gui_drawbitmap_24.o ABSOLUTE
    GUI\Core\GUI_DrawBitmap_555.c            0x00000000   Number         0  gui_drawbitmap_555.o ABSOLUTE
    GUI\Core\GUI_DrawBitmap_565.c            0x00000000   Number         0  gui_drawbitmap_565.o ABSOLUTE
    GUI\Core\GUI_DrawBitmap_8888.c           0x00000000   Number         0  gui_drawbitmap_8888.o ABSOLUTE
    GUI\Core\GUI_DrawFocusRect.c             0x00000000   Number         0  gui_drawfocusrect.o ABSOLUTE
    GUI\Core\GUI_DrawHLine.c                 0x00000000   Number         0  gui_drawhline.o ABSOLUTE
    GUI\Core\GUI_DrawLine.c                  0x00000000   Number         0  gui_drawline.o ABSOLUTE
    GUI\Core\GUI_DrawPoint.c                 0x00000000   Number         0  gui_drawpoint.o ABSOLUTE
    GUI\Core\GUI_DrawVLine.c                 0x00000000   Number         0  gui_drawvline.o ABSOLUTE
    GUI\Core\GUI_EncExt.c                    0x00000000   Number         0  gui_encext.o ABSOLUTE
    GUI\Core\GUI_Error.c                     0x00000000   Number         0  gui_error.o ABSOLUTE
    GUI\Core\GUI_Exec.c                      0x00000000   Number         0  gui_exec.o ABSOLUTE
    GUI\Core\GUI_FillPolygon.c               0x00000000   Number         0  gui_fillpolygon.o ABSOLUTE
    GUI\Core\GUI_FillRect.c                  0x00000000   Number         0  gui_fillrect.o ABSOLUTE
    GUI\Core\GUI_FillRectEx.c                0x00000000   Number         0  gui_fillrectex.o ABSOLUTE
    GUI\Core\GUI_GetBitmapPixelIndex.c       0x00000000   Number         0  gui_getbitmappixelindex.o ABSOLUTE
    GUI\Core\GUI_GetClientRect.c             0x00000000   Number         0  gui_getclientrect.o ABSOLUTE
    GUI\Core\GUI_GetColor.c                  0x00000000   Number         0  gui_getcolor.o ABSOLUTE
    GUI\Core\GUI_GetFontSizeY.c              0x00000000   Number         0  gui_getfontsizey.o ABSOLUTE
    GUI\Core\GUI_GetOrg.c                    0x00000000   Number         0  gui_getorg.o ABSOLUTE
    GUI\Core\GUI_GetStringDistX.c            0x00000000   Number         0  gui_getstringdistx.o ABSOLUTE
    GUI\Core\GUI_GetYSizeOfFont.c            0x00000000   Number         0  gui_getysizeoffont.o ABSOLUTE
    GUI\Core\GUI_Goto.c                      0x00000000   Number         0  gui_goto.o ABSOLUTE
    GUI\Core\GUI_Index2Color.c               0x00000000   Number         0  gui_index2color.o ABSOLUTE
    GUI\Core\GUI_InvertRect.c                0x00000000   Number         0  gui_invertrect.o ABSOLUTE
    GUI\Core\GUI_MULTIBUF.c                  0x00000000   Number         0  gui_multibuf.o ABSOLUTE
    GUI\Core\GUI_MergeRect.c                 0x00000000   Number         0  gui_mergerect.o ABSOLUTE
    GUI\Core\GUI_MoveRect.c                  0x00000000   Number         0  gui_moverect.o ABSOLUTE
    GUI\Core\GUI_OnKey.c                     0x00000000   Number         0  gui_onkey.o ABSOLUTE
    GUI\Core\GUI_PID.c                       0x00000000   Number         0  gui_pid.o ABSOLUTE
    GUI\Core\GUI_Pen.c                       0x00000000   Number         0  gui_pen.o ABSOLUTE
    GUI\Core\GUI_Realloc.c                   0x00000000   Number         0  gui_realloc.o ABSOLUTE
    GUI\Core\GUI_RectsIntersect.c            0x00000000   Number         0  gui_rectsintersect.o ABSOLUTE
    GUI\Core\GUI_SPRITE.c                    0x00000000   Number         0  gui_sprite.o ABSOLUTE
    GUI\Core\GUI_SaveContext.c               0x00000000   Number         0  gui_savecontext.o ABSOLUTE
    GUI\Core\GUI_SelectLCD.c                 0x00000000   Number         0  gui_selectlcd.o ABSOLUTE
    GUI\Core\GUI_SelectLayer.c               0x00000000   Number         0  gui_selectlayer.o ABSOLUTE
    GUI\Core\GUI_SetAlpha.c                  0x00000000   Number         0  gui_setalpha.o ABSOLUTE
    GUI\Core\GUI_SetClipRect.c               0x00000000   Number         0  gui_setcliprect.o ABSOLUTE
    GUI\Core\GUI_SetColor.c                  0x00000000   Number         0  gui_setcolor.o ABSOLUTE
    GUI\Core\GUI_SetColorIndex.c             0x00000000   Number         0  gui_setcolorindex.o ABSOLUTE
    GUI\Core\GUI_SetDefault.c                0x00000000   Number         0  gui_setdefault.o ABSOLUTE
    GUI\Core\GUI_SetDrawMode.c               0x00000000   Number         0  gui_setdrawmode.o ABSOLUTE
    GUI\Core\GUI_SetFont.c                   0x00000000   Number         0  gui_setfont.o ABSOLUTE
    GUI\Core\GUI_SetLineStyle.c              0x00000000   Number         0  gui_setlinestyle.o ABSOLUTE
    GUI\Core\GUI_SetOrg.c                    0x00000000   Number         0  gui_setorg.o ABSOLUTE
    GUI\Core\GUI_SetPixelIndex.c             0x00000000   Number         0  gui_setpixelindex.o ABSOLUTE
    GUI\Core\GUI_SetTextAlign.c              0x00000000   Number         0  gui_settextalign.o ABSOLUTE
    GUI\Core\GUI_SetTextMode.c               0x00000000   Number         0  gui_settextmode.o ABSOLUTE
    GUI\Core\GUI_Stream.c                    0x00000000   Number         0  gui_stream.o ABSOLUTE
    GUI\Core\GUI_StreamCreate.c              0x00000000   Number         0  gui_streamcreate.o ABSOLUTE
    GUI\Core\GUI_Task.c                      0x00000000   Number         0  gui_task.o ABSOLUTE
    GUI\Core\GUI_Time.c                      0x00000000   Number         0  gui_time.o ABSOLUTE
    GUI\Core\GUI_Timer.c                     0x00000000   Number         0  gui_timer.o ABSOLUTE
    GUI\Core\GUI_UC.c                        0x00000000   Number         0  gui_uc.o ABSOLUTE
    GUI\Core\GUI_UC_EncodeNone.c             0x00000000   Number         0  gui_uc_encodenone.o ABSOLUTE
    GUI\Core\GUI_UC_EncodeUTF8.c             0x00000000   Number         0  gui_uc_encodeutf8.o ABSOLUTE
    GUI\Core\GUI_WaitEvent.c                 0x00000000   Number         0  gui_waitevent.o ABSOLUTE
    GUI\Core\GUI__Alpha.c                    0x00000000   Number         0  gui__alpha.o ABSOLUTE
    GUI\Core\GUI__BiDiRouting.c              0x00000000   Number         0  gui__bidirouting.o ABSOLUTE
    GUI\Core\GUI__CalcTextRect.c             0x00000000   Number         0  gui__calctextrect.o ABSOLUTE
    GUI\Core\GUI__CompactPixelIndices.c      0x00000000   Number         0  gui__compactpixelindices.o ABSOLUTE
    GUI\Core\GUI__DivTbl_255_31.c            0x00000000   Number         0  gui__divtbl_255_31.o ABSOLUTE
    GUI\Core\GUI__DivTbl_255_63.c            0x00000000   Number         0  gui__divtbl_255_63.o ABSOLUTE
    GUI\Core\GUI__DivTbl_31_255.c            0x00000000   Number         0  gui__divtbl_31_255.o ABSOLUTE
    GUI\Core\GUI__DivTbl_63_255.c            0x00000000   Number         0  gui__divtbl_63_255.o ABSOLUTE
    GUI\Core\GUI__DivideRound32.c            0x00000000   Number         0  gui__divideround32.o ABSOLUTE
    GUI\Core\GUI__DrawBitmap16bpp.c          0x00000000   Number         0  gui__drawbitmap16bpp.o ABSOLUTE
    GUI\Core\GUI__ExpandPixelIndices.c       0x00000000   Number         0  gui__expandpixelindices.o ABSOLUTE
    GUI\Core\GUI__GetCursorPos.c             0x00000000   Number         0  gui__getcursorpos.o ABSOLUTE
    GUI\Core\GUI__GetFontSizeY.c             0x00000000   Number         0  gui__getfontsizey.o ABSOLUTE
    GUI\Core\GUI__GetNumChars.c              0x00000000   Number         0  gui__getnumchars.o ABSOLUTE
    GUI\Core\GUI__HandleEOLine.c             0x00000000   Number         0  gui__handleeoline.o ABSOLUTE
    GUI\Core\GUI__IntersectRect.c            0x00000000   Number         0  gui__intersectrect.o ABSOLUTE
    GUI\Core\GUI__IntersectRects.c           0x00000000   Number         0  gui__intersectrects.o ABSOLUTE
    GUI\Core\GUI__ManageCache.c              0x00000000   Number         0  gui__managecache.o ABSOLUTE
    GUI\Core\GUI__Read.c                     0x00000000   Number         0  gui__read.o ABSOLUTE
    GUI\Core\GUI__ReduceRect.c               0x00000000   Number         0  gui__reducerect.o ABSOLUTE
    GUI\Core\GUI__SetPixelAlpha.c            0x00000000   Number         0  gui__setpixelalpha.o ABSOLUTE
    GUI\Core\GUI__SetText.c                  0x00000000   Number         0  gui__settext.o ABSOLUTE
    GUI\Core\GUI__Wrap.c                     0x00000000   Number         0  gui__wrap.o ABSOLUTE
    GUI\Core\GUI__memset.c                   0x00000000   Number         0  gui__memset.o ABSOLUTE
    GUI\Core\GUI__memset16.c                 0x00000000   Number         0  gui__memset16.o ABSOLUTE
    GUI\Core\GUI__sqrt32.c                   0x00000000   Number         0  gui__sqrt32.o ABSOLUTE
    GUI\Core\GUI__strcmp.c                   0x00000000   Number         0  gui__strcmp.o ABSOLUTE
    GUI\Core\GUI__strlen.c                   0x00000000   Number         0  gui__strlen.o ABSOLUTE
    GUI\Core\LCD.c                           0x00000000   Number         0  lcd.o ABSOLUTE
    GUI\Core\LCD_AA.c                        0x00000000   Number         0  lcd_aa.o ABSOLUTE
    GUI\Core\LCD_Color.c                     0x00000000   Number         0  lcd_color.o ABSOLUTE
    GUI\Core\LCD_GetColorIndex.c             0x00000000   Number         0  lcd_getcolorindex.o ABSOLUTE
    GUI\Core\LCD_GetEx.c                     0x00000000   Number         0  lcd_getex.o ABSOLUTE
    GUI\Core\LCD_GetNumDisplays.c            0x00000000   Number         0  lcd_getnumdisplays.o ABSOLUTE
    GUI\Core\LCD_GetP.c                      0x00000000   Number         0  lcd_getp.o ABSOLUTE
    GUI\Core\LCD_GetPixelColor.c             0x00000000   Number         0  lcd_getpixelcolor.o ABSOLUTE
    GUI\Core\LCD_Mirror.c                    0x00000000   Number         0  lcd_mirror.o ABSOLUTE
    GUI\Core\LCD_NextPixelAPI.c              0x00000000   Number         0  lcd_nextpixelapi.o ABSOLUTE
    GUI\Core\LCD_RLE16.c                     0x00000000   Number         0  lcd_rle16.o ABSOLUTE
    GUI\Core\LCD_RLE32.c                     0x00000000   Number         0  lcd_rle32.o ABSOLUTE
    GUI\Core\LCD_RLE4.c                      0x00000000   Number         0  lcd_rle4.o ABSOLUTE
    GUI\Core\LCD_RLE8.c                      0x00000000   Number         0  lcd_rle8.o ABSOLUTE
    GUI\Core\LCD_RLEAlpha.c                  0x00000000   Number         0  lcd_rlealpha.o ABSOLUTE
    GUI\Core\LCD_ReadRect.c                  0x00000000   Number         0  lcd_readrect.o ABSOLUTE
    GUI\Core\LCD_SelectLCD.c                 0x00000000   Number         0  lcd_selectlcd.o ABSOLUTE
    GUI\Core\LCD_Set.c                       0x00000000   Number         0  lcd_set.o ABSOLUTE
    GUI\Core\LCD_SetClipRectEx.c             0x00000000   Number         0  lcd_setcliprectex.o ABSOLUTE
    GUI\Core\LCD_UpdateColorIndices.c        0x00000000   Number         0  lcd_updatecolorindices.o ABSOLUTE
    GUI\DisplayDriver\GUIDRV_Lin_16.c        0x00000000   Number         0  guidrv_lin_16.o ABSOLUTE
    GUI\Display_task.c                       0x00000000   Number         0  display_task.o ABSOLUTE
    GUI\Font\F13_1.c                         0x00000000   Number         0  f13_1.o ABSOLUTE
    GUI\Font\F13_ASCII.c                     0x00000000   Number         0  f13_ascii.o ABSOLUTE
    GUI\Font\F6x8.c                          0x00000000   Number         0  f6x8.o ABSOLUTE
    GUI\Font\F8x16.c                         0x00000000   Number         0  f8x16.o ABSOLUTE
    GUI\GUIConf.c                            0x00000000   Number         0  guiconf.o ABSOLUTE
    GUI\GUI_X_RTX.c                          0x00000000   Number         0  gui_x_rtx.o ABSOLUTE
    GUI\LCDConf.c                            0x00000000   Number         0  lcdconf.o ABSOLUTE
    GUI\MemDev\GUIDEV.c                      0x00000000   Number         0  guidev.o ABSOLUTE
    GUI\MemDev\GUIDEV_16.c                   0x00000000   Number         0  guidev_16.o ABSOLUTE
    GUI\MemDev\GUIDEV_32.c                   0x00000000   Number         0  guidev_32.o ABSOLUTE
    GUI\MemDev\GUIDEV_Banding.c              0x00000000   Number         0  guidev_banding.o ABSOLUTE
    GUI\MemDev\GUIDEV_Clear.c                0x00000000   Number         0  guidev_clear.o ABSOLUTE
    GUI\MemDev\GUIDEV_CreateFixed.c          0x00000000   Number         0  guidev_createfixed.o ABSOLUTE
    GUI\MemDev\GUIDEV_GetDataPtr.c           0x00000000   Number         0  guidev_getdataptr.o ABSOLUTE
    GUI\MemDev\GUIDEV_GetPos.c               0x00000000   Number         0  guidev_getpos.o ABSOLUTE
    GUI\MemDev\GUIDEV_GetXSize.c             0x00000000   Number         0  guidev_getxsize.o ABSOLUTE
    GUI\MemDev\GUIDEV_GetYSize.c             0x00000000   Number         0  guidev_getysize.o ABSOLUTE
    GUI\MemDev\GUIDEV_ReduceYSize.c          0x00000000   Number         0  guidev_reduceysize.o ABSOLUTE
    GUI\MemDev\GUIDEV_SetOrg.c               0x00000000   Number         0  guidev_setorg.o ABSOLUTE
    GUI\MemDev\GUIDEV_StaticDevices.c        0x00000000   Number         0  guidev_staticdevices.o ABSOLUTE
    GUI\MemDev\GUIDEV_Usage.c                0x00000000   Number         0  guidev_usage.o ABSOLUTE
    GUI\MemDev\GUIDEV_UsageBM.c              0x00000000   Number         0  guidev_usagebm.o ABSOLUTE
    GUI\MemDev\GUIDEV_Write.c                0x00000000   Number         0  guidev_write.o ABSOLUTE
    GUI\MemDev\GUIDEV_WriteToActiveAlpha.c   0x00000000   Number         0  guidev_writetoactivealpha.o ABSOLUTE
    GUI\MemDev\GUIDEV_WriteToActiveOpaque.c  0x00000000   Number         0  guidev_writetoactiveopaque.o ABSOLUTE
    GUI\WM\WM.c                              0x00000000   Number         0  wm.o ABSOLUTE
    GUI\WM\WM_BringToBottom.c                0x00000000   Number         0  wm_bringtobottom.o ABSOLUTE
    GUI\WM\WM_BringToTop.c                   0x00000000   Number         0  wm_bringtotop.o ABSOLUTE
    GUI\WM\WM_CheckScrollPos.c               0x00000000   Number         0  wm_checkscrollpos.o ABSOLUTE
    GUI\WM\WM_CriticalHandle.c               0x00000000   Number         0  wm_criticalhandle.o ABSOLUTE
    GUI\WM\WM_EnableWindow.c                 0x00000000   Number         0  wm_enablewindow.o ABSOLUTE
    GUI\WM\WM_ForEachDesc.c                  0x00000000   Number         0  wm_foreachdesc.o ABSOLUTE
    GUI\WM\WM_GetBkColor.c                   0x00000000   Number         0  wm_getbkcolor.o ABSOLUTE
    GUI\WM\WM_GetClientRect.c                0x00000000   Number         0  wm_getclientrect.o ABSOLUTE
    GUI\WM\WM_GetClientWindow.c              0x00000000   Number         0  wm_getclientwindow.o ABSOLUTE
    GUI\WM\WM_GetDesktopWindow.c             0x00000000   Number         0  wm_getdesktopwindow.o ABSOLUTE
    GUI\WM\WM_GetDialogItem.c                0x00000000   Number         0  wm_getdialogitem.o ABSOLUTE
    GUI\WM\WM_GetFirstChild.c                0x00000000   Number         0  wm_getfirstchild.o ABSOLUTE
    GUI\WM\WM_GetFlags.c                     0x00000000   Number         0  wm_getflags.o ABSOLUTE
    GUI\WM\WM_GetFocussedWindow.c            0x00000000   Number         0  wm_getfocussedwindow.o ABSOLUTE
    GUI\WM\WM_GetId.c                        0x00000000   Number         0  wm_getid.o ABSOLUTE
    GUI\WM\WM_GetInsideRect.c                0x00000000   Number         0  wm_getinsiderect.o ABSOLUTE
    GUI\WM\WM_GetInsideRectExScrollbar.c     0x00000000   Number         0  wm_getinsiderectexscrollbar.o ABSOLUTE
    GUI\WM\WM_GetParent.c                    0x00000000   Number         0  wm_getparent.o ABSOLUTE
    GUI\WM\WM_GetScrollPartner.c             0x00000000   Number         0  wm_getscrollpartner.o ABSOLUTE
    GUI\WM\WM_GetScrollState.c               0x00000000   Number         0  wm_getscrollstate.o ABSOLUTE
    GUI\WM\WM_GetScrollbar.c                 0x00000000   Number         0  wm_getscrollbar.o ABSOLUTE
    GUI\WM\WM_GetWindowRect.c                0x00000000   Number         0  wm_getwindowrect.o ABSOLUTE
    GUI\WM\WM_GetWindowSize.c                0x00000000   Number         0  wm_getwindowsize.o ABSOLUTE
    GUI\WM\WM_HasFocus.c                     0x00000000   Number         0  wm_hasfocus.o ABSOLUTE
    GUI\WM\WM_Hide.c                         0x00000000   Number         0  wm_hide.o ABSOLUTE
    GUI\WM\WM_IsFocussable.c                 0x00000000   Number         0  wm_isfocussable.o ABSOLUTE
    GUI\WM\WM_IsWindow.c                     0x00000000   Number         0  wm_iswindow.o ABSOLUTE
    GUI\WM\WM_MULTIBUF.c                     0x00000000   Number         0  wm_multibuf.o ABSOLUTE
    GUI\WM\WM_MemDev.c                       0x00000000   Number         0  wm_memdev.o ABSOLUTE
    GUI\WM\WM_Move.c                         0x00000000   Number         0  wm_move.o ABSOLUTE
    GUI\WM\WM_NotifyParent.c                 0x00000000   Number         0  wm_notifyparent.o ABSOLUTE
    GUI\WM\WM_OnKey.c                        0x00000000   Number         0  wm_onkey.o ABSOLUTE
    GUI\WM\WM_PID__GetPrevState.c            0x00000000   Number         0  wm_pid__getprevstate.o ABSOLUTE
    GUI\WM\WM_Paint.c                        0x00000000   Number         0  wm_paint.o ABSOLUTE
    GUI\WM\WM_ResizeWindow.c                 0x00000000   Number         0  wm_resizewindow.o ABSOLUTE
    GUI\WM\WM_Screen2Win.c                   0x00000000   Number         0  wm_screen2win.o ABSOLUTE
    GUI\WM\WM_SendMessageNoPara.c            0x00000000   Number         0  wm_sendmessagenopara.o ABSOLUTE
    GUI\WM\WM_SendToParent.c                 0x00000000   Number         0  wm_sendtoparent.o ABSOLUTE
    GUI\WM\WM_SetCallback.c                  0x00000000   Number         0  wm_setcallback.o ABSOLUTE
    GUI\WM\WM_SetCapture.c                   0x00000000   Number         0  wm_setcapture.o ABSOLUTE
    GUI\WM\WM_SetCreateFlags.c               0x00000000   Number         0  wm_setcreateflags.o ABSOLUTE
    GUI\WM\WM_SetFocus.c                     0x00000000   Number         0  wm_setfocus.o ABSOLUTE
    GUI\WM\WM_SetFocusOnNextChild.c          0x00000000   Number         0  wm_setfocusonnextchild.o ABSOLUTE
    GUI\WM\WM_SetFocusOnPrevChild.c          0x00000000   Number         0  wm_setfocusonprevchild.o ABSOLUTE
    GUI\WM\WM_SetScrollState.c               0x00000000   Number         0  wm_setscrollstate.o ABSOLUTE
    GUI\WM\WM_SetScrollbar.c                 0x00000000   Number         0  wm_setscrollbar.o ABSOLUTE
    GUI\WM\WM_SetSize.c                      0x00000000   Number         0  wm_setsize.o ABSOLUTE
    GUI\WM\WM_SetTrans.c                     0x00000000   Number         0  wm_settrans.o ABSOLUTE
    GUI\WM\WM_SetUserClipRect.c              0x00000000   Number         0  wm_setusercliprect.o ABSOLUTE
    GUI\WM\WM_SetXSize.c                     0x00000000   Number         0  wm_setxsize.o ABSOLUTE
    GUI\WM\WM_SetYSize.c                     0x00000000   Number         0  wm_setysize.o ABSOLUTE
    GUI\WM\WM_Show.c                         0x00000000   Number         0  wm_show.o ABSOLUTE
    GUI\WM\WM_Timer.c                        0x00000000   Number         0  wm_timer.o ABSOLUTE
    GUI\WM\WM_Touch.c                        0x00000000   Number         0  wm_touch.o ABSOLUTE
    GUI\WM\WM_UserData.c                     0x00000000   Number         0  wm_userdata.o ABSOLUTE
    GUI\WM\WM_ValidateWindow.c               0x00000000   Number         0  wm_validatewindow.o ABSOLUTE
    GUI\WM\WM__ForEachDesc.c                 0x00000000   Number         0  wm__foreachdesc.o ABSOLUTE
    GUI\WM\WM__GetFirstSibling.c             0x00000000   Number         0  wm__getfirstsibling.o ABSOLUTE
    GUI\WM\WM__GetFocussedChild.c            0x00000000   Number         0  wm__getfocussedchild.o ABSOLUTE
    GUI\WM\WM__GetLastSibling.c              0x00000000   Number         0  wm__getlastsibling.o ABSOLUTE
    GUI\WM\WM__GetPrevSibling.c              0x00000000   Number         0  wm__getprevsibling.o ABSOLUTE
    GUI\WM\WM__IsAncestor.c                  0x00000000   Number         0  wm__isancestor.o ABSOLUTE
    GUI\WM\WM__IsChild.c                     0x00000000   Number         0  wm__ischild.o ABSOLUTE
    GUI\WM\WM__IsEnabled.c                   0x00000000   Number         0  wm__isenabled.o ABSOLUTE
    GUI\WM\WM__Screen2Client.c               0x00000000   Number         0  wm__screen2client.o ABSOLUTE
    GUI\WM\WM__SendMessage.c                 0x00000000   Number         0  wm__sendmessage.o ABSOLUTE
    GUI\WM\WM__SendMessageIfEnabled.c        0x00000000   Number         0  wm__sendmessageifenabled.o ABSOLUTE
    GUI\WM\WM__SendMessageNoPara.c           0x00000000   Number         0  wm__sendmessagenopara.o ABSOLUTE
    GUI\WM\WM__UpdateChildPositions.c        0x00000000   Number         0  wm__updatechildpositions.o ABSOLUTE
    GUI\Widget\BUTTON.c                      0x00000000   Number         0  button.o ABSOLUTE
    GUI\Widget\BUTTON_Bitmap.c               0x00000000   Number         0  button_bitmap.o ABSOLUTE
    GUI\Widget\BUTTON_Color.c                0x00000000   Number         0  button_color.o ABSOLUTE
    GUI\Widget\BUTTON_CreateIndirect.c       0x00000000   Number         0  button_createindirect.o ABSOLUTE
    GUI\Widget\BUTTON_Get.c                  0x00000000   Number         0  button_get.o ABSOLUTE
    GUI\Widget\BUTTON_SetFocusColor.c        0x00000000   Number         0  button_setfocuscolor.o ABSOLUTE
    GUI\Widget\BUTTON_SkinClassic.c          0x00000000   Number         0  button_skinclassic.o ABSOLUTE
    GUI\Widget\BUTTON__SetBitmapObj.c        0x00000000   Number         0  button__setbitmapobj.o ABSOLUTE
    GUI\Widget\DIALOG.c                      0x00000000   Number         0  dialog.o ABSOLUTE
    GUI\Widget\EDIT.c                        0x00000000   Number         0  edit.o ABSOLUTE
    GUI\Widget\EDIT_CreateIndirect.c         0x00000000   Number         0  edit_createindirect.o ABSOLUTE
    GUI\Widget\EDIT_EnableBlink.c            0x00000000   Number         0  edit_enableblink.o ABSOLUTE
    GUI\Widget\EDIT_GetCursorPos.c           0x00000000   Number         0  edit_getcursorpos.o ABSOLUTE
    GUI\Widget\EDIT_SetCursorAtChar.c        0x00000000   Number         0  edit_setcursoratchar.o ABSOLUTE
    GUI\Widget\EDIT_SetFocussable.c          0x00000000   Number         0  edit_setfocussable.o ABSOLUTE
    GUI\Widget\EDIT_SetInsertMode.c          0x00000000   Number         0  edit_setinsertmode.o ABSOLUTE
    GUI\Widget\GUI_ARRAY.c                   0x00000000   Number         0  gui_array.o ABSOLUTE
    GUI\Widget\GUI_ARRAY_DeleteItem.c        0x00000000   Number         0  gui_array_deleteitem.o ABSOLUTE
    GUI\Widget\GUI_ARRAY_InsertItem.c        0x00000000   Number         0  gui_array_insertitem.o ABSOLUTE
    GUI\Widget\GUI_DRAW.c                    0x00000000   Number         0  gui_draw.o ABSOLUTE
    GUI\Widget\GUI_DRAW_BITMAP.c             0x00000000   Number         0  gui_draw_bitmap.o ABSOLUTE
    GUI\Widget\ICONVIEW.c                    0x00000000   Number         0  iconview.o ABSOLUTE
    GUI\Widget\IMAGE.c                       0x00000000   Number         0  image.o ABSOLUTE
    GUI\Widget\IMAGE_Bitmap.c                0x00000000   Number         0  image_bitmap.o ABSOLUTE
    GUI\Widget\LISTBOX.c                     0x00000000   Number         0  listbox.o ABSOLUTE
    GUI\Widget\LISTBOX_Font.c                0x00000000   Number         0  listbox_font.o ABSOLUTE
    GUI\Widget\LISTBOX_GetItemText.c         0x00000000   Number         0  listbox_getitemtext.o ABSOLUTE
    GUI\Widget\LISTBOX_GetNumItems.c         0x00000000   Number         0  listbox_getnumitems.o ABSOLUTE
    GUI\Widget\LISTBOX_ItemSpacing.c         0x00000000   Number         0  listbox_itemspacing.o ABSOLUTE
    GUI\Widget\LISTBOX_SetAutoScroll.c       0x00000000   Number         0  listbox_setautoscroll.o ABSOLUTE
    GUI\Widget\LISTBOX_SetBkColor.c          0x00000000   Number         0  listbox_setbkcolor.o ABSOLUTE
    GUI\Widget\LISTBOX_SetOwnerDraw.c        0x00000000   Number         0  listbox_setownerdraw.o ABSOLUTE
    GUI\Widget\LISTBOX_SetScrollbarColor.c   0x00000000   Number         0  listbox_setscrollbarcolor.o ABSOLUTE
    GUI\Widget\LISTBOX_SetScrollbarWidth.c   0x00000000   Number         0  listbox_setscrollbarwidth.o ABSOLUTE
    GUI\Widget\LISTBOX_SetTextColor.c        0x00000000   Number         0  listbox_settextcolor.o ABSOLUTE
    GUI\Widget\MULTIEDIT.c                   0x00000000   Number         0  multiedit.o ABSOLUTE
    GUI\Widget\PROGBAR.c                     0x00000000   Number         0  progbar.o ABSOLUTE
    GUI\Widget\PROGBAR_SetBarColor.c         0x00000000   Number         0  progbar_setbarcolor.o ABSOLUTE
    GUI\Widget\PROGBAR_SetFont.c             0x00000000   Number         0  progbar_setfont.o ABSOLUTE
    GUI\Widget\PROGBAR_SetText.c             0x00000000   Number         0  progbar_settext.o ABSOLUTE
    GUI\Widget\PROGBAR_SetTextColor.c        0x00000000   Number         0  progbar_settextcolor.o ABSOLUTE
    GUI\Widget\PROGBAR_SkinClassic.c         0x00000000   Number         0  progbar_skinclassic.o ABSOLUTE
    GUI\Widget\SCROLLBAR.c                   0x00000000   Number         0  scrollbar.o ABSOLUTE
    GUI\Widget\SCROLLBAR_Create.c            0x00000000   Number         0  scrollbar_create.o ABSOLUTE
    GUI\Widget\SCROLLBAR_Defaults.c          0x00000000   Number         0  scrollbar_defaults.o ABSOLUTE
    GUI\Widget\SCROLLBAR_SetColor.c          0x00000000   Number         0  scrollbar_setcolor.o ABSOLUTE
    GUI\Widget\SCROLLBAR_SetWidth.c          0x00000000   Number         0  scrollbar_setwidth.o ABSOLUTE
    GUI\Widget\SCROLLBAR_SkinClassic.c       0x00000000   Number         0  scrollbar_skinclassic.o ABSOLUTE
    GUI\Widget\TEXT.c                        0x00000000   Number         0  text.o ABSOLUTE
    GUI\Widget\TEXT_Default.c                0x00000000   Number         0  text_default.o ABSOLUTE
    GUI\Widget\TEXT_SetFont.c                0x00000000   Number         0  text_setfont.o ABSOLUTE
    GUI\Widget\TEXT_SetText.c                0x00000000   Number         0  text_settext.o ABSOLUTE
    GUI\Widget\TEXT_SetTextColor.c           0x00000000   Number         0  text_settextcolor.o ABSOLUTE
    GUI\Widget\WIDGET.c                      0x00000000   Number         0  widget.o ABSOLUTE
    GUI\Widget\WIDGET_Effect_3D.c            0x00000000   Number         0  widget_effect_3d.o ABSOLUTE
    GUI\Widget\WIDGET_Effect_None.c          0x00000000   Number         0  widget_effect_none.o ABSOLUTE
    GUI\Widget\WIDGET_FillStringInRect.c     0x00000000   Number         0  widget_fillstringinrect.o ABSOLUTE
    GUI\Widget\WIDGET_SetEffect.c            0x00000000   Number         0  widget_seteffect.o ABSOLUTE
    GUI\Widget\WIDGET_SetWidth.c             0x00000000   Number         0  widget_setwidth.o ABSOLUTE
    GUI\Widget\WINDOW.c                      0x00000000   Number         0  window.o ABSOLUTE
    GUI\\Application\\Blending_rate_load_ctrl_run_mode_screen.c 0x00000000   Number         0  blending_rate_load_ctrl_run_mode_screen.o ABSOLUTE
    GUI\\Application\\Firmware_upgrade.c     0x00000000   Number         0  firmware_upgrade.o ABSOLUTE
    GUI\\Application\\Load_out_run_mode_screen.c 0x00000000   Number         0  load_out_run_mode_screen.o ABSOLUTE
    GUI\\Application\\Screen1.c              0x00000000   Number         0  screen1.o ABSOLUTE
    GUI\\Application\\Screen10.c             0x00000000   Number         0  screen10.o ABSOLUTE
    GUI\\Application\\Screen11.c             0x00000000   Number         0  screen11.o ABSOLUTE
    GUI\\Application\\Screen2.c              0x00000000   Number         0  screen2.o ABSOLUTE
    GUI\\Application\\Screen3.c              0x00000000   Number         0  screen3.o ABSOLUTE
    GUI\\Application\\Screen4.c              0x00000000   Number         0  screen4.o ABSOLUTE
    GUI\\Application\\Screen5.c              0x00000000   Number         0  screen5.o ABSOLUTE
    GUI\\Application\\Screen6.c              0x00000000   Number         0  screen6.o ABSOLUTE
    GUI\\Application\\Screen9.c              0x00000000   Number         0  screen9.o ABSOLUTE
    GUI\\Application\\Screen_common_func.c   0x00000000   Number         0  screen_common_func.o ABSOLUTE
    GUI\\Application\\Weight_rate_run_mode_screen.c 0x00000000   Number         0  weight_rate_run_mode_screen.o ABSOLUTE
    GUI\\Display_task.c                      0x00000000   Number         0  display_task.o ABSOLUTE
    GUI\\LCDConf.c                           0x00000000   Number         0  lcdconf.o ABSOLUTE
    IOboard\IOProcessing.c                   0x00000000   Number         0  ioprocessing.o ABSOLUTE
    IOboard\IOboard_App.c                    0x00000000   Number         0  ioboard_app.o ABSOLUTE
    IOboard\IOboard_Drv.c                    0x00000000   Number         0  ioboard_drv.o ABSOLUTE
    IOboard\\IOProcessing.c                  0x00000000   Number         0  ioprocessing.o ABSOLUTE
    IOboard\\IOboard_App.c                   0x00000000   Number         0  ioboard_app.o ABSOLUTE
    IOboard\\IOboard_Drv.c                   0x00000000   Number         0  ioboard_drv.o ABSOLUTE
    Keypad\Keypad.c                          0x00000000   Number         0  keypad.o ABSOLUTE
    Keypad\\Keypad.c                         0x00000000   Number         0  keypad.o ABSOLUTE
    Master_Variable_Table\MVT.c              0x00000000   Number         0  mvt.o ABSOLUTE
    Master_Variable_Table\MVT_Totals.c       0x00000000   Number         0  mvt_totals.o ABSOLUTE
    Master_Variable_Table\\MVT.c             0x00000000   Number         0  mvt.o ABSOLUTE
    Master_Variable_Table\\MVT_Totals.c      0x00000000   Number         0  mvt_totals.o ABSOLUTE
    Modbus\Port\Modbus_uart_low_level.c      0x00000000   Number         0  modbus_uart_low_level.o ABSOLUTE
    Modbus\Port\Timer_MatchInterrupt.c       0x00000000   Number         0  timer_matchinterrupt.o ABSOLUTE
    Modbus\Port\mbportevent.c                0x00000000   Number         0  mbportevent.o ABSOLUTE
    Modbus\Port\mbportother.c                0x00000000   Number         0  mbportother.o ABSOLUTE
    Modbus\Port\mbportserial.c               0x00000000   Number         0  mbportserial.o ABSOLUTE
    Modbus\Port\mbporttcp.c                  0x00000000   Number         0  mbporttcp.o ABSOLUTE
    Modbus\Port\mbporttimer.c                0x00000000   Number         0  mbporttimer.o ABSOLUTE
    Modbus\\Port\\Modbus_uart_low_level.c    0x00000000   Number         0  modbus_uart_low_level.o ABSOLUTE
    Modbus\\Port\\Timer_MatchInterrupt.c     0x00000000   Number         0  timer_matchinterrupt.o ABSOLUTE
    Modbus\\Port\\mbportevent.c              0x00000000   Number         0  mbportevent.o ABSOLUTE
    Modbus\\Port\\mbportother.c              0x00000000   Number         0  mbportother.o ABSOLUTE
    Modbus\\Port\\mbportserial.c             0x00000000   Number         0  mbportserial.o ABSOLUTE
    Modbus\\Port\\mbporttcp.c                0x00000000   Number         0  mbporttcp.o ABSOLUTE
    Modbus\\Port\\mbporttimer.c              0x00000000   Number         0  mbporttimer.o ABSOLUTE
    Modbus\\application_layer\\Modbus_rtu_master.c 0x00000000   Number         0  modbus_rtu_master.o ABSOLUTE
    Modbus\\application_layer\\Modbus_rtu_slave.c 0x00000000   Number         0  modbus_rtu_slave.o ABSOLUTE
    Modbus\\application_layer\\Modbus_tcp.c  0x00000000   Number         0  modbus_tcp.o ABSOLUTE
    Modbus\\application_layer\\Modbus_tcp_common.c 0x00000000   Number         0  modbus_tcp_common.o ABSOLUTE
    Modbus\\mbslave\\mbs.c                   0x00000000   Number         0  mbs.o ABSOLUTE
    Modbus\application_layer\Modbus_rtu_master.c 0x00000000   Number         0  modbus_rtu_master.o ABSOLUTE
    Modbus\application_layer\Modbus_rtu_slave.c 0x00000000   Number         0  modbus_rtu_slave.o ABSOLUTE
    Modbus\application_layer\Modbus_tcp.c    0x00000000   Number         0  modbus_tcp.o ABSOLUTE
    Modbus\application_layer\Modbus_tcp_common.c 0x00000000   Number         0  modbus_tcp_common.o ABSOLUTE
    Modbus\common\mbutils.c                  0x00000000   Number         0  mbutils.o ABSOLUTE
    Modbus\mbmaster\functions\mbmfuncholding.c 0x00000000   Number         0  mbmfuncholding.o ABSOLUTE
    Modbus\mbmaster\functions\mbmfuncinput.c 0x00000000   Number         0  mbmfuncinput.o ABSOLUTE
    Modbus\mbmaster\mbm.c                    0x00000000   Number         0  mbm.o ABSOLUTE
    Modbus\mbmaster\rtu\mbmcrc.c             0x00000000   Number         0  mbmcrc.o ABSOLUTE
    Modbus\mbmaster\rtu\mbmrtu.c             0x00000000   Number         0  mbmrtu.o ABSOLUTE
    Modbus\mbslave\functions\mbsfunccoils.c  0x00000000   Number         0  mbsfunccoils.o ABSOLUTE
    Modbus\mbslave\functions\mbsfuncholding.c 0x00000000   Number         0  mbsfuncholding.o ABSOLUTE
    Modbus\mbslave\functions\mbsfuncinput.c  0x00000000   Number         0  mbsfuncinput.o ABSOLUTE
    Modbus\mbslave\mbs.c                     0x00000000   Number         0  mbs.o ABSOLUTE
    Modbus\mbslave\rtu\mbscrc.c              0x00000000   Number         0  mbscrc.o ABSOLUTE
    Modbus\mbslave\rtu\mbsrtu.c              0x00000000   Number         0  mbsrtu.o ABSOLUTE
    Modbus\mbslave\tcp\mbstcp.c              0x00000000   Number         0  mbstcp.o ABSOLUTE
    Printer\Printer_high_level.c             0x00000000   Number         0  printer_high_level.o ABSOLUTE
    Printer\Printer_low_level.c              0x00000000   Number         0  printer_low_level.o ABSOLUTE
    Printer\\Printer_high_level.c            0x00000000   Number         0  printer_high_level.o ABSOLUTE
    Printer\\Printer_low_level.c             0x00000000   Number         0  printer_low_level.o ABSOLUTE
    RL_ARM.s                                 0x00000000   Number         0  listbox_setbkcolor.o ABSOLUTE
    RL_ARM.s                                 0x00000000   Number         0  listbox_setownerdraw.o ABSOLUTE
    RL_ARM.s                                 0x00000000   Number         0  progbar_settext.o ABSOLUTE
    RL_ARM.s                                 0x00000000   Number         0  listbox_setscrollbarcolor.o ABSOLUTE
    RL_ARM.s                                 0x00000000   Number         0  listbox_setscrollbarwidth.o ABSOLUTE
    RL_ARM.s                                 0x00000000   Number         0  progbar_setfont.o ABSOLUTE
    RL_ARM.s                                 0x00000000   Number         0  listbox_settextcolor.o ABSOLUTE
    RL_ARM.s                                 0x00000000   Number         0  progbar_setbarcolor.o ABSOLUTE
    RL_ARM.s                                 0x00000000   Number         0  wm_getdialogitem.o ABSOLUTE
    RL_ARM.s                                 0x00000000   Number         0  progbar.o ABSOLUTE
    RL_ARM.s                                 0x00000000   Number         0  multiedit.o ABSOLUTE
    RL_ARM.s                                 0x00000000   Number         0  gui_getcolor.o ABSOLUTE
    RL_ARM.s                                 0x00000000   Number         0  gui_charline.o ABSOLUTE
    RL_ARM.s                                 0x00000000   Number         0  gui_getfontsizey.o ABSOLUTE
    RL_ARM.s                                 0x00000000   Number         0  gui_alloc_alloczero.o ABSOLUTE
    RL_ARM.s                                 0x00000000   Number         0  gui_adddecmin.o ABSOLUTE
    RL_ARM.s                                 0x00000000   Number         0  guidev_16.o ABSOLUTE
    RL_ARM.s                                 0x00000000   Number         0  iconview.o ABSOLUTE
    RL_ARM.s                                 0x00000000   Number         0  at_tcp.o ABSOLUTE
    RL_ARM.s                                 0x00000000   Number         0  gui__wrap.o ABSOLUTE
    RL_ARM.s                                 0x00000000   Number         0  gui__settext.o ABSOLUTE
    RL_ARM.s                                 0x00000000   Number         0  at_udp.o ABSOLUTE
    RL_ARM.s                                 0x00000000   Number         0  gui__memset.o ABSOLUTE
    RL_ARM.s                                 0x00000000   Number         0  gui__managecache.o ABSOLUTE
    RL_ARM.s                                 0x00000000   Number         0  at_icmp.o ABSOLUTE
    RL_ARM.s                                 0x00000000   Number         0  gui__intersectrects.o ABSOLUTE
    RL_ARM.s                                 0x00000000   Number         0  guicc_8888.o ABSOLUTE
    RL_ARM.s                                 0x00000000   Number         0  gui__intersectrect.o ABSOLUTE
    RL_ARM.s                                 0x00000000   Number         0  gui__getnumchars.o ABSOLUTE
    RL_ARM.s                                 0x00000000   Number         0  at_telnet.o ABSOLUTE
    RL_ARM.s                                 0x00000000   Number         0  gui__getcursorpos.o ABSOLUTE
    RL_ARM.s                                 0x00000000   Number         0  at_nbns.o ABSOLUTE
    RL_ARM.s                                 0x00000000   Number         0  at_dhcp.o ABSOLUTE
    RL_ARM.s                                 0x00000000   Number         0  at_ftp.o ABSOLUTE
    RL_ARM.s                                 0x00000000   Number         0  gui__divtbl_255_63.o ABSOLUTE
    RL_ARM.s                                 0x00000000   Number         0  at_ethernet.o ABSOLUTE
    RL_ARM.s                                 0x00000000   Number         0  guidev_32.o ABSOLUTE
    RL_ARM.s                                 0x00000000   Number         0  guicc_565_index2color.o ABSOLUTE
    RL_ARM.s                                 0x00000000   Number         0  edit_setinsertmode.o ABSOLUTE
    RL_ARM.s                                 0x00000000   Number         0  gui__divtbl_255_31.o ABSOLUTE
    RL_ARM.s                                 0x00000000   Number         0  edit_setfocussable.o ABSOLUTE
    RL_ARM.s                                 0x00000000   Number         0  guidev_banding.o ABSOLUTE
    RL_ARM.s                                 0x00000000   Number         0  guidev_clear.o ABSOLUTE
    RL_ARM.s                                 0x00000000   Number         0  guidev_createfixed.o ABSOLUTE
    RL_ARM.s                                 0x00000000   Number         0  gui_waitevent.o ABSOLUTE
    RL_ARM.s                                 0x00000000   Number         0  edit_setcursoratchar.o ABSOLUTE
    RL_ARM.s                                 0x00000000   Number         0  gui__divtbl_63_255.o ABSOLUTE
    RL_ARM.s                                 0x00000000   Number         0  guidev_getpos.o ABSOLUTE
    RL_ARM.s                                 0x00000000   Number         0  guidev_setorg.o ABSOLUTE
    RL_ARM.s                                 0x00000000   Number         0  gui_uc_encodenone.o ABSOLUTE
    RL_ARM.s                                 0x00000000   Number         0  edit_getcursorpos.o ABSOLUTE
    RL_ARM.s                                 0x00000000   Number         0  at_lib.o ABSOLUTE
    RL_ARM.s                                 0x00000000   Number         0  guidev_staticdevices.o ABSOLUTE
    RL_ARM.s                                 0x00000000   Number         0  edit_enableblink.o ABSOLUTE
    RL_ARM.s                                 0x00000000   Number         0  guidev_write.o ABSOLUTE
    RL_ARM.s                                 0x00000000   Number         0  button__setbitmapobj.o ABSOLUTE
    RL_ARM.s                                 0x00000000   Number         0  edit_createindirect.o ABSOLUTE
    RL_ARM.s                                 0x00000000   Number         0  gui_uc.o ABSOLUTE
    RL_ARM.s                                 0x00000000   Number         0  edit.o ABSOLUTE
    RL_ARM.s                                 0x00000000   Number         0  button_skinclassic.o ABSOLUTE
    RL_ARM.s                                 0x00000000   Number         0  gui_goto.o ABSOLUTE
    RL_ARM.s                                 0x00000000   Number         0  gui__divtbl_31_255.o ABSOLUTE
    RL_ARM.s                                 0x00000000   Number         0  at_mem.o ABSOLUTE
    RL_ARM.s                                 0x00000000   Number         0  gui_timer.o ABSOLUTE
    RL_ARM.s                                 0x00000000   Number         0  gui__calctextrect.o ABSOLUTE
    RL_ARM.s                                 0x00000000   Number         0  at_system.o ABSOLUTE
    RL_ARM.s                                 0x00000000   Number         0  gui_array.o ABSOLUTE
    RL_ARM.s                                 0x00000000   Number         0  gui_array_deleteitem.o ABSOLUTE
    RL_ARM.s                                 0x00000000   Number         0  gui_array_insertitem.o ABSOLUTE
    RL_ARM.s                                 0x00000000   Number         0  gui__bidirouting.o ABSOLUTE
    RL_ARM.s                                 0x00000000   Number         0  fs_lib.o ABSOLUTE
    RL_ARM.s                                 0x00000000   Number         0  gui_task.o ABSOLUTE
    RL_ARM.s                                 0x00000000   Number         0  gui_draw_bitmap.o ABSOLUTE
    RL_ARM.s                                 0x00000000   Number         0  fs_fat.o ABSOLUTE
    RL_ARM.s                                 0x00000000   Number         0  listbox_getnumitems.o ABSOLUTE
    RL_ARM.s                                 0x00000000   Number         0  usbh_mem.o ABSOLUTE
    RL_ARM.s                                 0x00000000   Number         0  at_arp.o ABSOLUTE
    RL_ARM.s                                 0x00000000   Number         0  dialog.o ABSOLUTE
    RL_ARM.s                                 0x00000000   Number         0  button_setfocuscolor.o ABSOLUTE
    RL_ARM.s                                 0x00000000   Number         0  progbar_skinclassic.o ABSOLUTE
    RL_ARM.s                                 0x00000000   Number         0  gui_dispstringat.o ABSOLUTE
    RL_ARM.s                                 0x00000000   Number         0  button_get.o ABSOLUTE
    RL_ARM.s                                 0x00000000   Number         0  gui_stream.o ABSOLUTE
    RL_ARM.s                                 0x00000000   Number         0  button_createindirect.o ABSOLUTE
    RL_ARM.s                                 0x00000000   Number         0  button_color.o ABSOLUTE
    RL_ARM.s                                 0x00000000   Number         0  gui_settextmode.o ABSOLUTE
    RL_ARM.s                                 0x00000000   Number         0  button_bitmap.o ABSOLUTE
    RL_ARM.s                                 0x00000000   Number         0  fs_journal.o ABSOLUTE
    RL_ARM.s                                 0x00000000   Number         0  gui_setorg.o ABSOLUTE
    RL_ARM.s                                 0x00000000   Number         0  button.o ABSOLUTE
    RL_ARM.s                                 0x00000000   Number         0  scrollbar.o ABSOLUTE
    RL_ARM.s                                 0x00000000   Number         0  gui_index2color.o ABSOLUTE
    RL_ARM.s                                 0x00000000   Number         0  gui_setdrawmode.o ABSOLUTE
    RL_ARM.s                                 0x00000000   Number         0  gui__compactpixelindices.o ABSOLUTE
    RL_ARM.s                                 0x00000000   Number         0  scrollbar_defaults.o ABSOLUTE
    RL_ARM.s                                 0x00000000   Number         0  gui__divideround32.o ABSOLUTE
    RL_ARM.s                                 0x00000000   Number         0  scrollbar_setcolor.o ABSOLUTE
    RL_ARM.s                                 0x00000000   Number         0  gui__expandpixelindices.o ABSOLUTE
    RL_ARM.s                                 0x00000000   Number         0  scrollbar_setwidth.o ABSOLUTE
    RL_ARM.s                                 0x00000000   Number         0  gui__getfontsizey.o ABSOLUTE
    RL_ARM.s                                 0x00000000   Number         0  gui__handleeoline.o ABSOLUTE
    RL_ARM.s                                 0x00000000   Number         0  gui__memset16.o ABSOLUTE
    RL_ARM.s                                 0x00000000   Number         0  guidrv_lin_16.o ABSOLUTE
    RL_ARM.s                                 0x00000000   Number         0  gui__read.o ABSOLUTE
    RL_ARM.s                                 0x00000000   Number         0  gui__reducerect.o ABSOLUTE
    RL_ARM.s                                 0x00000000   Number         0  gui__setpixelalpha.o ABSOLUTE
    RL_ARM.s                                 0x00000000   Number         0  gui__strcmp.o ABSOLUTE
    RL_ARM.s                                 0x00000000   Number         0  gui__strlen.o ABSOLUTE
    RL_ARM.s                                 0x00000000   Number         0  gui_adddecshift.o ABSOLUTE
    RL_ARM.s                                 0x00000000   Number         0  gui_charp.o ABSOLUTE
    RL_ARM.s                                 0x00000000   Number         0  gui_setdefault.o ABSOLUTE
    RL_ARM.s                                 0x00000000   Number         0  gui_circ.o ABSOLUTE
    RL_ARM.s                                 0x00000000   Number         0  gui_setalpha.o ABSOLUTE
    RL_ARM.s                                 0x00000000   Number         0  gui_curs1.o ABSOLUTE
    RL_ARM.s                                 0x00000000   Number         0  widget.o ABSOLUTE
    RL_ARM.s                                 0x00000000   Number         0  gui_drawbitmap_24.o ABSOLUTE
    RL_ARM.s                                 0x00000000   Number         0  usbh_core.o ABSOLUTE
    RL_ARM.s                                 0x00000000   Number         0  gui_drawbitmap_565.o ABSOLUTE
    RL_ARM.s                                 0x00000000   Number         0  gui_drawhline.o ABSOLUTE
    RL_ARM.s                                 0x00000000   Number         0  gui_drawvline.o ABSOLUTE
    RL_ARM.s                                 0x00000000   Number         0  gui_getclientrect.o ABSOLUTE
    RL_ARM.s                                 0x00000000   Number         0  widget_effect_none.o ABSOLUTE
    RL_ARM.s                                 0x00000000   Number         0  gui_getorg.o ABSOLUTE
    RL_ARM.s                                 0x00000000   Number         0  widget_fillstringinrect.o ABSOLUTE
    RL_ARM.s                                 0x00000000   Number         0  gui_pen.o ABSOLUTE
    RL_ARM.s                                 0x00000000   Number         0  gui_pid.o ABSOLUTE
    RL_ARM.s                                 0x00000000   Number         0  widget_seteffect.o ABSOLUTE
    RL_ARM.s                                 0x00000000   Number         0  gui_selectlayer.o ABSOLUTE
    RL_ARM.s                                 0x00000000   Number         0  gui_selectlcd.o ABSOLUTE
    RL_ARM.s                                 0x00000000   Number         0  gui_setcliprect.o ABSOLUTE
    RL_ARM.s                                 0x00000000   Number         0  wm__isancestor.o ABSOLUTE
    RL_ARM.s                                 0x00000000   Number         0  guicc_555_index2color.o ABSOLUTE
    RL_ARM.s                                 0x00000000   Number         0  gui_setlinestyle.o ABSOLUTE
    RL_ARM.s                                 0x00000000   Number         0  gui_streamcreate.o ABSOLUTE
    RL_ARM.s                                 0x00000000   Number         0  gui_dispstringatceol.o ABSOLUTE
    RL_ARM.s                                 0x00000000   Number         0  gui_sprite.o ABSOLUTE
    RL_ARM.s                                 0x00000000   Number         0  guicc_0.o ABSOLUTE
    RL_ARM.s                                 0x00000000   Number         0  wm__isenabled.o ABSOLUTE
    RL_ARM.s                                 0x00000000   Number         0  gui_drawbitmap.o ABSOLUTE
    RL_ARM.s                                 0x00000000   Number         0  wm__sendmessage.o ABSOLUTE
    RL_ARM.s                                 0x00000000   Number         0  usbh_msc.o ABSOLUTE
    RL_ARM.s                                 0x00000000   Number         0  gui_setpixelindex.o ABSOLUTE
    RL_ARM.s                                 0x00000000   Number         0  guicc_8888_index2color.o ABSOLUTE
    RL_ARM.s                                 0x00000000   Number         0  wm_bringtobottom.o ABSOLUTE
    RL_ARM.s                                 0x00000000   Number         0  gui_drawbitmap_8888.o ABSOLUTE
    RL_ARM.s                                 0x00000000   Number         0  lcd_aa.o ABSOLUTE
    RL_ARM.s                                 0x00000000   Number         0  wm_checkscrollpos.o ABSOLUTE
    RL_ARM.s                                 0x00000000   Number         0  lcd_getcolorindex.o ABSOLUTE
    RL_ARM.s                                 0x00000000   Number         0  gui_cursorarrowm.o ABSOLUTE
    RL_ARM.s                                 0x00000000   Number         0  wm_userdata.o ABSOLUTE
    RL_ARM.s                                 0x00000000   Number         0  lcd_getnumdisplays.o ABSOLUTE
    RL_ARM.s                                 0x00000000   Number         0  lcd_rle4.o ABSOLUTE
    RL_ARM.s                                 0x00000000   Number         0  lcd_rle8.o ABSOLUTE
    RL_ARM.s                                 0x00000000   Number         0  lcd_rle16.o ABSOLUTE
    RL_ARM.s                                 0x00000000   Number         0  wm_touch.o ABSOLUTE
    RL_ARM.s                                 0x00000000   Number         0  wm_timer.o ABSOLUTE
    RL_ARM.s                                 0x00000000   Number         0  wm_criticalhandle.o ABSOLUTE
    RL_ARM.s                                 0x00000000   Number         0  gui_calccolordist.o ABSOLUTE
    RL_ARM.s                                 0x00000000   Number         0  gui__sqrt32.o ABSOLUTE
    RL_ARM.s                                 0x00000000   Number         0  lcd_rle32.o ABSOLUTE
    RL_ARM.s                                 0x00000000   Number         0  gui__drawbitmap16bpp.o ABSOLUTE
    RL_ARM.s                                 0x00000000   Number         0  lcd_updatecolorindices.o ABSOLUTE
    RL_ARM.s                                 0x00000000   Number         0  gui__alpha.o ABSOLUTE
    RL_ARM.s                                 0x00000000   Number         0  wm_getclientrect.o ABSOLUTE
    RL_ARM.s                                 0x00000000   Number         0  wm_validatewindow.o ABSOLUTE
    RL_ARM.s                                 0x00000000   Number         0  f13_ascii.o ABSOLUTE
    RL_ARM.s                                 0x00000000   Number         0  gui_drawline.o ABSOLUTE
    RL_ARM.s                                 0x00000000   Number         0  wm_getclientwindow.o ABSOLUTE
    RL_ARM.s                                 0x00000000   Number         0  wm_setcapture.o ABSOLUTE
    RL_ARM.s                                 0x00000000   Number         0  wm_getfirstchild.o ABSOLUTE
    RL_ARM.s                                 0x00000000   Number         0  wm_screen2win.o ABSOLUTE
    RL_ARM.s                                 0x00000000   Number         0  f8x16.o ABSOLUTE
    RL_ARM.s                                 0x00000000   Number         0  wm_getfocussedwindow.o ABSOLUTE
    RL_ARM.s                                 0x00000000   Number         0  guidev_getdataptr.o ABSOLUTE
    RL_ARM.s                                 0x00000000   Number         0  gui_invertrect.o ABSOLUTE
    RL_ARM.s                                 0x00000000   Number         0  gui_encext.o ABSOLUTE
    RL_ARM.s                                 0x00000000   Number         0  wm_resizewindow.o ABSOLUTE
    RL_ARM.s                                 0x00000000   Number         0  wm_getinsiderect.o ABSOLUTE
    RL_ARM.s                                 0x00000000   Number         0  wm_setusercliprect.o ABSOLUTE
    RL_ARM.s                                 0x00000000   Number         0  gui_mergerect.o ABSOLUTE
    RL_ARM.s                                 0x00000000   Number         0  wm_getinsiderectexscrollbar.o ABSOLUTE
    RL_ARM.s                                 0x00000000   Number         0  at_ip.o ABSOLUTE
    RL_ARM.s                                 0x00000000   Number         0  guidev_getxsize.o ABSOLUTE
    RL_ARM.s                                 0x00000000   Number         0  gui_moverect.o ABSOLUTE
    RL_ARM.s                                 0x00000000   Number         0  gui_drawfocusrect.o ABSOLUTE
    RL_ARM.s                                 0x00000000   Number         0  lcd_set.o ABSOLUTE
    RL_ARM.s                                 0x00000000   Number         0  usbh_ohci.o ABSOLUTE
    RL_ARM.s                                 0x00000000   Number         0  gui_dispstringinrectwrap.o ABSOLUTE
    RL_ARM.s                                 0x00000000   Number         0  guidev.o ABSOLUTE
    RL_ARM.s                                 0x00000000   Number         0  wm_getparent.o ABSOLUTE
    RL_ARM.s                                 0x00000000   Number         0  gui_drawpoint.o ABSOLUTE
    RL_ARM.s                                 0x00000000   Number         0  guidev_getysize.o ABSOLUTE
    RL_ARM.s                                 0x00000000   Number         0  fs_sys.o ABSOLUTE
    RL_ARM.s                                 0x00000000   Number         0  gui_dispstringinrect.o ABSOLUTE
    RL_ARM.s                                 0x00000000   Number         0  guidev_reduceysize.o ABSOLUTE
    RL_ARM.s                                 0x00000000   Number         0  wm_show.o ABSOLUTE
    RL_ARM.s                                 0x00000000   Number         0  gui_uc_encodeutf8.o ABSOLUTE
    RL_ARM.s                                 0x00000000   Number         0  guidev_usage.o ABSOLUTE
    RL_ARM.s                                 0x00000000   Number         0  gui_realloc.o ABSOLUTE
    RL_ARM.s                                 0x00000000   Number         0  wm_setfocus.o ABSOLUTE
    RL_ARM.s                                 0x00000000   Number         0  guidev_usagebm.o ABSOLUTE
    RL_ARM.s                                 0x00000000   Number         0  wm_setcreateflags.o ABSOLUTE
    RL_ARM.s                                 0x00000000   Number         0  guidev_writetoactivealpha.o ABSOLUTE
    RL_ARM.s                                 0x00000000   Number         0  f13_1.o ABSOLUTE
    RL_ARM.s                                 0x00000000   Number         0  guidev_writetoactiveopaque.o ABSOLUTE
    RL_ARM.s                                 0x00000000   Number         0  f6x8.o ABSOLUTE
    RL_ARM.s                                 0x00000000   Number         0  fs_mapi.o ABSOLUTE
    RL_ARM.s                                 0x00000000   Number         0  gui_draw.o ABSOLUTE
    RL_ARM.s                                 0x00000000   Number         0  lcd_setcliprectex.o ABSOLUTE
    RL_ARM.s                                 0x00000000   Number         0  gui_time.o ABSOLUTE
    RL_ARM.s                                 0x00000000   Number         0  scrollbar_create.o ABSOLUTE
    RL_ARM.s                                 0x00000000   Number         0  wm_setcallback.o ABSOLUTE
    RL_ARM.s                                 0x00000000   Number         0  gui_settextalign.o ABSOLUTE
    RL_ARM.s                                 0x00000000   Number         0  scrollbar_skinclassic.o ABSOLUTE
    RL_ARM.s                                 0x00000000   Number         0  wm_getscrollbar.o ABSOLUTE
    RL_ARM.s                                 0x00000000   Number         0  guicc_565.o ABSOLUTE
    RL_ARM.s                                 0x00000000   Number         0  lcd_mirror.o ABSOLUTE
    RL_ARM.s                                 0x00000000   Number         0  gui_setfont.o ABSOLUTE
    RL_ARM.s                                 0x00000000   Number         0  gui_2dlib.o ABSOLUTE
    RL_ARM.s                                 0x00000000   Number         0  wm_getscrollstate.o ABSOLUTE
    RL_ARM.s                                 0x00000000   Number         0  image_bitmap.o ABSOLUTE
    RL_ARM.s                                 0x00000000   Number         0  lcd_getpixelcolor.o ABSOLUTE
    RL_ARM.s                                 0x00000000   Number         0  gui_setcolor.o ABSOLUTE
    RL_ARM.s                                 0x00000000   Number         0  widget_effect_3d.o ABSOLUTE
    RL_ARM.s                                 0x00000000   Number         0  gui_dispchars.o ABSOLUTE
    RL_ARM.s                                 0x00000000   Number         0  lcd_getp.o ABSOLUTE
    RL_ARM.s                                 0x00000000   Number         0  wm_paint.o ABSOLUTE
    RL_ARM.s                                 0x00000000   Number         0  gui_onkey.o ABSOLUTE
    RL_ARM.s                                 0x00000000   Number         0  wm_getwindowsize.o ABSOLUTE
    RL_ARM.s                                 0x00000000   Number         0  gui_dispchar.o ABSOLUTE
    RL_ARM.s                                 0x00000000   Number         0  widget_setwidth.o ABSOLUTE
    RL_ARM.s                                 0x00000000   Number         0  gui_rectsintersect.o ABSOLUTE
    RL_ARM.s                                 0x00000000   Number         0  wm_hasfocus.o ABSOLUTE
    RL_ARM.s                                 0x00000000   Number         0  lcd_getex.o ABSOLUTE
    RL_ARM.s                                 0x00000000   Number         0  wm_iswindow.o ABSOLUTE
    RL_ARM.s                                 0x00000000   Number         0  wm_multibuf.o ABSOLUTE
    RL_ARM.s                                 0x00000000   Number         0  gui_error.o ABSOLUTE
    RL_ARM.s                                 0x00000000   Number         0  wm_notifyparent.o ABSOLUTE
    RL_ARM.s                                 0x00000000   Number         0  wm_memdev.o ABSOLUTE
    RL_ARM.s                                 0x00000000   Number         0  wm__getfocussedchild.o ABSOLUTE
    RL_ARM.s                                 0x00000000   Number         0  wm_onkey.o ABSOLUTE
    RL_ARM.s                                 0x00000000   Number         0  wm_hide.o ABSOLUTE
    RL_ARM.s                                 0x00000000   Number         0  wm_getid.o ABSOLUTE
    RL_ARM.s                                 0x00000000   Number         0  wm_sendmessagenopara.o ABSOLUTE
    RL_ARM.s                                 0x00000000   Number         0  wm__getlastsibling.o ABSOLUTE
    RL_ARM.s                                 0x00000000   Number         0  wm_sendtoparent.o ABSOLUTE
    RL_ARM.s                                 0x00000000   Number         0  wm_getdesktopwindow.o ABSOLUTE
    RL_ARM.s                                 0x00000000   Number         0  wm_enablewindow.o ABSOLUTE
    RL_ARM.s                                 0x00000000   Number         0  wm__getprevsibling.o ABSOLUTE
    RL_ARM.s                                 0x00000000   Number         0  gui_drawbitmap_555.o ABSOLUTE
    RL_ARM.s                                 0x00000000   Number         0  wm_setfocusonnextchild.o ABSOLUTE
    RL_ARM.s                                 0x00000000   Number         0  wm__screen2client.o ABSOLUTE
    RL_ARM.s                                 0x00000000   Number         0  wm.o ABSOLUTE
    RL_ARM.s                                 0x00000000   Number         0  gui_fillpolygon.o ABSOLUTE
    RL_ARM.s                                 0x00000000   Number         0  wm__sendmessageifenabled.o ABSOLUTE
    RL_ARM.s                                 0x00000000   Number         0  gui_alloc_allocinit.o ABSOLUTE
    RL_ARM.s                                 0x00000000   Number         0  wm_setfocusonprevchild.o ABSOLUTE
    RL_ARM.s                                 0x00000000   Number         0  gui_fillrectex.o ABSOLUTE
    RL_ARM.s                                 0x00000000   Number         0  gui_multibuf.o ABSOLUTE
    RL_ARM.s                                 0x00000000   Number         0  gui_savecontext.o ABSOLUTE
    RL_ARM.s                                 0x00000000   Number         0  wm__sendmessagenopara.o ABSOLUTE
    RL_ARM.s                                 0x00000000   Number         0  gui_alloc.o ABSOLUTE
    RL_ARM.s                                 0x00000000   Number         0  window.o ABSOLUTE
    RL_ARM.s                                 0x00000000   Number         0  wm__updatechildpositions.o ABSOLUTE
    RL_ARM.s                                 0x00000000   Number         0  image.o ABSOLUTE
    RL_ARM.s                                 0x00000000   Number         0  wm_bringtotop.o ABSOLUTE
    RL_ARM.s                                 0x00000000   Number         0  wm_setscrollbar.o ABSOLUTE
    RL_ARM.s                                 0x00000000   Number         0  gui_bmp_serialize.o ABSOLUTE
    RL_ARM.s                                 0x00000000   Number         0  gui_dispceol.o ABSOLUTE
    RL_ARM.s                                 0x00000000   Number         0  lcd_color.o ABSOLUTE
    RL_ARM.s                                 0x00000000   Number         0  wm_setscrollstate.o ABSOLUTE
    RL_ARM.s                                 0x00000000   Number         0  wm_getbkcolor.o ABSOLUTE
    RL_ARM.s                                 0x00000000   Number         0  text_settextcolor.o ABSOLUTE
    RL_ARM.s                                 0x00000000   Number         0  text_settext.o ABSOLUTE
    RL_ARM.s                                 0x00000000   Number         0  wm_getflags.o ABSOLUTE
    RL_ARM.s                                 0x00000000   Number         0  gui_char.o ABSOLUTE
    RL_ARM.s                                 0x00000000   Number         0  text_setfont.o ABSOLUTE
    RL_ARM.s                                 0x00000000   Number         0  wm_getscrollpartner.o ABSOLUTE
    RL_ARM.s                                 0x00000000   Number         0  wm__foreachdesc.o ABSOLUTE
    RL_ARM.s                                 0x00000000   Number         0  gui_clearrectex.o ABSOLUTE
    RL_ARM.s                                 0x00000000   Number         0  lcd_readrect.o ABSOLUTE
    RL_ARM.s                                 0x00000000   Number         0  listbox.o ABSOLUTE
    RL_ARM.s                                 0x00000000   Number         0  gui_charpext.o ABSOLUTE
    RL_ARM.s                                 0x00000000   Number         0  wm_getwindowrect.o ABSOLUTE
    RL_ARM.s                                 0x00000000   Number         0  gui_setcolorindex.o ABSOLUTE
    RL_ARM.s                                 0x00000000   Number         0  gui_getysizeoffont.o ABSOLUTE
    RL_ARM.s                                 0x00000000   Number         0  gui_getbitmappixelindex.o ABSOLUTE
    RL_ARM.s                                 0x00000000   Number         0  gui_charm.o ABSOLUTE
    RL_ARM.s                                 0x00000000   Number         0  gui_cursorpal.o ABSOLUTE
    RL_ARM.s                                 0x00000000   Number         0  wm_setsize.o ABSOLUTE
    RL_ARM.s                                 0x00000000   Number         0  gui_cursorarrowmpx.o ABSOLUTE
    RL_ARM.s                                 0x00000000   Number         0  wm_isfocussable.o ABSOLUTE
    RL_ARM.s                                 0x00000000   Number         0  wm_setysize.o ABSOLUTE
    RL_ARM.s                                 0x00000000   Number         0  lcd.o ABSOLUTE
    RL_ARM.s                                 0x00000000   Number         0  wm_setxsize.o ABSOLUTE
    RL_ARM.s                                 0x00000000   Number         0  listbox_font.o ABSOLUTE
    RL_ARM.s                                 0x00000000   Number         0  wm_move.o ABSOLUTE
    RL_ARM.s                                 0x00000000   Number         0  text_default.o ABSOLUTE
    RL_ARM.s                                 0x00000000   Number         0  wm_foreachdesc.o ABSOLUTE
    RL_ARM.s                                 0x00000000   Number         0  listbox_getitemtext.o ABSOLUTE
    RL_ARM.s                                 0x00000000   Number         0  wm__ischild.o ABSOLUTE
    RL_ARM.s                                 0x00000000   Number         0  listbox_itemspacing.o ABSOLUTE
    RL_ARM.s                                 0x00000000   Number         0  wm__getfirstsibling.o ABSOLUTE
    RL_ARM.s                                 0x00000000   Number         0  text.o ABSOLUTE
    RL_ARM.s                                 0x00000000   Number         0  lcd_selectlcd.o ABSOLUTE
    RL_ARM.s                                 0x00000000   Number         0  gui_getstringdistx.o ABSOLUTE
    RL_ARM.s                                 0x00000000   Number         0  lcd_rlealpha.o ABSOLUTE
    RL_ARM.s                                 0x00000000   Number         0  gui_core.o ABSOLUTE
    RL_ARM.s                                 0x00000000   Number         0  listbox_setautoscroll.o ABSOLUTE
    RL_ARM.s                                 0x00000000   Number         0  progbar_settextcolor.o ABSOLUTE
    RL_ARM.s                                 0x00000000   Number         0  lcd_nextpixelapi.o ABSOLUTE
    RL_ARM.s                                 0x00000000   Number         0  gui_fillrect.o ABSOLUTE
    RL_ARM.s                                 0x00000000   Number         0  guicc_m565_index2color.o ABSOLUTE
    RL_ARM.s                                 0x00000000   Number         0  wm_pid__getprevstate.o ABSOLUTE
    RL_ARM.s                                 0x00000000   Number         0  guicc_m555_index2color.o ABSOLUTE
    RL_ARM.s                                 0x00000000   Number         0  wm_settrans.o ABSOLUTE
    RL_ARM.s                                 0x00000000   Number         0  gui_device.o ABSOLUTE
    RL_ARM.s                                 0x00000000   Number         0  gui_exec.o ABSOLUTE
    RL_ARM.s                                 0x00000000   Number         0  guicc_888_index2color.o ABSOLUTE
    RL_ARM.s                                 0x00000000   Number         0  gui_dispstring.o ABSOLUTE
    RTOS\RTOS_main.c                         0x00000000   Number         0  rtos_main.o ABSOLUTE
    RTOS\RTX_Config.c                        0x00000000   Number         0  rtx_config.o ABSOLUTE
    RTOS\\RTOS_main.c                        0x00000000   Number         0  rtos_main.o ABSOLUTE
    RTOS\\RTX_Config.c                       0x00000000   Number         0  rtx_config.o ABSOLUTE
    SRC\CM\HAL_CM3.c                         0x00000000   Number         0  hal_cm3.o ABSOLUTE
    SRC\CM\SVC_Table.s                       0x00000000   Number         0  SVC_Table.o ABSOLUTE
    SRC\CM\rt_Event.c                        0x00000000   Number         0  rt_event.o ABSOLUTE
    SRC\CM\rt_List.c                         0x00000000   Number         0  rt_list.o ABSOLUTE
    SRC\CM\rt_Mailbox.c                      0x00000000   Number         0  rt_mailbox.o ABSOLUTE
    SRC\CM\rt_MemBox.c                       0x00000000   Number         0  rt_membox.o ABSOLUTE
    SRC\CM\rt_Mutex.c                        0x00000000   Number         0  rt_mutex.o ABSOLUTE
    SRC\CM\rt_Robin.c                        0x00000000   Number         0  rt_robin.o ABSOLUTE
    SRC\CM\rt_Semaphore.c                    0x00000000   Number         0  rt_semaphore.o ABSOLUTE
    SRC\CM\rt_System.c                       0x00000000   Number         0  rt_system.o ABSOLUTE
    SRC\CM\rt_Task.c                         0x00000000   Number         0  rt_task.o ABSOLUTE
    SRC\CM\rt_Time.c                         0x00000000   Number         0  rt_time.o ABSOLUTE
    SRC\CM\rt_Timer.c                        0x00000000   Number         0  rt_timer.o ABSOLUTE
    SRC\\CM\\HAL_CM3.c                       0x00000000   Number         0  hal_cm3.o ABSOLUTE
    SRC\\CM\\rt_System.c                     0x00000000   Number         0  rt_system.o ABSOLUTE
    SRC\\at_System.c                         0x00000000   Number         0  at_system.o ABSOLUTE
    SRC\\fs_sys.c                            0x00000000   Number         0  fs_sys.o ABSOLUTE
    SRC\\usbh_core.c                         0x00000000   Number         0  usbh_core.o ABSOLUTE
    SRC\at_ARP.c                             0x00000000   Number         0  at_arp.o ABSOLUTE
    SRC\at_DHCP.c                            0x00000000   Number         0  at_dhcp.o ABSOLUTE
    SRC\at_Ethernet.c                        0x00000000   Number         0  at_ethernet.o ABSOLUTE
    SRC\at_FTP.c                             0x00000000   Number         0  at_ftp.o ABSOLUTE
    SRC\at_ICMP.c                            0x00000000   Number         0  at_icmp.o ABSOLUTE
    SRC\at_IP.c                              0x00000000   Number         0  at_ip.o ABSOLUTE
    SRC\at_Lib.c                             0x00000000   Number         0  at_lib.o ABSOLUTE
    SRC\at_Mem.c                             0x00000000   Number         0  at_mem.o ABSOLUTE
    SRC\at_NBNS.c                            0x00000000   Number         0  at_nbns.o ABSOLUTE
    SRC\at_System.c                          0x00000000   Number         0  at_system.o ABSOLUTE
    SRC\at_TCP.c                             0x00000000   Number         0  at_tcp.o ABSOLUTE
    SRC\at_Telnet.c                          0x00000000   Number         0  at_telnet.o ABSOLUTE
    SRC\at_UDP.c                             0x00000000   Number         0  at_udp.o ABSOLUTE
    SRC\fs_fat.c                             0x00000000   Number         0  fs_fat.o ABSOLUTE
    SRC\fs_journal.c                         0x00000000   Number         0  fs_journal.o ABSOLUTE
    SRC\fs_lib.c                             0x00000000   Number         0  fs_lib.o ABSOLUTE
    SRC\fs_mapi.c                            0x00000000   Number         0  fs_mapi.o ABSOLUTE
    SRC\fs_sys.c                             0x00000000   Number         0  fs_sys.o ABSOLUTE
    SRC\usbh_core.c                          0x00000000   Number         0  usbh_core.o ABSOLUTE
    SRC\usbh_mem.c                           0x00000000   Number         0  usbh_mem.o ABSOLUTE
    SRC\usbh_msc.c                           0x00000000   Number         0  usbh_msc.o ABSOLUTE
    SRC\usbh_ohci.c                          0x00000000   Number         0  usbh_ohci.o ABSOLUTE
    Scoreboard\Scoreboard.c                  0x00000000   Number         0  scoreboard.o ABSOLUTE
    Scoreboard\\Scoreboard.c                 0x00000000   Number         0  scoreboard.o ABSOLUTE
    Screen_Shot\Screenshot_bmp.c             0x00000000   Number         0  screenshot_bmp.o ABSOLUTE
    Screen_Shot\\Screenshot_bmp.c            0x00000000   Number         0  screenshot_bmp.o ABSOLUTE
    USB\USB_main.c                           0x00000000   Number         0  usb_main.o ABSOLUTE
    USB\\USB_main.c                          0x00000000   Number         0  usb_main.o ABSOLUTE
    USB\\fs_usbh_msc.c                       0x00000000   Number         0  fs_usbh_msc.o ABSOLUTE
    USB\\usbh_ohci_lpc177x_8x.c              0x00000000   Number         0  usbh_ohci_lpc177x_8x.o ABSOLUTE
    USB\fs_usbh_msc.c                        0x00000000   Number         0  fs_usbh_msc.o ABSOLUTE
    USB\usb_config.c                         0x00000000   Number         0  usb_config.o ABSOLUTE
    USB\usbh_ohci_lpc177x_8x.c               0x00000000   Number         0  usbh_ohci_lpc177x_8x.o ABSOLUTE
    dc.s                                     0x00000000   Number         0  dc.o ABSOLUTE
    ini\\ini.c                               0x00000000   Number         0  ini.o ABSOLUTE
    ini\ini.c                                0x00000000   Number         0  ini.o ABSOLUTE
    wdt\\wdt.c                               0x00000000   Number         0  wdt.o ABSOLUTE
    wdt\wdt.c                                0x00000000   Number         0  wdt.o ABSOLUTE
    RESET                                    0x0000b000   Section      228  startup_lpc177x_8x.o(RESET)
    !!!main                                  0x0000b0e4   Section        8  __main.o(!!!main)
    !!!scatter                               0x0000b0ec   Section       52  __scatter.o(!!!scatter)
    !!dczerorl2                              0x0000b120   Section       90  __dczerorl2.o(!!dczerorl2)
    !!handler_zi                             0x0000b17c   Section       28  __scatter_zi.o(!!handler_zi)
    .ARM.Collect$$_printf_percent$$00000000  0x0000b198   Section        0  _printf_percent.o(.ARM.Collect$$_printf_percent$$00000000)
    .ARM.Collect$$_printf_percent$$00000001  0x0000b198   Section        6  _printf_n.o(.ARM.Collect$$_printf_percent$$00000001)
    .ARM.Collect$$_printf_percent$$00000002  0x0000b19e   Section        6  _printf_p.o(.ARM.Collect$$_printf_percent$$00000002)
    .ARM.Collect$$_printf_percent$$00000003  0x0000b1a4   Section        6  _printf_f.o(.ARM.Collect$$_printf_percent$$00000003)
    .ARM.Collect$$_printf_percent$$00000004  0x0000b1aa   Section        6  _printf_e.o(.ARM.Collect$$_printf_percent$$00000004)
    .ARM.Collect$$_printf_percent$$00000005  0x0000b1b0   Section        6  _printf_g.o(.ARM.Collect$$_printf_percent$$00000005)
    .ARM.Collect$$_printf_percent$$00000006  0x0000b1b6   Section        6  _printf_a.o(.ARM.Collect$$_printf_percent$$00000006)
    .ARM.Collect$$_printf_percent$$00000007  0x0000b1bc   Section       10  _printf_ll.o(.ARM.Collect$$_printf_percent$$00000007)
    .ARM.Collect$$_printf_percent$$00000008  0x0000b1c6   Section        6  _printf_i.o(.ARM.Collect$$_printf_percent$$00000008)
    .ARM.Collect$$_printf_percent$$00000009  0x0000b1cc   Section        6  _printf_d.o(.ARM.Collect$$_printf_percent$$00000009)
    .ARM.Collect$$_printf_percent$$0000000A  0x0000b1d2   Section        6  _printf_u.o(.ARM.Collect$$_printf_percent$$0000000A)
    .ARM.Collect$$_printf_percent$$0000000B  0x0000b1d8   Section        6  _printf_o.o(.ARM.Collect$$_printf_percent$$0000000B)
    .ARM.Collect$$_printf_percent$$0000000C  0x0000b1de   Section        6  _printf_x.o(.ARM.Collect$$_printf_percent$$0000000C)
    .ARM.Collect$$_printf_percent$$0000000D  0x0000b1e4   Section        6  _printf_lli.o(.ARM.Collect$$_printf_percent$$0000000D)
    .ARM.Collect$$_printf_percent$$0000000E  0x0000b1ea   Section        6  _printf_lld.o(.ARM.Collect$$_printf_percent$$0000000E)
    .ARM.Collect$$_printf_percent$$0000000F  0x0000b1f0   Section        6  _printf_llu.o(.ARM.Collect$$_printf_percent$$0000000F)
    .ARM.Collect$$_printf_percent$$00000010  0x0000b1f6   Section        6  _printf_llo.o(.ARM.Collect$$_printf_percent$$00000010)
    .ARM.Collect$$_printf_percent$$00000011  0x0000b1fc   Section        6  _printf_llx.o(.ARM.Collect$$_printf_percent$$00000011)
    .ARM.Collect$$_printf_percent$$00000012  0x0000b202   Section       10  _printf_l.o(.ARM.Collect$$_printf_percent$$00000012)
    .ARM.Collect$$_printf_percent$$00000013  0x0000b20c   Section        6  _printf_c.o(.ARM.Collect$$_printf_percent$$00000013)
    .ARM.Collect$$_printf_percent$$00000014  0x0000b212   Section        6  _printf_s.o(.ARM.Collect$$_printf_percent$$00000014)
    .ARM.Collect$$_printf_percent$$00000015  0x0000b218   Section        6  _printf_lc.o(.ARM.Collect$$_printf_percent$$00000015)
    .ARM.Collect$$_printf_percent$$00000016  0x0000b21e   Section        6  _printf_ls.o(.ARM.Collect$$_printf_percent$$00000016)
    .ARM.Collect$$_printf_percent$$00000017  0x0000b224   Section        4  _printf_percent_end.o(.ARM.Collect$$_printf_percent$$00000017)
    .ARM.Collect$$libinit$$00000000          0x0000b228   Section        2  libinit.o(.ARM.Collect$$libinit$$00000000)
    .ARM.Collect$$libinit$$00000002          0x0000b22a   Section        0  libinit2.o(.ARM.Collect$$libinit$$00000002)
    .ARM.Collect$$libinit$$00000003          0x0000b22a   Section        8  libinit2.o(.ARM.Collect$$libinit$$00000003)
    .ARM.Collect$$libinit$$00000008          0x0000b232   Section        0  libinit2.o(.ARM.Collect$$libinit$$00000008)
    .ARM.Collect$$libinit$$0000000A          0x0000b232   Section        0  libinit2.o(.ARM.Collect$$libinit$$0000000A)
    .ARM.Collect$$libinit$$0000000C          0x0000b232   Section        0  libinit2.o(.ARM.Collect$$libinit$$0000000C)
    .ARM.Collect$$libinit$$0000000D          0x0000b232   Section        6  libinit2.o(.ARM.Collect$$libinit$$0000000D)
    .ARM.Collect$$libinit$$0000000F          0x0000b238   Section        0  libinit2.o(.ARM.Collect$$libinit$$0000000F)
    .ARM.Collect$$libinit$$00000010          0x0000b238   Section       12  libinit2.o(.ARM.Collect$$libinit$$00000010)
    .ARM.Collect$$libinit$$00000011          0x0000b244   Section        0  libinit2.o(.ARM.Collect$$libinit$$00000011)
    .ARM.Collect$$libinit$$00000013          0x0000b244   Section        0  libinit2.o(.ARM.Collect$$libinit$$00000013)
    .ARM.Collect$$libinit$$00000014          0x0000b244   Section       10  libinit2.o(.ARM.Collect$$libinit$$00000014)
    .ARM.Collect$$libinit$$00000015          0x0000b24e   Section        0  libinit2.o(.ARM.Collect$$libinit$$00000015)
    .ARM.Collect$$libinit$$00000017          0x0000b24e   Section        0  libinit2.o(.ARM.Collect$$libinit$$00000017)
    .ARM.Collect$$libinit$$00000019          0x0000b24e   Section        0  libinit2.o(.ARM.Collect$$libinit$$00000019)
    .ARM.Collect$$libinit$$0000001B          0x0000b24e   Section        0  libinit2.o(.ARM.Collect$$libinit$$0000001B)
    .ARM.Collect$$libinit$$0000001D          0x0000b24e   Section        0  libinit2.o(.ARM.Collect$$libinit$$0000001D)
    .ARM.Collect$$libinit$$0000001F          0x0000b24e   Section        0  libinit2.o(.ARM.Collect$$libinit$$0000001F)
    .ARM.Collect$$libinit$$00000021          0x0000b24e   Section        0  libinit2.o(.ARM.Collect$$libinit$$00000021)
    .ARM.Collect$$libinit$$00000022          0x0000b24e   Section        4  libinit2.o(.ARM.Collect$$libinit$$00000022)
    .ARM.Collect$$libinit$$00000023          0x0000b252   Section        0  libinit2.o(.ARM.Collect$$libinit$$00000023)
    .ARM.Collect$$libinit$$0000002A          0x0000b252   Section        0  libinit2.o(.ARM.Collect$$libinit$$0000002A)
    .ARM.Collect$$libinit$$0000002C          0x0000b252   Section        0  libinit2.o(.ARM.Collect$$libinit$$0000002C)
    .ARM.Collect$$libinit$$0000002E          0x0000b252   Section        0  libinit2.o(.ARM.Collect$$libinit$$0000002E)
    .ARM.Collect$$libinit$$00000030          0x0000b252   Section        0  libinit2.o(.ARM.Collect$$libinit$$00000030)
    .ARM.Collect$$libinit$$00000031          0x0000b252   Section        2  libinit2.o(.ARM.Collect$$libinit$$00000031)
    .ARM.Collect$$libshutdown$$00000000      0x0000b254   Section        2  libshutdown.o(.ARM.Collect$$libshutdown$$00000000)
    .ARM.Collect$$libshutdown$$00000002      0x0000b256   Section        4  libshutdown2.o(.ARM.Collect$$libshutdown$$00000002)
    .ARM.Collect$$libshutdown$$00000003      0x0000b25a   Section        0  libshutdown2.o(.ARM.Collect$$libshutdown$$00000003)
    .ARM.Collect$$libshutdown$$00000006      0x0000b25a   Section        0  libshutdown2.o(.ARM.Collect$$libshutdown$$00000006)
    .ARM.Collect$$libshutdown$$00000009      0x0000b25a   Section        0  libshutdown2.o(.ARM.Collect$$libshutdown$$00000009)
    .ARM.Collect$$libshutdown$$0000000B      0x0000b25a   Section        0  libshutdown2.o(.ARM.Collect$$libshutdown$$0000000B)
    .ARM.Collect$$libshutdown$$0000000E      0x0000b25a   Section        0  libshutdown2.o(.ARM.Collect$$libshutdown$$0000000E)
    .ARM.Collect$$libshutdown$$0000000F      0x0000b25a   Section        2  libshutdown2.o(.ARM.Collect$$libshutdown$$0000000F)
    .ARM.Collect$$rtentry$$00000000          0x0000b25c   Section        0  rtentry.o(.ARM.Collect$$rtentry$$00000000)
    .ARM.Collect$$rtentry$$00000002          0x0000b25c   Section        0  rtentry2.o(.ARM.Collect$$rtentry$$00000002)
    .ARM.Collect$$rtentry$$00000004          0x0000b25c   Section        6  rtentry4.o(.ARM.Collect$$rtentry$$00000004)
    .ARM.Collect$$rtentry$$00000009          0x0000b262   Section        0  rtentry2.o(.ARM.Collect$$rtentry$$00000009)
    .ARM.Collect$$rtentry$$0000000A          0x0000b262   Section        4  rtentry2.o(.ARM.Collect$$rtentry$$0000000A)
    .ARM.Collect$$rtentry$$0000000C          0x0000b266   Section        0  rtentry2.o(.ARM.Collect$$rtentry$$0000000C)
    .ARM.Collect$$rtentry$$0000000D          0x0000b266   Section        8  rtentry2.o(.ARM.Collect$$rtentry$$0000000D)
    .ARM.Collect$$rtexit$$00000000           0x0000b26e   Section        2  rtexit.o(.ARM.Collect$$rtexit$$00000000)
    .ARM.Collect$$rtexit$$00000002           0x0000b270   Section        0  rtexit2.o(.ARM.Collect$$rtexit$$00000002)
    .ARM.Collect$$rtexit$$00000003           0x0000b270   Section        4  rtexit2.o(.ARM.Collect$$rtexit$$00000003)
    .ARM.Collect$$rtexit$$00000004           0x0000b274   Section        6  rtexit2.o(.ARM.Collect$$rtexit$$00000004)
    .emb_text                                0x0000b27c   Section       28  mbportother.o(.emb_text)
    .emb_text                                0x0000b298   Section      340  hal_cm3.o(.emb_text)
    .emb_text                                0x0000b3ec   Section        0  maybetermalloc1.o(.emb_text)
    .text                                    0x0000b3ec   Section        0  system_lpc177x_8x.o(.text)
    .text                                    0x0000b808   Section       72  startup_lpc177x_8x.o(.text)
    .text                                    0x0000b850   Section        0  lpc177x_8x_clkpwr.o(.text)
    .text                                    0x0000b8bc   Section        0  lpc177x_8x_eeprom.o(.text)
    .text                                    0x0000bc74   Section        0  lpc177x_8x_i2c.o(.text)
    I2C_GetPointer                           0x0000bc75   Thumb Code    34  lpc177x_8x_i2c.o(.text)
    I2C_Start                                0x0000bc97   Thumb Code    32  lpc177x_8x_i2c.o(.text)
    I2C_Stop                                 0x0000bcb7   Thumb Code    22  lpc177x_8x_i2c.o(.text)
    I2C_SendByte                             0x0000bccd   Thumb Code    38  lpc177x_8x_i2c.o(.text)
    I2C_GetByte                              0x0000bcf3   Thumb Code    42  lpc177x_8x_i2c.o(.text)
    .text                                    0x0000c604   Section        0  lpc177x_8x_iap.o(.text)
    .text                                    0x0000c7d4   Section        0  lpc177x_8x_pinsel.o(.text)
    PIN_GetPointer                           0x0000c7d5   Thumb Code    18  lpc177x_8x_pinsel.o(.text)
    .text                                    0x0000ca1c   Section        0  lpc177x_8x_ssp.o(.text)
    setSSPclock                              0x0000ca1d   Thumb Code    80  lpc177x_8x_ssp.o(.text)
    .text                                    0x0000cdec   Section        0  lpc177x_8x_timer.o(.text)
    getPClock                                0x0000cded   Thumb Code    16  lpc177x_8x_timer.o(.text)
    converUSecToVal                          0x0000cdfd   Thumb Code    50  lpc177x_8x_timer.o(.text)
    converPtrToTimeNum                       0x0000ce2f   Thumb Code    46  lpc177x_8x_timer.o(.text)
    .text                                    0x0000d190   Section        0  lpc177x_8x_uart.o(.text)
    uart_set_divisors                        0x0000d191   Thumb Code   400  lpc177x_8x_uart.o(.text)
    .text                                    0x0000d9cc   Section        0  global_ex.o(.text)
    .text                                    0x0000da24   Section        0  main.o(.text)
    NVIC_SystemReset                         0x00010a85   Thumb Code    30  main.o(.text)
    .text                                    0x00010b0c   Section        0  retarget.o(.text)
    .text                                    0x00010c68   Section        0  rtc.o(.text)
    .text                                    0x00010f24   Section        0  soft_fifo.o(.text)
    .text                                    0x00010fcc   Section        0  soft_stack.o(.text)
    .text                                    0x00011044   Section        0  eeprom_high_level.o(.text)
    update_field                             0x00011753   Thumb Code   262  eeprom_high_level.o(.text)
    parse_macfile                            0x00011859   Thumb Code   310  eeprom_high_level.o(.text)
    .text                                    0x00011bc8   Section        0  emc_config.o(.text)
    TestSRAM_DRAM                            0x00011c15   Thumb Code   118  emc_config.o(.text)
    _FindDelay                               0x00011c8b   Thumb Code   154  emc_config.o(.text)
    _CalibrateOsc                            0x00011d25   Thumb Code    52  emc_config.o(.text)
    _AdjustEMCTiming                         0x00011d59   Thumb Code    74  emc_config.o(.text)
    .text                                    0x00012208   Section        0  ext_flash_low_level.o(.text)
    getGeoInfo                               0x00012243   Thumb Code    74  ext_flash_low_level.o(.text)
    check_ready_busy                         0x0001228d   Thumb Code    96  ext_flash_low_level.o(.text)
    .text                                    0x0001250c   Section        0  ext_flash_high_level.o(.text)
    .text                                    0x0001480c   Section        0  rtx_config.o(.text)
    __tagsym$$used                           0x000148fb   Number         0  rtx_config.o(.text)
    __tagsym$$used                           0x00014915   Number         0  rtx_config.o(.text)
    .text                                    0x0001497c   Section        0  rtos_main.o(.text)
    .text                                    0x00015ac8   Section        0  i2c_driver.o(.text)
    .text                                    0x00015d94   Section        0  keypad.o(.text)
    NVIC_ClearPendingIRQ                     0x000164db   Thumb Code    18  keypad.o(.text)
    .text                                    0x00016564   Section        0  usbh_ohci_lpc177x_8x.o(.text)
    .text                                    0x00016a64   Section        0  fs_usbh_msc.o(.text)
    Delay                                    0x00016a65   Thumb Code    18  fs_usbh_msc.o(.text)
    Init                                     0x00016a77   Thumb Code    96  fs_usbh_msc.o(.text)
    Init0                                    0x00016ad7   Thumb Code    14  fs_usbh_msc.o(.text)
    UnInit                                   0x00016ae5   Thumb Code    58  fs_usbh_msc.o(.text)
    UnInit0                                  0x00016b1f   Thumb Code    14  fs_usbh_msc.o(.text)
    ReadSector                               0x00016b2d   Thumb Code    28  fs_usbh_msc.o(.text)
    ReadSector0                              0x00016b49   Thumb Code    22  fs_usbh_msc.o(.text)
    WriteSector                              0x00016b5f   Thumb Code    28  fs_usbh_msc.o(.text)
    WriteSector0                             0x00016b7b   Thumb Code    22  fs_usbh_msc.o(.text)
    ReadInfo                                 0x00016b91   Thumb Code    36  fs_usbh_msc.o(.text)
    ReadInfo0                                0x00016bb5   Thumb Code    14  fs_usbh_msc.o(.text)
    DeviceCtrl                               0x00016bc3   Thumb Code    48  fs_usbh_msc.o(.text)
    DeviceCtrl0                              0x00016bf3   Thumb Code    18  fs_usbh_msc.o(.text)
    Init1                                    0x00016c05   Thumb Code    14  fs_usbh_msc.o(.text)
    UnInit1                                  0x00016c13   Thumb Code    14  fs_usbh_msc.o(.text)
    ReadSector1                              0x00016c21   Thumb Code    22  fs_usbh_msc.o(.text)
    WriteSector1                             0x00016c37   Thumb Code    22  fs_usbh_msc.o(.text)
    ReadInfo1                                0x00016c4d   Thumb Code    14  fs_usbh_msc.o(.text)
    DeviceCtrl1                              0x00016c5b   Thumb Code    18  fs_usbh_msc.o(.text)
    .text                                    0x00016c78   Section        0  usb_main.o(.text)
    sys_handler                              0x00017155   Thumb Code 16622  usb_main.o(.text)
    handler                                  0x0001eacd   Thumb Code   986  usb_main.o(.text)
    get_entry                                0x0001f1f3   Thumb Code   308  usb_main.o(.text)
    cmd_format                               0x0001f327   Thumb Code   102  usb_main.o(.text)
    .text                                    0x0001f580   Section        0  file_config.o(.text)
    .text                                    0x0001f61c   Section        0  fs_time.o(.text)
    .text                                    0x0001f698   Section        0  file_update.o(.text)
    .text                                    0x00021364   Section        0  plant_connect.o(.text)
    .text                                    0x00021a88   Section        0  gui_x_rtx.o(.text)
    .text                                    0x00021bac   Section        0  guiconf.o(.text)
    .text                                    0x00021bc4   Section        0  lcdconf.o(.text)
    _FindClockDivisor                        0x00021bc5   Thumb Code    52  lcdconf.o(.text)
    _InitLCDPorts                            0x00021bf9   Thumb Code   170  lcdconf.o(.text)
    _InitLCDC                                0x00021ca3   Thumb Code   124  lcdconf.o(.text)
    _InitLCD                                 0x00021d1f   Thumb Code    12  lcdconf.o(.text)
    _InitController                          0x00021d2b   Thumb Code    44  lcdconf.o(.text)
    _CopyBuffer                              0x00021d57   Thumb Code    38  lcdconf.o(.text)
    .text                                    0x00021ea4   Section        0  screen_common_func.o(.text)
    .text                                    0x0002508c   Section        0  display_task.o(.text)
    init_Scale_setup_var                     0x0002508d   Thumb Code   128  display_task.o(.text)
    init_Calibration_var                     0x0002510d   Thumb Code    58  display_task.o(.text)
    init_Setup_device_var                    0x00025147   Thumb Code   566  display_task.o(.text)
    init_Admin_var                           0x0002537d   Thumb Code   564  display_task.o(.text)
    .text                                    0x00026aa0   Section        0  screen1.o(.text)
    callback_screen1                         0x00026aa1   Thumb Code   600  screen1.o(.text)
    .text                                    0x00026e70   Section        0  screen2.o(.text)
    callback_screen2                         0x00026e71   Thumb Code  1402  screen2.o(.text)
    .text                                    0x00027728   Section        0  screen3.o(.text)
    callback_screen3                         0x00027729   Thumb Code  2958  screen3.o(.text)
    .text                                    0x000286d4   Section        0  screen4.o(.text)
    callback_screen4                         0x000286d5   Thumb Code   762  screen4.o(.text)
    .text                                    0x00028d7c   Section        0  screen5.o(.text)
    callback_screen5                         0x00028d7d   Thumb Code  8090  screen5.o(.text)
    .text                                    0x0002af38   Section        0  screen6.o(.text)
    backDoorPass                             0x0002af39   Thumb Code   200  screen6.o(.text)
    callback_screen6                         0x0002b001   Thumb Code  2132  screen6.o(.text)
    .text                                    0x0002ba04   Section        0  screen9.o(.text)
    callback_screen9                         0x0002ba05   Thumb Code  1820  screen9.o(.text)
    .text                                    0x0002c428   Section        0  screen10.o(.text)
    callback_screen10                        0x0002c429   Thumb Code  1818  screen10.o(.text)
    .text                                    0x0002ce1c   Section        0  weight_rate_run_mode_screen.o(.text)
    .text                                    0x0002db88   Section        0  load_out_run_mode_screen.o(.text)
    callback_screen_loadout                  0x0002db89   Thumb Code   898  load_out_run_mode_screen.o(.text)
    .text                                    0x0002e9c4   Section        0  blending_rate_load_ctrl_run_mode_screen.o(.text)
    callback_scrn_blending_load_rate_ctrl    0x0002e9c5   Thumb Code   572  blending_rate_load_ctrl_run_mode_screen.o(.text)
    .text                                    0x0002f3c0   Section        0  firmware_upgrade.o(.text)
    .text                                    0x0002fc74   Section        0  net_config.o(.text)
    .text                                    0x0002fd94   Section        0  emac_lpc177x_8x.o(.text)
    tx_descr_init                            0x0002fd95   Thumb Code    74  emac_lpc177x_8x.o(.text)
    rx_descr_init                            0x0002fddf   Thumb Code    82  emac_lpc177x_8x.o(.text)
    write_PHY                                0x0002fe67   Thumb Code    40  emac_lpc177x_8x.o(.text)
    .text                                    0x00030248   Section        0  ftp_uif.o(.text)
    .text                                    0x000304a8   Section        0  telnet_uif.o(.text)
    .text                                    0x00030ad0   Section        0  modbus_rtu_master.o(.text)
    .text                                    0x000313d4   Section        0  modbus_rtu_slave.o(.text)
    rtu_read_write_register                  0x000313d5   Thumb Code    58  modbus_rtu_slave.o(.text)
    rtu_read_input_register                  0x0003140f   Thumb Code    24  modbus_rtu_slave.o(.text)
    .text                                    0x00031650   Section        0  modbus_tcp.o(.text)
    tcp_read_write_coil                      0x0003179b   Thumb Code  2044  modbus_tcp.o(.text)
    tcp_read_input_reg                       0x00031f97   Thumb Code   518  modbus_tcp.o(.text)
    tcp_read_write_holding_reg               0x000322a5   Thumb Code  2892  modbus_tcp.o(.text)
    .text                                    0x000330b8   Section        0  mbportevent.o(.text)
    .text                                    0x000331c4   Section        0  mbportother.o(.text)
    .text                                    0x00033200   Section        0  mbportserial.o(.text)
    .text                                    0x0003358c   Section        0  mbporttimer.o(.text)
    .text                                    0x0003379c   Section        0  mbporttcp.o(.text)
    vMBTCPClientHandleReset                  0x0003379d   Thumb Code   170  mbporttcp.o(.text)
    vMBTCPCommonHandleReset                  0x00033c9d   Thumb Code    16  mbporttcp.o(.text)
    vMBTCPSlaveHandleReset                   0x00033cad   Thumb Code    66  mbporttcp.o(.text)
    vMBPTCPInit                              0x00033cef   Thumb Code    54  mbporttcp.o(.text)
    .text                                    0x000340b4   Section        0  mbutils.o(.text)
    .text                                    0x0003413c   Section        0  timer_matchinterrupt.o(.text)
    .text                                    0x000341d4   Section        0  modbus_uart_low_level.o(.text)
    NVIC_SetPriority                         0x000341d5   Thumb Code    32  modbus_uart_low_level.o(.text)
    NVIC_EnableIRQ                           0x00034369   Thumb Code    24  modbus_uart_low_level.o(.text)
    .text                                    0x00034394   Section        0  mbs.o(.text)
    vMBSResetHdl                             0x000343bb   Thumb Code    96  mbs.o(.text)
    eMBSReleaseHdl                           0x0003441b   Thumb Code    98  mbs.o(.text)
    pxMBSGetNewHdl                           0x0003447d   Thumb Code   158  mbs.o(.text)
    .text                                    0x00034ae8   Section        0  mbsrtu.o(.text)
    eMBSSerialRTUFrameCloseInternal          0x00034ae9   Thumb Code   212  mbsrtu.o(.text)
    vMBPSerialReceiverAPIV1CB                0x00034bbd   Thumb Code   172  mbsrtu.o(.text)
    eMBSSerialRTUFrameClose                  0x00034c69   Thumb Code    28  mbsrtu.o(.text)
    eMBSSerialRTUFrameReceive                0x00034c85   Thumb Code   102  mbsrtu.o(.text)
    bMBSSerialTransmitterEmptyAPIV1CB        0x00034ceb   Thumb Code   178  mbsrtu.o(.text)
    eMBSSerialRTUFrameSend                   0x00034d9d   Thumb Code   230  mbsrtu.o(.text)
    bMBSSerialRTUT35CB                       0x00034e83   Thumb Code   118  mbsrtu.o(.text)
    .text                                    0x000350c8   Section        0  mbscrc.o(.text)
    .text                                    0x00035100   Section        0  mbstcp.o(.text)
    vMBSTCPResetClientHdl                    0x00035101   Thumb Code    44  mbstcp.o(.text)
    vMBSTCPResetHdl                          0x0003512d   Thumb Code   108  mbstcp.o(.text)
    eMBSTCPFrameClose                        0x00035199   Thumb Code    72  mbstcp.o(.text)
    eMBSTCPFrameReceive                      0x000351e1   Thumb Code   226  mbstcp.o(.text)
    eMBSTCPFrameSend                         0x000352c3   Thumb Code   252  mbstcp.o(.text)
    eMBPTCPClientConnectedCB                 0x000353bf   Thumb Code   154  mbstcp.o(.text)
    eMBPTCPClientDisconnectedCB              0x00035459   Thumb Code   152  mbstcp.o(.text)
    eMBPTCPClientNewDataCB                   0x000354f1   Thumb Code   446  mbstcp.o(.text)
    .text                                    0x000357c8   Section        0  mbsfuncholding.o(.text)
    .text                                    0x000358b4   Section        0  mbsfunccoils.o(.text)
    .text                                    0x00035a58   Section        0  mbm.o(.text)
    eMBMReleaseHdl                           0x00035a71   Thumb Code   150  mbm.o(.text)
    bMBMResponseTimeoutCB                    0x00035b07   Thumb Code    38  mbm.o(.text)
    pxMBMGetNewHdl                           0x00035b2d   Thumb Code   214  mbm.o(.text)
    .text                                    0x00035ddc   Section        0  mbmcrc.o(.text)
    .text                                    0x00035e14   Section        0  mbmrtu.o(.text)
    eMBMSerialRTUFrameCloseInternal          0x00035e15   Thumb Code   228  mbmrtu.o(.text)
    eMBMSerialRTUFrameClose                  0x00035ef9   Thumb Code    20  mbmrtu.o(.text)
    eMBMSerialRTUFrameReceive                0x00035f0d   Thumb Code   208  mbmrtu.o(.text)
    bMBMSerialRTUTransmitterEmptyAPIV1CB     0x00035fdd   Thumb Code   232  mbmrtu.o(.text)
    eMBMSerialRTUFrameSend                   0x000360c5   Thumb Code   216  mbmrtu.o(.text)
    bMBMSerialRTUReceiverAPIV1CB             0x0003619d   Thumb Code   190  mbmrtu.o(.text)
    bMBMSerialWaitCB                         0x0003625b   Thumb Code    66  mbmrtu.o(.text)
    bMBMSerialRTUT35CB                       0x0003629d   Thumb Code   146  mbmrtu.o(.text)
    .text                                    0x00036518   Section        0  mbmfuncholding.o(.text)
    .text                                    0x000366a6   Section        0  mbmfuncinput.o(.text)
    .text                                    0x00036810   Section        0  sensor_board_data_process.o(.text)
    .text                                    0x00037d04   Section        0  conversion_functions.o(.text)
    .text                                    0x00038ea4   Section        0  calibration.o(.text)
    .text                                    0x0003a02c   Section        0  log_report_data_calculate.o(.text)
    .text                                    0x0003c268   Section        0  rate_blending_load_ctrl_calc.o(.text)
    Decrement_Timer                          0x0003c269   Thumb Code    54  rate_blending_load_ctrl_calc.o(.text)
    common_calc_rate_blending_load_ctrl      0x0003c29f   Thumb Code  1660  rate_blending_load_ctrl_calc.o(.text)
    .text                                    0x0003ca1c   Section        0  ioboard_app.o(.text)
    .text                                    0x0003d6d0   Section        0  ioboard_drv.o(.text)
    .text                                    0x0003d8e0   Section        0  ioprocessing.o(.text)
    .text                                    0x0003e6d8   Section        0  printer_low_level.o(.text)
    buffer_remove                            0x0003e6d9   Thumb Code    52  printer_low_level.o(.text)
    buffer_empty                             0x0003e70d   Thumb Code    10  printer_low_level.o(.text)
    buffer_length                            0x0003e717   Thumb Code    54  printer_low_level.o(.text)
    buffer_insert                            0x0003e74d   Thumb Code    50  printer_low_level.o(.text)
    buffer_full                              0x0003e77f   Thumb Code    10  printer_low_level.o(.text)
    buffer_init                              0x0003e8a9   Thumb Code    30  printer_low_level.o(.text)
    buffered_putch                           0x0003e909   Thumb Code    36  printer_low_level.o(.text)
    handle_rx_xon                            0x0003e92d   Thumb Code    66  printer_low_level.o(.text)
    buffered_getch                           0x0003e96f   Thumb Code    30  printer_low_level.o(.text)
    .text                                    0x0003e9f4   Section        0  printer_high_level.o(.text)
    .text                                    0x0003fcc4   Section        0  scoreboard.o(.text)
    .text                                    0x0004072c   Section        0  screenshot_bmp.o(.text)
    _WriteByte2File                          0x0004072d   Thumb Code    20  screenshot_bmp.o(.text)
    _ExportToFile                            0x00040741   Thumb Code   234  screenshot_bmp.o(.text)
    .text                                    0x00040888   Section        0  mvt.o(.text)
    .text                                    0x0004232c   Section        0  mvt_totals.o(.text)
    .text                                    0x00042d50   Section        0  ini.o(.text)
    rstrip                                   0x00042d51   Thumb Code    46  ini.o(.text)
    lskip                                    0x00042d7f   Thumb Code    32  ini.o(.text)
    find_chars_or_comment                    0x00042d9f   Thumb Code    62  ini.o(.text)
    strncpy0                                 0x00042ddd   Thumb Code    28  ini.o(.text)
    .text                                    0x00042f74   Section        0  wdt.o(.text)
    .text                                    0x00043054   Section        8  libspace.o(.text)
    .text                                    0x0004305c   Section        2  use_no_semi.o(.text)
    .text                                    0x00043060   Section       16  rt_ctype_table.o(.text)
    .text                                    0x00043070   Section        0  h1_alloc_mt.o(.text)
    Heap1_SizeAdjust                         0x00043071   Thumb Code     8  h1_alloc_mt.o(.text)
    .text                                    0x0004310e   Section        0  h1_free_mt.o(.text)
    .text                                    0x00043184   Section      238  lludivv7m.o(.text)
    .text                                    0x00043272   Section        0  toupper.o(.text)
    .text                                    0x00043290   Section        0  c89sprintf.o(.text)
    .text                                    0x000432bc   Section        0  __2printf.o(.text)
    .text                                    0x000432d4   Section        0  __2fprintf.o(.text)
    .text                                    0x000432e8   Section        0  __2sprintf.o(.text)
    .text                                    0x00043314   Section        0  _printf_pad.o(.text)
    .text                                    0x00043366   Section        0  _printf_str.o(.text)
    .text                                    0x000433b8   Section        0  _printf_dec.o(.text)
    .text                                    0x00043430   Section        0  _printf_charcount.o(.text)
    .text                                    0x0004345c   Section        0  _printf_hex_int_ll_ptr.o(.text)
    _printf_hex_common                       0x0004345d   Thumb Code     0  _printf_hex_int_ll_ptr.o(.text)
    .text                                    0x000434f8   Section        0  __printf_flags_ss_wp.o(.text)
    .text                                    0x00043684   Section        0  __0fscanf.o(.text)
    .text                                    0x0004369c   Section        0  __0sscanf.o(.text)
    .text                                    0x000436d8   Section        0  _scanf_int.o(.text)
    .text                                    0x00043828   Section        0  atoi.o(.text)
    .text                                    0x00043842   Section        0  strtoll.o(.text)
    .text                                    0x00043848   Section        0  fseek.o(.text)
    .text                                    0x00043940   Section        0  ftell.o(.text)
    .text                                    0x00043986   Section        0  rewind.o(.text)
    .text                                    0x0004399c   Section        0  fclose.o(.text)
    .text                                    0x000439e8   Section        0  fgetc_locked.o(.text)
    .text                                    0x00043a08   Section        0  ftell_locked.o(.text)
    .text                                    0x00043a28   Section        0  fclose_locked.o(.text)
    .text                                    0x00043a5c   Section        0  fseek_locked.o(.text)
    .text                                    0x00043a88   Section        0  feof_locked.o(.text)
    .text                                    0x00043aa6   Section        0  ferror_locked.o(.text)
    .text                                    0x00043ac4   Section        0  fflush_locked.o(.text)
    .text                                    0x00043b54   Section        0  fopen_locked.o(.text)
    _freopen_locked                          0x00043b55   Thumb Code   174  fopen_locked.o(.text)
    .text                                    0x00043c98   Section        0  qsortnoex.o(.text)
    _partition_sort                          0x00043c99   Thumb Code   478  qsortnoex.o(.text)
    .text                                    0x00043efc   Section        0  strtok.o(.text)
    .text                                    0x00043f08   Section        0  strchr.o(.text)
    .text                                    0x00043f1c   Section        0  strcpy.o(.text)
    .text                                    0x00043f64   Section        0  strcasecmp.o(.text)
    .text                                    0x00043f8e   Section        0  strrchr.o(.text)
    .text                                    0x00043fa4   Section        0  strlen.o(.text)
    .text                                    0x00043fe2   Section        0  strncmp.o(.text)
    .text                                    0x00044078   Section        0  strcat.o(.text)
    .text                                    0x00044090   Section      138  rt_memcpy_v6.o(.text)
    .text                                    0x0004411a   Section      132  rt_memmove_v6.o(.text)
    .text                                    0x0004419e   Section      100  rt_memcpy_w.o(.text)
    .text                                    0x00044202   Section       16  aeabi_memset.o(.text)
    .text                                    0x00044212   Section       68  rt_memclr.o(.text)
    .text                                    0x00044256   Section       78  rt_memclr_w.o(.text)
    .text                                    0x000442a4   Section       86  strncpy.o(.text)
    .text                                    0x000442fc   Section      128  strcmpv7m.o(.text)
    .text                                    0x0004437c   Section        0  heapauxi.o(.text)
    .text                                    0x00044382   Section       10  rt_heap_descriptor_twolibspace.o(.text)
    .text                                    0x0004438c   Section       10  rt_locale_twolibspace.o(.text)
    .text                                    0x00044396   Section        4  rt_errno_addr_twolibspace.o(.text)
    .text                                    0x0004439a   Section        0  hguard.o(.text)
    .text                                    0x0004439e   Section        0  init_alloc.o(.text)
    .text                                    0x00044428   Section        0  h1_init_mt.o(.text)
    .text                                    0x0004443a   Section        0  _rserrno.o(.text)
    .text                                    0x00044450   Section        0  tolower.o(.text)
    .text                                    0x0004446a   Section        0  _printf_truncate.o(.text)
    .text                                    0x0004448e   Section        0  _printf_intcommon.o(.text)
    .text                                    0x00044546   Section        0  _printf_fp_dec.o(.text)
    _fp_digits                               0x00044549   Thumb Code   426  _printf_fp_dec.o(.text)
    .text                                    0x00044968   Section        0  _printf_char_common.o(.text)
    _printf_input_char                       0x00044969   Thumb Code    10  _printf_char_common.o(.text)
    .text                                    0x00044998   Section        0  _sputc.o(.text)
    .text                                    0x000449a2   Section        0  _printf_char.o(.text)
    .text                                    0x000449d0   Section        0  _printf_wctomb.o(.text)
    .text                                    0x00044a8c   Section        0  _printf_longlong_dec.o(.text)
    .text                                    0x00044b04   Section        0  _printf_oct_int_ll.o(.text)
    _printf_longlong_oct_internal            0x00044b05   Thumb Code     0  _printf_oct_int_ll.o(.text)
    .text                                    0x00044b7c   Section        0  _chval.o(.text)
    .text                                    0x00044b98   Section        0  scanf_fp.o(.text)
    _fp_value                                0x00044b99   Thumb Code   504  scanf_fp.o(.text)
    .text                                    0x0004503c   Section        0  scanf_char.o(.text)
    _scanf_char_input                        0x0004503d   Thumb Code    12  scanf_char.o(.text)
    .text                                    0x00045068   Section        0  _sgetc.o(.text)
    .text                                    0x000450a8   Section        0  strtod.o(.text)
    _local_sscanf                            0x000450a9   Thumb Code    60  strtod.o(.text)
    .text                                    0x00045148   Section        0  strtol.o(.text)
    .text                                    0x000451b8   Section        0  __strtoll.o(.text)
    .text                                    0x00045244   Section        0  filbuf.o(.text)
    .text                                    0x00045484   Section        0  stdio.o(.text)
    .text                                    0x00045574   Section        0  clearerr_locked.o(.text)
    .text                                    0x00045594   Section        0  initio_locked.o(.text)
    .text                                    0x0004575c   Section        0  strtok_int.o(.text)
    .text                                    0x000457a0   Section      122  rt_memmove_w.o(.text)
    .text                                    0x0004581a   Section        0  h1_extend_mt.o(.text)
    .text                                    0x00045858   Section      138  lludiv10.o(.text)
    .text                                    0x000458e2   Section        0  isspace.o(.text)
    .text                                    0x000458f4   Section        0  _printf_fp_infnan.o(.text)
    .text                                    0x00045974   Section        0  _printf_wchar.o(.text)
    .text                                    0x000459a0   Section        0  _scanf.o(.text)
    .text                                    0x00045d10   Section        0  scanf_char_file_locked.o(.text)
    .text                                    0x00045d50   Section        0  _strtoul.o(.text)
    .text                                    0x00045dee   Section        0  _strtoull.o(.text)
    .text                                    0x00045eb0   Section        0  bigflt0.o(.text)
    .text                                    0x00045f94   Section        0  backspace.o(.text)
    .text                                    0x00045fdc   Section        0  flsbuf.o(.text)
    .text                                    0x000461ba   Section        0  fgets_locked.o(.text)
    .text                                    0x00046210   Section        0  setvbuf_locked.o(.text)
    .text                                    0x00046278   Section        0  freadfast_locked.o(.text)
    .text                                    0x000463b0   Section        0  flushlinebuffered_locked.o(.text)
    .text                                    0x0004640c   Section        0  _wcrtomb.o(.text)
    .text                                    0x0004644c   Section        0  defsig_rtred_outer.o(.text)
    .text                                    0x0004645a   Section        0  defsig_rtmem_outer.o(.text)
    .text                                    0x00046468   Section        0  strcspn.o(.text)
    .text                                    0x00046488   Section        0  strspn.o(.text)
    .text                                    0x000464a4   Section       74  sys_stackheap_outer.o(.text)
    .text                                    0x000464f0   Section        0  _printf_char_file_locked.o(.text)
    .text                                    0x00046530   Section        0  scanf_hexfp.o(.text)
    .text                                    0x00046844   Section        0  scanf_infnan.o(.text)
    .text                                    0x00046980   Section        0  ungetc.o(.text)
    .text                                    0x000469c8   Section        0  fputs_locked.o(.text)
    .text                                    0x000469fe   Section        0  fwritefast_locked.o(.text)
    .text                                    0x00046ad2   Section        0  exit.o(.text)
    .text                                    0x00046ade   Section        0  defsig_exit.o(.text)
    .text                                    0x00046ae8   Section        0  defsig_rtred_inner.o(.text)
    .text                                    0x00046b1c   Section        0  defsig_rtmem_inner.o(.text)
    .text                                    0x00046b6c   Section       38  llshl.o(.text)
    .text                                    0x00046b92   Section        0  defsig_general.o(.text)
    CL$$btod_d2e                             0x00046bc4   Section       62  btod.o(CL$$btod_d2e)
    CL$$btod_d2e_denorm_low                  0x00046c02   Section       70  btod.o(CL$$btod_d2e_denorm_low)
    CL$$btod_d2e_norm_op1                    0x00046c48   Section       96  btod.o(CL$$btod_d2e_norm_op1)
    CL$$btod_div_common                      0x00046ca8   Section      824  btod.o(CL$$btod_div_common)
    CL$$btod_e2d                             0x00046fe0   Section       84  btod.o(CL$$btod_e2d)
    CL$$btod_e2e                             0x00047034   Section      198  btod.o(CL$$btod_e2e)
    CL$$btod_ediv                            0x000470fa   Section       40  btod.o(CL$$btod_ediv)
    CL$$btod_edivd                           0x00047122   Section       40  btod.o(CL$$btod_edivd)
    CL$$btod_emul                            0x0004714a   Section       40  btod.o(CL$$btod_emul)
    CL$$btod_emuld                           0x00047172   Section       40  btod.o(CL$$btod_emuld)
    CL$$btod_mult_common                     0x0004719a   Section      580  btod.o(CL$$btod_mult_common)
    SVC_TABLE                                0x000473e0   Section        4  SVC_Table.o(SVC_TABLE)
    i.Abs                                    0x00047416   Section        0  gui_drawline.o(i.Abs)
    Abs                                      0x00047417   Thumb Code     8  gui_drawline.o(i.Abs)
    i.BUTTON_Callback                        0x00047420   Section        0  button.o(i.BUTTON_Callback)
    i.BUTTON_CreateIndirect                  0x000474fc   Section        0  button_createindirect.o(i.BUTTON_CreateIndirect)
    i.BUTTON_CreateUser                      0x00047540   Section        0  button.o(i.BUTTON_CreateUser)
    i.BUTTON_GetFont                         0x000475bc   Section        0  button_get.o(i.BUTTON_GetFont)
    i.BUTTON_GetText                         0x000475e2   Section        0  button_get.o(i.BUTTON_GetText)
    i.BUTTON_SetBitmapEx                     0x00047638   Section        0  button_bitmap.o(i.BUTTON_SetBitmapEx)
    i.BUTTON_SetBkColor                      0x00047658   Section        0  button_color.o(i.BUTTON_SetBkColor)
    i.BUTTON_SetFocusColor                   0x0004768a   Section        0  button_setfocuscolor.o(i.BUTTON_SetFocusColor)
    i.BUTTON_SetFocussable                   0x000476c0   Section        0  button.o(i.BUTTON_SetFocussable)
    i.BUTTON_SetFont                         0x000476d0   Section        0  button.o(i.BUTTON_SetFont)
    i.BUTTON_SetPressed                      0x000476f8   Section        0  button.o(i.BUTTON_SetPressed)
    i.BUTTON_SetText                         0x0004770a   Section        0  button.o(i.BUTTON_SetText)
    i.BUTTON_SetTextColor                    0x00047764   Section        0  button_color.o(i.BUTTON_SetTextColor)
    i.BUTTON__SetDrawObj                     0x00047796   Section        0  button__setbitmapobj.o(i.BUTTON__SetDrawObj)
    i.CL_DispChar                            0x000477d4   Section        0  gui_dispchar.o(i.CL_DispChar)
    CL_DispChar                              0x000477d5   Thumb Code   126  gui_dispchar.o(i.CL_DispChar)
    i.CheckJSect                             0x00047858   Section        0  fs_journal.o(i.CheckJSect)
    CheckJSect                               0x00047859   Thumb Code    80  fs_journal.o(i.CheckJSect)
    i.CheckJourn                             0x000478ac   Section        0  fs_journal.o(i.CheckJourn)
    CheckJourn                               0x000478ad   Thumb Code   220  fs_journal.o(i.CheckJourn)
    i.EDIT_AddKey                            0x00047988   Section        0  edit.o(i.EDIT_AddKey)
    i.EDIT_Callback                          0x00047aa0   Section        0  edit.o(i.EDIT_Callback)
    i.EDIT_CreateIndirect                    0x00047b68   Section        0  edit_createindirect.o(i.EDIT_CreateIndirect)
    i.EDIT_CreateUser                        0x00047bb4   Section        0  edit.o(i.EDIT_CreateUser)
    i.EDIT_EnableBlink                       0x00047c4c   Section        0  edit_enableblink.o(i.EDIT_EnableBlink)
    i.EDIT_GetCursorCharPos                  0x00047c9c   Section        0  edit_getcursorpos.o(i.EDIT_GetCursorCharPos)
    i.EDIT_GetText                           0x00047cc2   Section        0  edit.o(i.EDIT_GetText)
    i.EDIT_SetBkColor                        0x00047d22   Section        0  edit.o(i.EDIT_SetBkColor)
    i.EDIT_SetCursorAtChar                   0x00047d56   Section        0  edit_setcursoratchar.o(i.EDIT_SetCursorAtChar)
    i.EDIT_SetCursorAtPixel                  0x00047d78   Section        0  edit.o(i.EDIT_SetCursorAtPixel)
    i.EDIT_SetFocussable                     0x00047e36   Section        0  edit_setfocussable.o(i.EDIT_SetFocussable)
    i.EDIT_SetFont                           0x00047e46   Section        0  edit.o(i.EDIT_SetFont)
    i.EDIT_SetInsertMode                     0x00047e70   Section        0  edit_setinsertmode.o(i.EDIT_SetInsertMode)
    i.EDIT_SetMaxLen                         0x00047ea6   Section        0  edit.o(i.EDIT_SetMaxLen)
    i.EDIT_SetText                           0x00047f18   Section        0  edit.o(i.EDIT_SetText)
    i.EDIT_SetTextAlign                      0x00047fe2   Section        0  edit.o(i.EDIT_SetTextAlign)
    i.EDIT_SetTextColor                      0x0004800c   Section        0  edit.o(i.EDIT_SetTextColor)
    i.EDIT__SetCursorPos                     0x00048040   Section        0  edit.o(i.EDIT__SetCursorPos)
    i.GL_DispChar                            0x00048094   Section        0  gui_char.o(i.GL_DispChar)
    i.GL_DrawBitmap                          0x000480d4   Section        0  gui_drawbitmap.o(i.GL_DrawBitmap)
    i.GL_DrawLine                            0x00048160   Section        0  gui_drawline.o(i.GL_DrawLine)
    i.GL_DrawLine1Ex                         0x00048170   Section        0  gui_drawline.o(i.GL_DrawLine1Ex)
    i.GL_DrawLineEx                          0x00048330   Section        0  gui_drawline.o(i.GL_DrawLineEx)
    i.GL_DrawPoint                           0x00048438   Section        0  gui_drawpoint.o(i.GL_DrawPoint)
    i.GL_FillCircle                          0x00048458   Section        0  gui_circ.o(i.GL_FillCircle)
    i.GL_FillPolygon                         0x00048504   Section        0  gui_fillpolygon.o(i.GL_FillPolygon)
    i.GL_SetDefault                          0x000486dc   Section        0  gui_setdefault.o(i.GL_SetDefault)
    i.GUIMONO_DispChar                       0x0004871c   Section        0  gui_charm.o(i.GUIMONO_DispChar)
    i.GUIMONO_GetCharDistX                   0x00048850   Section        0  gui_charm.o(i.GUIMONO_GetCharDistX)
    i.GUIMONO_GetFontInfo                    0x00048864   Section        0  gui_charm.o(i.GUIMONO_GetFontInfo)
    i.GUIMONO_IsInFont                       0x0004886a   Section        0  gui_charm.o(i.GUIMONO_IsInFont)
    i.GUIPROP_DispChar                       0x000488a4   Section        0  gui_charp.o(i.GUIPROP_DispChar)
    i.GUIPROP_EXT_DispChar                   0x00048968   Section        0  gui_charpext.o(i.GUIPROP_EXT_DispChar)
    i.GUIPROP_EXT_GetCharDistX               0x00048a04   Section        0  gui_charpext.o(i.GUIPROP_EXT_GetCharDistX)
    i.GUIPROP_EXT_GetCharInfo                0x00048a44   Section        0  gui_charpext.o(i.GUIPROP_EXT_GetCharInfo)
    i.GUIPROP_EXT_GetFontInfo                0x00048a80   Section        0  gui_charpext.o(i.GUIPROP_EXT_GetFontInfo)
    i.GUIPROP_EXT_IsInFont                   0x00048a86   Section        0  gui_charpext.o(i.GUIPROP_EXT_IsInFont)
    i.GUIPROP_EXT__ClearLine                 0x00048a98   Section        0  gui_encext.o(i.GUIPROP_EXT__ClearLine)
    i.GUIPROP_EXT__DispLine                  0x00048b44   Section        0  gui_encext.o(i.GUIPROP_EXT__DispLine)
    i.GUIPROP_EXT__FindChar                  0x00048b80   Section        0  gui_charpext.o(i.GUIPROP_EXT__FindChar)
    i.GUIPROP_GetCharDistX                   0x00048b98   Section        0  gui_charp.o(i.GUIPROP_GetCharDistX)
    i.GUIPROP_GetFontInfo                    0x00048bd4   Section        0  gui_charp.o(i.GUIPROP_GetFontInfo)
    i.GUIPROP_IsInFont                       0x00048bda   Section        0  gui_charp.o(i.GUIPROP_IsInFont)
    i.GUIPROP__FindChar                      0x00048bea   Section        0  gui_charp.o(i.GUIPROP__FindChar)
    i.GUITASK_CopyContext                    0x00048c00   Section        0  gui_task.o(i.GUITASK_CopyContext)
    i.GUITASK_Init                           0x00048c40   Section        0  gui_task.o(i.GUITASK_Init)
    i.GUI_ALLOC_AllocInit                    0x00048c84   Section        0  gui_alloc_allocinit.o(i.GUI_ALLOC_AllocInit)
    i.GUI_ALLOC_AllocNoInit                  0x00048cc4   Section        0  gui_alloc.o(i.GUI_ALLOC_AllocNoInit)
    i.GUI_ALLOC_AllocZero                    0x00048ce2   Section        0  gui_alloc_alloczero.o(i.GUI_ALLOC_AllocZero)
    i.GUI_ALLOC_AssignMemory                 0x00048d10   Section        0  gui_alloc.o(i.GUI_ALLOC_AssignMemory)
    i.GUI_ALLOC_Free                         0x00048d20   Section        0  gui_alloc.o(i.GUI_ALLOC_Free)
    i.GUI_ALLOC_FreeFixedBlock               0x00048d5c   Section        0  gui_alloc.o(i.GUI_ALLOC_FreeFixedBlock)
    i.GUI_ALLOC_FreePtr                      0x00048d74   Section        0  gui_alloc.o(i.GUI_ALLOC_FreePtr)
    i.GUI_ALLOC_FreePtrArray                 0x00048d90   Section        0  gui_alloc.o(i.GUI_ALLOC_FreePtrArray)
    i.GUI_ALLOC_GetFixedBlock                0x00048dac   Section        0  gui_alloc.o(i.GUI_ALLOC_GetFixedBlock)
    i.GUI_ALLOC_GetMaxSize                   0x00048e64   Section        0  gui_alloc.o(i.GUI_ALLOC_GetMaxSize)
    i.GUI_ALLOC_GetNumUsedBytes              0x00048ea4   Section        0  gui_alloc.o(i.GUI_ALLOC_GetNumUsedBytes)
    i.GUI_ALLOC_GetSize                      0x00048eb4   Section        0  gui_alloc.o(i.GUI_ALLOC_GetSize)
    i.GUI_ALLOC_Lock                         0x00048ed0   Section        0  gui_alloc.o(i.GUI_ALLOC_Lock)
    i.GUI_ALLOC_LockH                        0x00048ee0   Section        0  gui_alloc.o(i.GUI_ALLOC_LockH)
    i.GUI_ALLOC_Realloc                      0x00048efc   Section        0  gui_realloc.o(i.GUI_ALLOC_Realloc)
    i.GUI_ALLOC_RequestSize                  0x00048f54   Section        0  gui_alloc.o(i.GUI_ALLOC_RequestSize)
    i.GUI_ALLOC_SetAvBlockSize               0x00048f88   Section        0  gui_alloc.o(i.GUI_ALLOC_SetAvBlockSize)
    i.GUI_ALLOC_Unlock                       0x00048fa4   Section        0  gui_alloc.o(i.GUI_ALLOC_Unlock)
    i.GUI_ALLOC_UnlockH                      0x00048fb4   Section        0  gui_alloc.o(i.GUI_ALLOC_UnlockH)
    i.GUI_ALLOC_h2p                          0x00048fe4   Section        0  gui_alloc.o(i.GUI_ALLOC_h2p)
    i.GUI_ARRAY_AddItem                      0x00048ffc   Section        0  gui_array.o(i.GUI_ARRAY_AddItem)
    i.GUI_ARRAY_Create                       0x00049076   Section        0  gui_array.o(i.GUI_ARRAY_Create)
    i.GUI_ARRAY_Delete                       0x0004907c   Section        0  gui_array.o(i.GUI_ARRAY_Delete)
    i.GUI_ARRAY_GetNumItems                  0x000490cc   Section        0  gui_array.o(i.GUI_ARRAY_GetNumItems)
    i.GUI_ARRAY_GethItem                     0x000490e4   Section        0  gui_array.o(i.GUI_ARRAY_GethItem)
    i.GUI_ARRAY_GetpItemLocked               0x00049104   Section        0  gui_array.o(i.GUI_ARRAY_GetpItemLocked)
    i.GUI_ARRAY__GethItem                    0x00049124   Section        0  gui_array.o(i.GUI_ARRAY__GethItem)
    i.GUI_ARRAY__GetpItemLocked              0x00049148   Section        0  gui_array.o(i.GUI_ARRAY__GetpItemLocked)
    i.GUI_AddDecMin                          0x0004915c   Section        0  gui_adddecmin.o(i.GUI_AddDecMin)
    i.GUI_AddDecShift                        0x00049178   Section        0  gui_adddecshift.o(i.GUI_AddDecShift)
    i.GUI_BMP_Serialize                      0x00049204   Section        0  gui_bmp_serialize.o(i.GUI_BMP_Serialize)
    i.GUI_BMP_SerializeEx                    0x00049226   Section        0  gui_bmp_serialize.o(i.GUI_BMP_SerializeEx)
    i.GUI_CalcColorDist                      0x000493c4   Section        0  gui_calccolordist.o(i.GUI_CalcColorDist)
    i.GUI_Clear                              0x00049408   Section        0  gui_core.o(i.GUI_Clear)
    i.GUI_ClearKeyBuffer                     0x00049424   Section        0  gui_onkey.o(i.GUI_ClearKeyBuffer)
    i.GUI_ClearRect                          0x00049448   Section        0  gui_core.o(i.GUI_ClearRect)
    i.GUI_ClearRectEx                        0x000494ac   Section        0  gui_clearrectex.o(i.GUI_ClearRectEx)
    i.GUI_CreateDialogBox                    0x000494c0   Section        0  dialog.o(i.GUI_CreateDialogBox)
    i.GUI_DEVICE_Create                      0x0004954c   Section        0  gui_device.o(i.GUI_DEVICE_Create)
    i.GUI_DEVICE_CreateAndLink               0x000495a0   Section        0  gui_device.o(i.GUI_DEVICE_CreateAndLink)
    i.GUI_DEVICE_Delete                      0x000495c8   Section        0  gui_device.o(i.GUI_DEVICE_Delete)
    i.GUI_DEVICE_Link                        0x000495cc   Section        0  gui_device.o(i.GUI_DEVICE_Link)
    i.GUI_DEVICE_Unlink                      0x0004964c   Section        0  gui_device.o(i.GUI_DEVICE_Unlink)
    i.GUI_DEVICE__GetpDevice                 0x0004967c   Section        0  gui_device.o(i.GUI_DEVICE__GetpDevice)
    i.GUI_DEVICE__GetpDriver                 0x000496a4   Section        0  gui_device.o(i.GUI_DEVICE__GetpDriver)
    i.GUI_DRAW_BITMAP_Create                 0x000496cc   Section        0  gui_draw_bitmap.o(i.GUI_DRAW_BITMAP_Create)
    i.GUI_DRAW__Draw                         0x0004970c   Section        0  gui_draw.o(i.GUI_DRAW__Draw)
    i.GUI_Delay                              0x00049738   Section        0  gui_time.o(i.GUI_Delay)
    i.GUI_DispCEOL                           0x000497a0   Section        0  gui_dispceol.o(i.GUI_DispCEOL)
    i.GUI_DispChar                           0x000497cc   Section        0  gui_dispchar.o(i.GUI_DispChar)
    i.GUI_DispCharAt                         0x000497e4   Section        0  gui_dispchar.o(i.GUI_DispCharAt)
    i.GUI_DispChars                          0x00049808   Section        0  gui_dispchars.o(i.GUI_DispChars)
    i.GUI_DispNextLine                       0x0004981c   Section        0  gui_char.o(i.GUI_DispNextLine)
    i.GUI_DispString                         0x00049840   Section        0  gui_dispstring.o(i.GUI_DispString)
    i.GUI_DispStringAt                       0x00049940   Section        0  gui_dispstringat.o(i.GUI_DispStringAt)
    i.GUI_DispStringAtCEOL                   0x00049964   Section        0  gui_dispstringatceol.o(i.GUI_DispStringAtCEOL)
    i.GUI_DispStringInRect                   0x00049972   Section        0  gui_dispstringinrect.o(i.GUI_DispStringInRect)
    i.GUI_DispStringInRectMax                0x0004997a   Section        0  gui_dispstringinrect.o(i.GUI_DispStringInRectMax)
    i.GUI_DispStringInRectWrap               0x000499c4   Section        0  gui_dispstringinrectwrap.o(i.GUI_DispStringInRectWrap)
    i.GUI_DrawBitmap                         0x00049ad4   Section        0  gui_drawbitmap.o(i.GUI_DrawBitmap)
    i.GUI_DrawFocusRect                      0x00049b2c   Section        0  gui_drawfocusrect.o(i.GUI_DrawFocusRect)
    i.GUI_DrawHLine                          0x00049bd0   Section        0  gui_drawhline.o(i.GUI_DrawHLine)
    i.GUI_DrawLine                           0x00049c24   Section        0  gui_drawline.o(i.GUI_DrawLine)
    i.GUI_DrawRect                           0x00049c6c   Section        0  gui_2dlib.o(i.GUI_DrawRect)
    i.GUI_DrawStreamedBitmap                 0x00049cec   Section        0  gui_stream.o(i.GUI_DrawStreamedBitmap)
    i.GUI_DrawVLine                          0x00049d2c   Section        0  gui_drawvline.o(i.GUI_DrawVLine)
    i.GUI_Error                              0x00049d78   Section        0  gui_error.o(i.GUI_Error)
    i.GUI_Exec                               0x00049d84   Section        0  gui_exec.o(i.GUI_Exec)
    i.GUI_Exec1                              0x00049d98   Section        0  gui_exec.o(i.GUI_Exec1)
    i.GUI_FillRect                           0x00049db8   Section        0  gui_fillrect.o(i.GUI_FillRect)
    i.GUI_FillRectEx                         0x00049e10   Section        0  gui_fillrectex.o(i.GUI_FillRectEx)
    i.GUI_GetBitsPerPixelEx                  0x00049e24   Section        0  lcd_getex.o(i.GUI_GetBitsPerPixelEx)
    i.GUI_GetBkColor                         0x00049e38   Section        0  gui_getcolor.o(i.GUI_GetBkColor)
    i.GUI_GetCharDistX                       0x00049e50   Section        0  gui_char.o(i.GUI_GetCharDistX)
    i.GUI_GetCharDistXEx                     0x00049e74   Section        0  gui_char.o(i.GUI_GetCharDistXEx)
    i.GUI_GetClientRect                      0x00049e98   Section        0  gui_getclientrect.o(i.GUI_GetClientRect)
    i.GUI_GetColor                           0x00049ea2   Section        0  gui_getcolor.o(i.GUI_GetColor)
    i.GUI_GetFontDistY                       0x00049ebc   Section        0  gui_char.o(i.GUI_GetFontDistY)
    i.GUI_GetFontSizeY                       0x00049ed4   Section        0  gui_getfontsizey.o(i.GUI_GetFontSizeY)
    i.GUI_GetOrg                             0x00049ee8   Section        0  gui_getorg.o(i.GUI_GetOrg)
    i.GUI_GetStringDistX                     0x00049f02   Section        0  gui_getstringdistx.o(i.GUI_GetStringDistX)
    i.GUI_GetTime                            0x00049f16   Section        0  gui_time.o(i.GUI_GetTime)
    i.GUI_GetYAdjust                         0x00049f1c   Section        0  gui_char.o(i.GUI_GetYAdjust)
    i.GUI_GetYDistOfFont                     0x00049f58   Section        0  gui_getysizeoffont.o(i.GUI_GetYDistOfFont)
    i.GUI_GetYSizeOfFont                     0x00049f60   Section        0  gui_getysizeoffont.o(i.GUI_GetYSizeOfFont)
    i.GUI_GetpfColor2IndexEx                 0x00049f68   Section        0  lcd_getex.o(i.GUI_GetpfColor2IndexEx)
    i.GUI_GetpfIndex2ColorEx                 0x00049f7c   Section        0  lcd_getex.o(i.GUI_GetpfIndex2ColorEx)
    i.GUI_GotoXY                             0x00049f90   Section        0  gui_goto.o(i.GUI_GotoXY)
    i.GUI_Index2Color                        0x00049fb2   Section        0  gui_index2color.o(i.GUI_Index2Color)
    i.GUI_Init                               0x00049fcc   Section        0  gui_core.o(i.GUI_Init)
    i.GUI_InvertRect                         0x0004a008   Section        0  gui_invertrect.o(i.GUI_InvertRect)
    i.GUI_Lock                               0x0004a06c   Section        0  gui_task.o(i.GUI_Lock)
    i.GUI_Long2Len                           0x0004a110   Section        0  gui_adddecshift.o(i.GUI_Long2Len)
    i.GUI_MEMDEV_Clear                       0x0004a140   Section        0  guidev_clear.o(i.GUI_MEMDEV_Clear)
    i.GUI_MEMDEV_CopyToLCD                   0x0004a184   Section        0  guidev.o(i.GUI_MEMDEV_CopyToLCD)
    i.GUI_MEMDEV_CopyToLCDAt                 0x0004a190   Section        0  guidev.o(i.GUI_MEMDEV_CopyToLCDAt)
    i.GUI_MEMDEV_Create                      0x0004a224   Section        0  guidev.o(i.GUI_MEMDEV_Create)
    i.GUI_MEMDEV_CreateEx                    0x0004a230   Section        0  guidev.o(i.GUI_MEMDEV_CreateEx)
    i.GUI_MEMDEV_CreateFixed                 0x0004a298   Section        0  guidev_createfixed.o(i.GUI_MEMDEV_CreateFixed)
    i.GUI_MEMDEV_Delete                      0x0004a2d0   Section        0  guidev.o(i.GUI_MEMDEV_Delete)
    i.GUI_MEMDEV_Draw                        0x0004a314   Section        0  guidev_banding.o(i.GUI_MEMDEV_Draw)
    i.GUI_MEMDEV_GetBitsPerPixel             0x0004a430   Section        0  guidev.o(i.GUI_MEMDEV_GetBitsPerPixel)
    i.GUI_MEMDEV_GetDataPtr                  0x0004a462   Section        0  guidev_getdataptr.o(i.GUI_MEMDEV_GetDataPtr)
    i.GUI_MEMDEV_GetXPos                     0x0004a484   Section        0  guidev_getpos.o(i.GUI_MEMDEV_GetXPos)
    i.GUI_MEMDEV_GetXSize                    0x0004a4b4   Section        0  guidev_getxsize.o(i.GUI_MEMDEV_GetXSize)
    i.GUI_MEMDEV_GetYPos                     0x0004a4e4   Section        0  guidev_getpos.o(i.GUI_MEMDEV_GetYPos)
    i.GUI_MEMDEV_GetYSize                    0x0004a514   Section        0  guidev_getysize.o(i.GUI_MEMDEV_GetYSize)
    i.GUI_MEMDEV_Paint1Static                0x0004a544   Section        0  guidev_staticdevices.o(i.GUI_MEMDEV_Paint1Static)
    i.GUI_MEMDEV_ReduceYSize                 0x0004a558   Section        0  guidev_reduceysize.o(i.GUI_MEMDEV_ReduceYSize)
    i.GUI_MEMDEV_Select                      0x0004a590   Section        0  guidev.o(i.GUI_MEMDEV_Select)
    i.GUI_MEMDEV_SetOrg                      0x0004a5e8   Section        0  guidev_setorg.o(i.GUI_MEMDEV_SetOrg)
    i.GUI_MEMDEV_Write                       0x0004a64c   Section        0  guidev_write.o(i.GUI_MEMDEV_Write)
    i.GUI_MEMDEV_WriteAt                     0x0004a658   Section        0  guidev_write.o(i.GUI_MEMDEV_WriteAt)
    i.GUI_MEMDEV__CreateFixed                0x0004a6c0   Section        0  guidev.o(i.GUI_MEMDEV__CreateFixed)
    i.GUI_MEMDEV__SetAlphaCallback           0x0004a7a8   Section        0  guidev_banding.o(i.GUI_MEMDEV__SetAlphaCallback)
    i.GUI_MEMDEV__WriteToActiveAlpha         0x0004a7b4   Section        0  guidev_writetoactivealpha.o(i.GUI_MEMDEV__WriteToActiveAlpha)
    i.GUI_MEMDEV__WriteToActiveAt            0x0004a8c4   Section        0  guidev.o(i.GUI_MEMDEV__WriteToActiveAt)
    i.GUI_MEMDEV__WriteToActiveOpaque        0x0004a8f4   Section        0  guidev_writetoactiveopaque.o(i.GUI_MEMDEV__WriteToActiveOpaque)
    i.GUI_MULTIBUF_Begin                     0x0004a930   Section        0  gui_multibuf.o(i.GUI_MULTIBUF_Begin)
    i.GUI_MULTIBUF_BeginEx                   0x0004a93c   Section        0  gui_multibuf.o(i.GUI_MULTIBUF_BeginEx)
    i.GUI_MULTIBUF_Config                    0x0004a9b8   Section        0  gui_multibuf.o(i.GUI_MULTIBUF_Config)
    i.GUI_MULTIBUF_ConfigEx                  0x0004a9c8   Section        0  gui_multibuf.o(i.GUI_MULTIBUF_ConfigEx)
    i.GUI_MULTIBUF_Confirm                   0x0004a9e4   Section        0  gui_multibuf.o(i.GUI_MULTIBUF_Confirm)
    i.GUI_MULTIBUF_ConfirmEx                 0x0004a9f4   Section        0  gui_multibuf.o(i.GUI_MULTIBUF_ConfirmEx)
    i.GUI_MULTIBUF_End                       0x0004aa1c   Section        0  gui_multibuf.o(i.GUI_MULTIBUF_End)
    i.GUI_MULTIBUF_EndEx                     0x0004aa28   Section        0  gui_multibuf.o(i.GUI_MULTIBUF_EndEx)
    i.GUI_MergeRect                          0x0004aa84   Section        0  gui_mergerect.o(i.GUI_MergeRect)
    i.GUI_MoveRect                           0x0004aadc   Section        0  gui_moverect.o(i.GUI_MoveRect)
    i.GUI_PollKeyMsg                         0x0004aafc   Section        0  gui_onkey.o(i.GUI_PollKeyMsg)
    i.GUI_ReadRectEx                         0x0004ab30   Section        0  lcd_readrect.o(i.GUI_ReadRectEx)
    i.GUI_RectsIntersect                     0x0004ab90   Section        0  gui_rectsintersect.o(i.GUI_RectsIntersect)
    i.GUI_RestoreContext                     0x0004abc8   Section        0  gui_savecontext.o(i.GUI_RestoreContext)
    i.GUI_SaveContext_W                      0x0004abd8   Section        0  gui_savecontext.o(i.GUI_SaveContext_W)
    i.GUI_SelectLCD                          0x0004abe4   Section        0  gui_selectlcd.o(i.GUI_SelectLCD)
    i.GUI_SelectLayer                        0x0004ac00   Section        0  gui_selectlayer.o(i.GUI_SelectLayer)
    i.GUI_SendKeyMsg                         0x0004ac24   Section        0  gui_onkey.o(i.GUI_SendKeyMsg)
    i.GUI_SetAlpha                           0x0004ac40   Section        0  gui_setalpha.o(i.GUI_SetAlpha)
    i.GUI_SetBkColor                         0x0004acac   Section        0  gui_setcolor.o(i.GUI_SetBkColor)
    i.GUI_SetClipRect                        0x0004acc2   Section        0  gui_setcliprect.o(i.GUI_SetClipRect)
    i.GUI_SetColor                           0x0004acda   Section        0  gui_setcolor.o(i.GUI_SetColor)
    i.GUI_SetDrawMode                        0x0004acf0   Section        0  gui_setdrawmode.o(i.GUI_SetDrawMode)
    i.GUI_SetFont                            0x0004ad08   Section        0  gui_setfont.o(i.GUI_SetFont)
    i.GUI_SetLineStyle                       0x0004ad24   Section        0  gui_setlinestyle.o(i.GUI_SetLineStyle)
    i.GUI_SetOrg                             0x0004ad40   Section        0  gui_setorg.o(i.GUI_SetOrg)
    i.GUI_SetPenSize                         0x0004ad7c   Section        0  gui_pen.o(i.GUI_SetPenSize)
    i.GUI_SetTextAlign                       0x0004ad98   Section        0  gui_settextalign.o(i.GUI_SetTextAlign)
    i.GUI_SetTextMode                        0x0004adb4   Section        0  gui_settextmode.o(i.GUI_SetTextMode)
    i.GUI_SignalEvent                        0x0004add0   Section        0  gui_waitevent.o(i.GUI_SignalEvent)
    i.GUI_StoreKey                           0x0004ade0   Section        0  gui_onkey.o(i.GUI_StoreKey)
    i.GUI_StoreKeyMsg                        0x0004adf0   Section        0  gui_onkey.o(i.GUI_StoreKeyMsg)
    i.GUI_TIMER_Create                       0x0004ae14   Section        0  gui_timer.o(i.GUI_TIMER_Create)
    i.GUI_TIMER_Delete                       0x0004aea4   Section        0  gui_timer.o(i.GUI_TIMER_Delete)
    i.GUI_TIMER_Exec                         0x0004aecc   Section        0  gui_timer.o(i.GUI_TIMER_Exec)
    i.GUI_TIMER_GetFlag                      0x0004af40   Section        0  gui_timer.o(i.GUI_TIMER_GetFlag)
    i.GUI_TIMER_Restart                      0x0004af72   Section        0  gui_timer.o(i.GUI_TIMER_Restart)
    i.GUI_TIMER_SetPeriod                    0x0004afaa   Section        0  gui_timer.o(i.GUI_TIMER_SetPeriod)
    i.GUI_TIMER__GetFirstTimer               0x0004afcc   Section        0  gui_timer.o(i.GUI_TIMER__GetFirstTimer)
    i.GUI_TIMER__GetNextTimerLin             0x0004aff4   Section        0  gui_timer.o(i.GUI_TIMER__GetNextTimerLin)
    i.GUI_UC_Encode                          0x0004b02c   Section        0  gui_uc.o(i.GUI_UC_Encode)
    i.GUI_UC_GetCharCode                     0x0004b050   Section        0  gui_uc.o(i.GUI_UC_GetCharCode)
    i.GUI_UC_GetCharSize                     0x0004b070   Section        0  gui_uc.o(i.GUI_UC_GetCharSize)
    i.GUI_UC_SetEncodeUTF8                   0x0004b090   Section        0  gui_uc_encodeutf8.o(i.GUI_UC_SetEncodeUTF8)
    i.GUI_UC__CalcSizeOfChar                 0x0004b0ac   Section        0  gui_uc.o(i.GUI_UC__CalcSizeOfChar)
    i.GUI_UC__GetCharCodeInc                 0x0004b0b8   Section        0  gui_uc.o(i.GUI_UC__GetCharCodeInc)
    i.GUI_UC__NumBytes2NumChars              0x0004b0e4   Section        0  gui_uc.o(i.GUI_UC__NumBytes2NumChars)
    i.GUI_UC__NumChars2NumBytes              0x0004b110   Section        0  gui_uc.o(i.GUI_UC__NumChars2NumBytes)
    i.GUI_USAGE_AddRect                      0x0004b138   Section        0  guidev_usage.o(i.GUI_USAGE_AddRect)
    i.GUI_USAGE_BM_AddHLine                  0x0004b160   Section        0  guidev_usagebm.o(i.GUI_USAGE_BM_AddHLine)
    GUI_USAGE_BM_AddHLine                    0x0004b161   Thumb Code   116  guidev_usagebm.o(i.GUI_USAGE_BM_AddHLine)
    i.GUI_USAGE_BM_AddPixel                  0x0004b1d4   Section        0  guidev_usagebm.o(i.GUI_USAGE_BM_AddPixel)
    GUI_USAGE_BM_AddPixel                    0x0004b1d5   Thumb Code    44  guidev_usagebm.o(i.GUI_USAGE_BM_AddPixel)
    i.GUI_USAGE_BM_Clear                     0x0004b200   Section        0  guidev_usagebm.o(i.GUI_USAGE_BM_Clear)
    GUI_USAGE_BM_Clear                       0x0004b201   Thumb Code    14  guidev_usagebm.o(i.GUI_USAGE_BM_Clear)
    i.GUI_USAGE_BM_Create                    0x0004b210   Section        0  guidev_usagebm.o(i.GUI_USAGE_BM_Create)
    i.GUI_USAGE_BM_GetNextDirty              0x0004b26c   Section        0  guidev_usagebm.o(i.GUI_USAGE_BM_GetNextDirty)
    GUI_USAGE_BM_GetNextDirty                0x0004b26d   Thumb Code   190  guidev_usagebm.o(i.GUI_USAGE_BM_GetNextDirty)
    i.GUI_USAGE_DecUseCnt                    0x0004b32a   Section        0  guidev_usage.o(i.GUI_USAGE_DecUseCnt)
    i.GUI_Unlock                             0x0004b358   Section        0  gui_task.o(i.GUI_Unlock)
    i.GUI_WrapGetNumLines                    0x0004b36c   Section        0  gui_dispstringinrectwrap.o(i.GUI_WrapGetNumLines)
    i.GUI__AllocAlphaBuffer                  0x0004b398   Section        0  gui__alpha.o(i.GUI__AllocAlphaBuffer)
    i.GUI__AlphaSuppressMixing               0x0004b3b0   Section        0  gui_setalpha.o(i.GUI__AlphaSuppressMixing)
    i.GUI__CalcTextRect                      0x0004b3d4   Section        0  gui__calctextrect.o(i.GUI__CalcTextRect)
    i.GUI__CompactPixelIndices               0x0004b474   Section        0  gui__compactpixelindices.o(i.GUI__CompactPixelIndices)
    i.GUI__CompactPixelIndicesEx             0x0004b598   Section        0  gui__compactpixelindices.o(i.GUI__CompactPixelIndicesEx)
    i.GUI__Config                            0x0004b6fc   Section        0  gui_core.o(i.GUI__Config)
    i.GUI__CreateBitmapFromStream            0x0004b730   Section        0  gui_stream.o(i.GUI__CreateBitmapFromStream)
    i.GUI__DispLine                          0x0004b76c   Section        0  gui_charline.o(i.GUI__DispLine)
    i.GUI__DispStringInRect                  0x0004b814   Section        0  gui_dispstringinrect.o(i.GUI__DispStringInRect)
    i.GUI__DivideRound32                     0x0004b954   Section        0  gui__divideround32.o(i.GUI__DivideRound32)
    i.GUI__DoAlphaBlending                   0x0004b970   Section        0  gui__alpha.o(i.GUI__DoAlphaBlending)
    i.GUI__ExpandPixelIndices                0x0004bab4   Section        0  gui__expandpixelindices.o(i.GUI__ExpandPixelIndices)
    i.GUI__ExpandPixelIndicesEx              0x0004bb84   Section        0  gui__expandpixelindices.o(i.GUI__ExpandPixelIndicesEx)
    i.GUI__GetAlphaBuffer                    0x0004bcc0   Section        0  gui__alpha.o(i.GUI__GetAlphaBuffer)
    i.GUI__GetCursorCharacter                0x0004bd50   Section        0  gui__getcursorpos.o(i.GUI__GetCursorCharacter)
    i.GUI__GetCursorPosChar                  0x0004bd68   Section        0  gui__getcursorpos.o(i.GUI__GetCursorPosChar)
    i.GUI__GetCursorPosX                     0x0004bd78   Section        0  gui__getcursorpos.o(i.GUI__GetCursorPosX)
    i.GUI__GetFontSizeY                      0x0004bd88   Section        0  gui__getfontsizey.o(i.GUI__GetFontSizeY)
    i.GUI__GetLineDistX                      0x0004bd98   Section        0  gui_charline.o(i.GUI__GetLineDistX)
    i.GUI__GetLineNumChars                   0x0004bde8   Section        0  gui_charline.o(i.GUI__GetLineNumChars)
    i.GUI__GetNumChars                       0x0004be20   Section        0  gui__getnumchars.o(i.GUI__GetNumChars)
    i.GUI__GetOrg                            0x0004be3c   Section        0  gui_getorg.o(i.GUI__GetOrg)
    i.GUI__GetOverlap                        0x0004be58   Section        0  gui_charline.o(i.GUI__GetOverlap)
    i.GUI__HandleEOLine                      0x0004be70   Section        0  gui__handleeoline.o(i.GUI__HandleEOLine)
    i.GUI__IntersectRect                     0x0004be88   Section        0  gui__intersectrect.o(i.GUI__IntersectRect)
    i.GUI__IntersectRects                    0x0004bec2   Section        0  gui__intersectrects.o(i.GUI__IntersectRects)
    i.GUI__ManageCache                       0x0004bf14   Section        0  gui__managecache.o(i.GUI__ManageCache)
    i.GUI__ManageCacheEx                     0x0004bf24   Section        0  gui__managecache.o(i.GUI__ManageCacheEx)
    i.GUI__MixColors                         0x0004bfd0   Section        0  gui__setpixelalpha.o(i.GUI__MixColors)
    i.GUI__Read16                            0x0004c030   Section        0  gui__read.o(i.GUI__Read16)
    i.GUI__ReadHeaderFromStream              0x0004c042   Section        0  gui_stream.o(i.GUI__ReadHeaderFromStream)
    i.GUI__ReduceRect                        0x0004c088   Section        0  gui__reducerect.o(i.GUI__ReduceRect)
    i.GUI__RegisterExit                      0x0004c0a4   Section        0  gui_core.o(i.GUI__RegisterExit)
    i.GUI__SetText                           0x0004c0b4   Section        0  gui__settext.o(i.GUI__SetText)
    i.GUI__WrapGetNumBytesToNextLine         0x0004c120   Section        0  gui__wrap.o(i.GUI__WrapGetNumBytesToNextLine)
    i.GUI__WrapGetNumCharsDisp               0x0004c134   Section        0  gui__wrap.o(i.GUI__WrapGetNumCharsDisp)
    i.GUI__WrapGetNumCharsToNextLine         0x0004c13a   Section        0  gui__wrap.o(i.GUI__WrapGetNumCharsToNextLine)
    i.GUI__memset                            0x0004c198   Section        0  gui__memset.o(i.GUI__memset)
    i.GUI__memset16                          0x0004c1e4   Section        0  gui__memset16.o(i.GUI__memset16)
    i.GUI__strcmp                            0x0004c220   Section        0  gui__strcmp.o(i.GUI__strcmp)
    i.GUI__strcmp_hp                         0x0004c248   Section        0  gui__strcmp.o(i.GUI__strcmp_hp)
    i.GUI__strlen                            0x0004c268   Section        0  gui__strlen.o(i.GUI__strlen)
    i.GUI_cos                                0x0004c27c   Section        0  gui_drawline.o(i.GUI_cos)
